:020000040800F2
:10000000000900207D020008312700082D12000899
:100010002D27000807050008FD3500080000000036
:10002000000000000000000000000000C501000802
:100030006D0600080000000019020008D531000814
:100040009B0200089B0200089B0200089B0200081C
:100050009B0200089B0200089B0200089B0200080C
:100060009B0200089B0200089B0200089B020008FC
:100070009B0200089B0200089B0200089B020008EC
:100080009B0200089B0200089B0200089B020008DC
:100090009B0200089B0200089B0200089B020008CC
:1000A0009B0200089B0200089B0200089B020008BC
:1000B0009B0200089B0200089B0200089B020008AC
:1000C0009B0200089B0200089B0200089B0200089C
:1000D0009B020008193300089B0200089B020008DD
:1000E000810600089B0200089B0200089B02000892
:1000F0009B0200089B0200089B0200089B0200086C
:100100009B020008492A00089B0200089B02000885
:100110009B0200089B0200089B0200089B0200084B
:100120009B0200089B0200089B02000831060008A1
:100130009B0200089B0200089B0200089B0200082B
:100140009B0200089B0200089B0200089B0200081B
:100150009B0200089B0200089B0200089B0200080B
:100160009B0200089B0200089B0200089B020008FB
:100170009B0200089B0200089B0200089B020008EB
:100180009B0200089B0200089B0200089B020008DB
:100190009B0200089B0200089B0200089B020008CB
:1001A0009B0200089B0200089B020008DFF810D0A9
:1001B00000F04EF900F0CEF800480047BD7C000882
:1001C000000900202A4B19680868B0E8F04F80F356
:1001D0000988BFF36F8F4FF0000080F311887047DC
:1001E0000000000006480068006880F3088862B6D6
:1001F00061B6BFF34F8FBFF36F8F00DF00BF00BF4B
:1002000008ED00E0DFF80C00016841F470010160C6
:10021000704700BF88ED00E0EFF30980BFF36F8FF8
:10022000134B1A681EF0100F08BF20ED108A20E94A
:10023000F04F106008B44FF0500080F31188BFF306
:100240004F8FBFF36F8F08F06FFD4FF0000080F30A
:10025000118808BC19680868B0E8F04F1EF0100F4C
:1002600008BFB0EC108A80F30988BFF36F8F704726
:100270001C030020EFF3058070470000074880470B
:100280000748804707480047FEE7FEE7FEE7FEE72E
:10029000FEE7FEE7FEE7FEE7FEE7FEE709320008BD
:1002A000712A0008AD0100082DE9F05F0546002025
:1002B00092469B4688460646814640241BE02846D7
:1002C00041464746224600F066F853465A46C01A51
:1002D000914110D311461846224600F04DF82D1AD0
:1002E00067EB01084F4622460120002100F044F848
:1002F00017EB00094E41201EA4F10104DFDC484643
:1003000031462A464346BDE8F09F40EA01039B0779
:1003100003D009E008C9121F08C0042AFAD203E07A
:1003200011F8013B00F8013B521EF9D27047D2B2DE
:1003300001E000F8012B491EFBD270470022F6E7CE
:1003400010B513460A4604461946FFF7F0FF20464B
:1003500010BD000070B5054C054D03E02068204439
:100360008047241DAC42F9D170BD000078C9000857
:100370007CC9000800F036B8202A04DB203A00FAD5
:1003800002F1002070479140C2F1200320FA03F3EC
:10039000194390407047202A04DB203A21FA02F0EA
:1003A0000021704721FA02F3D040C2F120029140AF
:1003B0000843194670470000004870479403002026
:1003C0007047000009207047092070477047704748
:1003D00009207047024801464860001D7047000030
:1003E0009803002010B500F00EF8016919B1002241
:1003F0000261884701E080688047AFF30080000019
:1004000010B5AFF3008070B5FFF7E4FF0468054650
:10041000A4B9202007F064FC040011D00949002091
:100420002C60C4E900010849A1602073206160616B
:100430000649A06109B100F01DF8E061204670BDD9
:10044000AFF300800000000001040008000000007D
:10045000064C074D06E0E06840F0010394E8070011
:1004600098471034AC42F6D3FFF7A4FE38C9000811
:1004700078C9000810B5882007F032FC002801D0A8
:100480000021017010BD802902D808B1017809B19E
:1004900000207047012100F8081B704718B100F1D7
:1004A0000802914201D0002070470021017070477E
:1004B00070B58C1810F8015B15F0070301D110F826
:1004C000013B2A1106D110F8012B03E010F8016B53
:1004D00001F8016B5B1EF9D12B0705D40023521ED6
:1004E0000DD401F8013BFAE710F8013BCB1A921C3E
:1004F00003E013F8015B01F8015B521EF9D5A1423C
:10050000D8D3002070BD00BFFEE710B50121C8059B
:1005100002F086F900214FF4000002F081F910BDCD
:1005200001460020034A52680A400AB1012000E057
:100530000020704700B0024070B500210022002367
:100540000024344D2D68344E3540324E35603546EA
:100550002D68066835432F4E356035466D6B25F0A6
:100560000705756335466D6B46683543294E7563DF
:10057000456835B9C5682902058A2A04057D2B0618
:1005800021E04568012D05D1C5682902058A2A04A4
:10059000002318E04568022D05D1C5686901056989
:1005A000EA0200230FE04568032D06D1C568690102
:1005B0000569AA024569EB0305E0C56829010569DB
:1005C0002A0245692B0341EA0205866835431D432B
:1005D000104EB66B35430F4EB5638569F5633546EE
:1005E0002D6C6FF30D05356435462D6CC6693543AA
:1005F000084E3564858C2C0435466D6C05F04045FD
:10060000756435466D6C066A26433543014E756444
:1006100070BD000000B00240FCE0FCFF0348006831
:1006200040F00100014908607047000000B002403E
:1006300010B502F08BFC10BD0246094B9A4201D264
:10064000084801E00648103801F000531BB1064B82
:100650000B40C36002E0044B0B4083607047000016
:1006600010640240006002407D0F7D0F704701B5AD
:1006700002E00098401E009000980028F9D108BDC3
:1006800010B54FF4005000F011F838B101F0A0FEA1
:1006900000F068FC4FF4005000F002F810BD0000BC
:1006A0000149086070470000143C014001460020E9
:1006B000034A12680A400AB1012000E00020704796
:1006C000143C0140002123498279002A3AD00A468D
:1006D000126803689A430B461A600A1D1268036881
:1006E0009A430B1D1A60027911440A6803681A4381
:1006F0000A60184A0832126803689A43154B083397
:100700001A601A1D126803689A43124B0C331A6060
:100710004279102A0ED11A1F126803681A430D4B32
:1007200008331A601A1D126803681A43094B0C3308
:100730001A600DE00749427911440A6803681A43B8
:100740000A6005E0027911440A6803689A430A6066
:1007500070470000003C014000B587B00121202017
:1007600002F04EF80121080502F08AF8052207215F
:100770002E4800F089F9052208212C4800F084F960
:1007800005220921294800F07FF9802000900220ED
:100790008DF805008DF8040000208DF806008DF816
:1007A00007006946214800F027F94FF48070009057
:1007B00069461E4800F020F94FF400700090694629
:1007C0001A4800F019F94020009001208DF804002B
:1007D0006946164800F010F9402014491831088085
:1007E0000020ADF808004FF48270ADF80A00002038
:1007F000ADF80C000220ADF80E000120ADF810009D
:100800004002ADF812000020ADF81400ADF816005B
:100810000720ADF8180002A9054802F00DFC0121DF
:10082000034802F0FDFB07B000BD000000140240C9
:100830000050014010B5024600200023102A03D1C9
:100840004FF02044636E0FE0B2F5807F02D10A4C76
:10085000236809E0B2F5805F03D1074C2034236898
:1008600002E0054CD434236803EA01048C4201D031
:10087000002000E0012010BD840000A00021D0E98C
:1008800000231A4383685B1E42EA4312C36842EAAC
:100890004321014A11607047500100A070B5002249
:1008A0000021002300240568AD00A5F1C045D5F85E
:1008B00040216FF30E02D0E901563543C668354337
:1008C000066935434669354386693543C66935430C
:1008D000066A3543466A35432A43056835B90568D3
:1008E000AD00A5F1C045C5F8402111E03B4D2B6896
:1008F0006FF30E03D0E907563543466A35432B4361
:10090000364D2B600568AD00A5F1C045C5F8402106
:10091000056875BB314D0835066855F8261001F09D
:100920007041856A2D686D1E866A7668761E45EA76
:100930000616856AAD686D1E46EA0526856AED686D
:100940006D1E46EA0536856A2D8A6D1E46EA054605
:10095000856AAD8A6D1E46EA0556856A2D7E6D1E36
:1009600046EA056529431D4D0835066845F82610F9
:1009700032E0FFE7194D0835066855F8261001F0FA
:100980007041856A2D686D1E866A7668761E45EA16
:100990000616856AAD686D1E46EA0526856A2D8AAB
:1009A0006D1E46EA054529430C4D08352C6804F0B8
:1009B0007044856AED686D1E2E03856AAD8A6D1ED2
:1009C00046EA05552C434FF02045C5F84841034DF4
:1009D0000835066845F8261070BD0000400100A0EB
:1009E0000449096841EA40014FF02042C2F854111D
:1009F00070470000540100A0F0B50A460021002312
:100A0000002400BF3DE0012505FA01F3156805EA61
:100A100003049C4234D105684F000326BE40B54311
:100A2000056015794E00B5400668354305601579B7
:100A3000012D02D01579022D16D185684F000326AD
:100A4000BE40B543856055794E00B5408668354354
:100A50008560456801268E40B543456045689679B6
:100A60008E40B6B235434560C5684F000326BE4090
:100A7000B543C560D5794E00B540C6683543C560FD
:100A8000491C1029BFD3F0BDF0B5002300244D0749
:100A9000ED0E02FA05F3CE1000F1200555F82650B0
:100AA0004E07F70E0F26BE40B543CF1000F12006CB
:100AB00046F82750CE1000F1200555F8265045EA9B
:100AC0000304CE1000F1200545F82640F0BD418317
:100AD00070470183704742694A40426170470AB1DA
:100AE000018300E0418370472DE9FC410020009024
:100AF000019000244FF448754FF4F07600278020D1
:100B00008DF8000048208DF8010006226946BA20C1
:100B100000F04EF80446002C02DA0020BDE8FC810B
:100B20009DF802009DF8031000EB012085B29DF8AE
:100B300004009DF8051000EB012086B280208DF89E
:100B400000004D208DF8010003226946BA2000F014
:100B50002FF80446002C01DA0020DFE79DF80200A0
:100B600000F003073B463246294602A006F006FE87
:100B70000120D3E73C3C2D4754502D494E464F2D84
:100B80003E3E20585F4D4158203D2025642C205981
:100B90005F4D4158203D2025642C20545249474741
:100BA0004552203D203078253032780A0000000080
:100BB0002DE9F04186B005460C4616464FF0FF374A
:100BC0004FF0000800BF00BF0020ADF802008DF814
:100BD00000500220ADF8040002940121ADF80E107F
:100BE0008DF80C50B01E81B2ADF81010A01C05900D
:100BF00009E00221684600F0A5FD0746022F00D15A
:100C000004E008F10108B8F1050FF2DB00BFB8F10C
:100C1000050F08DB6078237840EA0321B21E3B46CB
:100C2000034806F0ABFD384606B0BDE8F081000091
:100C300070C7000838B50E480068009000256C1E8B
:100C400000BF00BF0DE003226946BA20FFF7B0FFE6
:100C500044B2002C01DD204638BD294605A006F02F
:100C60008DFD2846691CCDB20528ECDB2046F3E754
:100C7000CC9A00083C3C2D4754502D4552524F52BF
:100C80002D3E3E20475450206932632074657374B2
:100C9000206661696C65642074696D652025642E29
:100CA0000A0000002DE9FE4380460C4615464FF031
:100CB000FF36002700BF00BF0020ADF802008DF80E
:100CC0000080A8B2ADF80400029408E00121684653
:100CD00000F038FD0646012E00D102E07F1C052FF2
:100CE000F4DB00BF052F08DB6078237840EA03219E
:100CF000AA1E3346024806F041FD3046BDE8FE8399
:100D0000C0C700082DE9F0474FF0FF3500264FF02F
:100D100000094FF0000AB82400BF00BF00F008FD32
:100D2000FFF788FF0546002D05DA28A006F026FD0E
:100D30002846BDE8F08700F069F82F48007818B918
:100D40002E4F4FF0BA0802E02D4F4FF0BA08F021B5
:100D50002C48FFF7F3FA424639462A48FFF7D5FAFE
:100D60004FF00009022606E02648801E805D4844B8
:100D700000F0FF09761CA01C8642F5DB6FEA090033
:100D8000401CC1B21F4A921EA01C11540121E01C3C
:100D900011544FF0000A0BE0221D1A49891EBA2097
:100DA000FFF780FF0546002D00DD04E00AF1010A8F
:100DB000BAF1050FF0DB00BF1348FFF758FC00F055
:100DC000BFFAFFF791FE0020B3E700003C3C2D473F
:100DD00054502D4552524F522D3E3E204932432011
:100DE000636F6D6D756E69636174696F6E204552D6
:100DF000524F52210A000000A20200203C000020B5
:100E0000F6000020B2010020FFFF0F0010B586B0F1
:100E10004FF0FF342E4903C9CDE9040100BF00BFE4
:100E2000082204A9BA20FFF7C3FE0446002C05DA05
:100E300028A006F0A3FC204606B010BD9DF81500C2
:100E4000F0B99DF816009DF81710CDE900109DF837
:100E500014309DF813209DF8121029A006F08EFC86
:100E60009DF81200392830D19DF8130031282CD17B
:100E70009DF81400312828D101202D49087024E064
:100E80009DF816009DF817109DF81520CDE900215A
:100E900002909DF814309DF813209DF8121025A0A3
:100EA00006F06CFC9DF8120039280ED19DF8130055
:100EB00031280AD19DF81400352806D19DF8150077
:100EC000372802D100201A4908702046B4E70000F4
:100ED000B49A00083C3C2D4754502D4552524F5275
:100EE0002D3E3E2047545020726561642076657225
:100EF00073696F6E206661696C65640A00000000AA
:100F00003C3C2D4754502D494E464F2D3E3E2049E6
:100F100043312056657273696F6E3A2025632563ED
:100F200025635F25303278253032780A00000000D2
:100F3000A20200203C3C2D4754502D494E464F2DD7
:100F40003E3E204943322056657273696F6E3A20E7
:100F500025632563256325635F253032782530328C
:100F6000780A000010B500BF00BF00F067F810BDA0
:100F70002DE9F04104460D4616461F46B3B2AAB20B
:100F8000DFF82CC03CF814C01FFA8CF1DFF824C045
:100F90003CF814C01FFA8CF000F032F828B2054972
:100FA00021F8140030B2024921F81400BDE8F081A4
:100FB000AE020020A402002010B50446084A32F90F
:100FC0001410084A32F9140000F032F84FF0FF30E4
:100FD000044921F81400024921F8140010BD000052
:100FE000AE020020A4020020034A12880280034AB5
:100FF00012880A8070470000E2020020E40200200C
:1010000030B5064C2080064C2180064C2280064CD0
:1010100023800024054D2C7030BD0000DE0200202E
:10102000E0020020E2020020E4020020E6020020AC
:101030000122014B1A707047E60200202DE9F04FA3
:1010400099B05FA00068189028210EA8FFF776F9E4
:101050005C4800680D900025A8464FF0BA0B0026AA
:1010600000200C900B900A90814600244FF0FF3A2C
:1010700000BF00BF0C220DA95846FFF799FD82461C
:10108000BAF1000F06DA51464FA006F077FB19B00F
:10109000BDE8F08F9DF83680B8F1000F00D1F6E77B
:1010A00008F0800000B97CE008F00F05052D00DD98
:1010B00077E0012D17DD242101A8FFF73FF9414812
:1010C000001D00680090681EC000821C69465846DA
:1010D000FFF76EFD8246681EC2000DF1020110A8E6
:1010E000FFF713F900BF44480088A84221DD00241F
:1010F0001BE0002715E0032000EBC7000DA94618F0
:10110000307800F00F093D48005D484500D10AE005
:10111000681EB84203DC3949085DFFF74DFF781CB3
:10112000C7B2AF42E7DB00BF641C3348008884428B
:10113000DFDB2DB3002420E0032000EBC4000DA969
:101140004618307800F00F092C4800F804907078A9
:10115000B17840EA01200C90F078317940EA012022
:101160000B907079B17940EA01200A904846DDE998
:101170000A320C99FFF7FCFE641CAC42DCDB0DE08C
:101180001D48008850B1002404E01C49085DFFF7A9
:1011900013FF641C184800888442F6DB164805805B
:1011A00000BF032218A95846FFF77CFD8246BAF11A
:1011B000000F02DA12A006F0E1FA00BF67E70000B4
:1011C000814E0000589A00083C3C2D4754502D4554
:1011D00052524F522D3E3E20493243207472616E6E
:1011E00073666572206572726F722E206572726E00
:1011F0006F3A25640A200A00B8020020BA020020D3
:101200003C3C2D4754502D494E464F2D3E3E2049E3
:10121000324320777269746520656E645F636D6424
:10122000206572726F72210A0000000000BFFEE7A5
:1012300021B1028842F48062028004E002884FF605
:10124000FF331A400280704770B502460024002523
:1012500000230020958A138B1B0445EA030626F021
:101260007F4404EA01068E4201D1012000E0002003
:1012700070BD21B1028842F00102028004E00288C0
:101280004FF6FE731A400280704700001CB5012122
:10129000880501F0E5FA0121882001F0B1FA012169
:1012A000880301F0EDFA042211462348FFF7ECFB16
:1012B000042205212048FFF7E7FB102000900220C0
:1012C0008DF804008DF8050001208DF8060000203F
:1012D0008DF8070069461848FFF78EFB2020009024
:1012E00069461548FFF788FB4FF400600090012025
:1012F0008DF8040002208DF8050000208DF806000E
:1013000002208DF8070069460C48FFF775FB4FF483
:101310000050009001208DF8040002208DF8050097
:1013200000208DF8060002208DF80700694603486A
:10133000FFF762FB1CBD0000001C0240000C0240D5
:1013400000B585B04FF40050009000208DF80400E7
:1013500002208DF8050000208DF807006946154829
:10136000FFF74AFB0D21032001F084FE4FF40050EB
:10137000039000208DF8100008208DF81100012046
:101380008DF8120003A8FFF79DF94FF4407001F0AB
:101390000DFA28208DF8080000208DF809008DF83E
:1013A0000A0001208DF80B0002A801F0C3F905B076
:1013B00000BD0000000C024021B1028842F480729E
:1013C000028004E002884FF6FF631A4002807047F3
:1013D00021B1028842F40072028004E002884FF6D4
:1013E000FF531A40028070470CB5024600200023CC
:1013F0000193009300920B0F019321F07F41019B19
:101400001BB1009B1433009303E0090C009B1833BD
:101410000093009B1B680B400BB1012000E00020F3
:101420000CBD00002DE9FF4704460D460026B146DD
:101430000427DFF8CC80A6884FF6C07006406846C7
:1014400001F02EFADDF808802E48B8FBF0F01FFA04
:1014500080F946EA0906A68020884FF6FE7108400A
:10146000208000262849286888420CD82868400037
:10147000B8FBF0F087B2042F00DA04273E4309F1ED
:101480000100208427E0E8884BF6FF71884206D1EE
:10149000286800EB4000B8FBF0F087B209E028684C
:1014A00000EBC00101EB0010B8FBF0F087B247F48D
:1014B0008047C7F30B0008B947F0010747F4004025
:1014C00006434FF4967009FB00F04FF47A7190FBDD
:1014D000F1F0401C2084A683208840F00100208089
:1014E00026884FF6F5300640A888698908430643E8
:1014F0002680A889298908432081BDE8FF8700004C
:1015000000127A0040420F00A08601001FB50020A3
:10151000ADF804004BF6FF70ADF806000A20ADF8F8
:1015200008004FF48060ADF80A000001ADF80C002F
:101530000748009069460748FFF774FF01210548F6
:10154000FFF797FE01210348FFF772FE1FBD000061
:10155000801A06000058004070B506460D46144635
:101560004FF420403B49086009E03A490868411EB1
:10157000384A116018B9002000F0BAF870BD4FF475
:1015800000313548FFF730FF0028EED10121324805
:10159000FFF712FF4FF480502E49086009E02D49F3
:1015A0000868411E2B4A116018B9012000F0A0F80C
:1015B000E4E72A492848FFF747FE0028EFD0012238
:1015C0003146254800F08AF84FF4805021490860E0
:1015D00009E020490868411E1E4A116018B902201E
:1015E00000F086F8CAE71D49491C1B48FFF72CFE8E
:1015F0000028EED026E0012C07D100211648FFF785
:1016000017FE01211448FFF7E3FE4FF42040114973
:10161000086009E00F490868411E0E4A116018B9B8
:10162000032000F065F8A9E70C493F310A48FFF7AD
:101630000BFE0028EED0084800F012F828706D1C50
:10164000601E84B2002CD6D101210348FFF7F0FDC3
:10165000002093E7C0020020005800400100030072
:101660000146088AC0B270471CB54FF40050009084
:1016700001208DF8040002208DF8050000208DF86F
:10168000060002208DF8070069461248FFF7B4F9FA
:101690004FF400610F48FFF71AFA0F48FEF7E7FF13
:1016A0004FF400610B48FFF714FA0B48FEF7DFFF19
:1016B0004FF40050009000208DF8040002208DF8B7
:1016C000050000208DF8070069460248FFF794F9ED
:1016D0001CBD0000000C0240FFFF0F0012B141F0E2
:1016E000010101E001F0FE010182704701827047B3
:1016F00010B50446214602A006F040F8FF2010BDB8
:101700003C3C2D4754502D4552524F522D3E3E20C9
:1017100049324320B5C8B4FDB3ACCAB12165727279
:101720006F72436F6465203D2025640A000000004D
:1017300010B5FFF7ABFDFFF7E9FEFFF795FFFFF7E9
:10174000FFFD10BD2DE9F04105460F46002400269F
:1017500000BF00BF00BF2BE004EB440005EB80009E
:10176000807800F0010088B104EB440305EB8303AB
:101770009A8804EB440305EB8303996804EB440364
:1017800015F82300FFF7E8FE064610E004EB4403DB
:1017900005EB83031A7904EB440305EB8303996893
:1017A00004EB440315F8230000F00CF80646641C13
:1017B0000EB9BC42D0D116B13046BDE8F08120460A
:1017C000FBE7000070B505460C4616464FF4204076
:1017D0003649086009E035490868411E334A1160FE
:1017E00018B90420FFF784FF70BD4FF40031304872
:1017F000FFF7FAFD0028EED101212D48FFF7DCFDAF
:101800004FF480502949086009E028490868411EC2
:10181000264A116018B90520FFF76AFFE4E7254959
:101820002348FFF711FD0028EFD000222946204869
:10183000FFF754FF4FF480501C49086009E01B4932
:101840000868411E194A116018B90620FFF750FFB9
:10185000CAE719491648FFF7F7FC0028EFD01AE04D
:1018600021781348FFF742FF641C4FF480500F4962
:10187000086009E00D490868411E0C4A116018B95A
:101880000720FFF735FFAFE70B49891C0848FFF732
:10189000DBFC0028EED03000A6F10101CEB2DFD192
:1018A00001210348FFF794FD00209DE7C0020020BE
:1018B00000580040010003008200070010B500F04E
:1018C00073FC00F0B1FC012000F0AAFD002000F044
:1018D0000FFD002000F01AF8FF2000F025FD012088
:1018E00000F006FD002000F011F8FF2000F01CFDC4
:1018F0004FF6FF7000F012FD4FF4F0734FF4487292
:101900000021084600F072F910BD0000F0B58BB060
:10191000044600250026002704F47840C51204F090
:101920001F0704F4FC604611FEF7EFFD4FF4403052
:101930000190022002900496039705950F200690CF
:101940000D4800680790002008904FF4F07009904F
:101950004FF448700A9001A8FEF7EEFDFEF75EFE18
:1019600000BF0220FEF7DCFD0028FAD00348008803
:1019700000F0D4FC0BB0F0BD34000020300000209B
:1019800070B505460E461446A4F12000C4B20748BF
:101990000068016805480068C088604301EB4002A8
:1019A0003146284600F004F870BD00002C000020ED
:1019B0002DE9F04104460D46134600BF002200BF4A
:1019C00000204FF4487767437E00284400214DE013
:1019D00000223FE0294F3F68BF884FF00C0C97FB77
:1019E000FCF74FEAC70C802707FA0CF7174133F8CA
:1019F00011C007EA0C0727B9204F3F68BF880C2F9A
:101A00000DDD33F811704FF0010C0CFA02FC07EAFF
:101A10000C078FB9194F3F68BF880C2F0CDD184F8A
:101A20003F88DFF860C0DCF800C04FF0020808FB18
:101A300000CC2CF806700BE0134F3F88DFF844C051
:101A4000DCF800C04FF0020808FB00CC2CF8067050
:101A5000401C521C094F3F68BF889742BAD8074FB5
:101A60003F68BF88C7F548773844491C034F3F6833
:101A7000FF888F42ACD8BDE8F08100002C00002028
:101A80003200002034000020300000202DE9F04317
:101A900003460C461546684200216F00C7F102025A
:101AA00000BF2B4F3F88A3EB000C04EB01084FF461
:101AB000487909FB08CCDFF89C80D8F8008028F82A
:101AC0001C70234F3F8803EB000C04EB010809FB5B
:101AD00008CCDFF88080D8F8008028F81C701C4FF4
:101AE0003F8803EB000CA4EB010809FB08CCDFF8EE
:101AF0006480D8F8008028F81C70154F3F88A3EB4D
:101B0000000CA4EB010809FB08CCDFF84880D8F8EA
:101B1000008028F81C7016468E420BDC4F1C39469C
:101B20004FF0010C0CEB47073A44C84202D1864201
:101B300000DC0026864206DD471C38464FF0010CCB
:101B40000CEB47073A440028ABDDBDE8F08300000A
:101B500030000020340000202DE9F04706460F46F3
:101B600090460320A0EB48090024454634E08DB19F
:101B70006B041A0C7B1B99B2331B98B2012300F043
:101B800087F86B041A0C7B1B99B2331998B20123A6
:101B900000F07EF88CB163041A0C3B1B99B2731BE6
:101BA00098B2012300F074F863041A0C3B1B99B23D
:101BB000731998B2012300F06BF8B9F1000F04DA41
:101BC000062000EB8400814405E0601B0A2101EB44
:101BD000800081446D1E641CAC42C8D9424639461F
:101BE0003046FFF753FFBDE8F08700002DE9F04FC6
:101BF0008BB005460E4614461F464FF00008C146FE
:101C0000C246C3462048008800F478404FEAE029E5
:101C10001D48007800F01F0B1B48008800F4FC6092
:101C20004FEA601A4FF4487000FB065017490968E4
:101C3000022202FB0018FEF768FC4FF440300190CE
:101C400002200290CDF810A0CDF80CB0CDF8149081
:101C50000F200690CDF81C80C4F5487008900997B5
:101C60000A9401A8FEF768FCFEF7D8FC00BF02202A
:101C7000FEF756FC0028FAD00348008800F04EFB1F
:101C80000BB0BDE8F08F00003000002034000020D1
:101C90002DE9F04F8BB005460E4614461F464FF017
:101CA0000008C146C246C3464FF4487000FB0650C8
:101CB00020490968022202FB00181F48008800F42E
:101CC00078404FEAE0291C48007800F01F0B1A48C2
:101CD000008800F4FC604FEA601AFEF716FC4FF42F
:101CE0004030019002200290CDF810A0CDF80CB049
:101CF000CDF814900F200690CDF81C802FB900204D
:101D00000890012009900A9405E040F21F300890E5
:101D1000099401200A9001A8FEF70EFCFEF77EFC54
:101D200000BF0220FEF7FCFB0028FAD00BB0BDE894
:101D3000F08F000034000020300000202DE9F04139
:101D400005460E4617461C4600233A4631462846AD
:101D5000FFF79EFF301981B200233A462846FFF76D
:101D600097FF0123224631462846FFF791FFE919E4
:101D700088B2012322463146FFF78AFFBDE8F08191
:101D80002DE9F04F89B005460E4691469A46002748
:101D9000B8460020089007900690059004900390A4
:101DA00000248346029001900090A9EB05000028D2
:101DB00002DDA9EB050001E0A5EB090007B2AAEBE3
:101DC0000600002802DDAAEB060001E0A6EB0A00EF
:101DD0000FFA80F828B2089030B20790A94503DBCB
:101DE00001200690059003E04FF0FF30069005902B
:101DF000B24503DB01200490039003E04FF0FF3075
:101E00000490039047450DDB0020069003903C466C
:101E1000384607EBD07149100FFA81FBCDF80880E6
:101E200001970CE00020059004904446404608EBE2
:101E3000D07149100FFA81FB0297CDF80480002081
:101E4000009025E0DDE9071000F0BAFC0298584444
:101E50000FFA80FBA3450DDBABEB04000FFA80FB10
:101E600006990898084400B2089004990798084415
:101E700000B2079005990898084400B208900399A9
:101E80000798084400B207900098401C00B20090E8
:101E9000DDE900018842D5DD09B0BDE8F08F000022
:101EA0001CB5012140F2FF1000F0AAFC04200090B4
:101EB00002208DF805008DF8040000208DF8060042
:101EC0008DF807006946AF48FEF796FD0E22022105
:101ED000AC48FEF7D9FD082000906946A948FEF7F6
:101EE0008BFD0E220321A748FEF7CEFD4FF4807034
:101EF00000906946A348FEF77FFD0E220821A14805
:101F0000FEF7C2FD0120009069469F48FEF774FD70
:101F1000092200219C48FEF7B7FD4FF400600090B5
:101F200069469A48FEF768FD0E220B219748FEF796
:101F3000ABFD4FF48050009069469448FEF75CFD7D
:101F40000E220C219148FEF79FFD02200090694669
:101F50008D48FEF751FD092201218B48FEF794FDC3
:101F60004020009069468A48FEF746FD0E22062171
:101F70008748FEF789FD2020009069468548FEF7D6
:101F80003BFD0E2205218348FEF77EFD4020009098
:101F900069468048FEF730FD0E2206217D48FEF797
:101FA00073FD4FF40050009069467648FEF724FD1B
:101FB0000E220D217348FEF767FD4FF480600090FC
:101FC00069467348FEF718FD09220A217048FEF79A
:101FD0005BFD4FF40040009069466A48FEF70CFD37
:101FE0000E220F216748FEF74FFD01200090694641
:101FF0006948FEF701FD0E2200216748FEF744FD07
:102000008020009069466548FEF7F6FC0E22072105
:102010006248FEF739FD0420009069465E48FEF7ED
:10202000EBFC0E2202215C48FEF72EFD10200090F2
:1020300069465848FEF7E0FC0E2204215548FEF799
:1020400023FD4FF48050009069465148FEF7D4FCC0
:102050000E220C214E48FEF717FD402000906946E5
:102060004F48FEF7C9FC0E2206214D48FEF70CFD35
:102070004FF40060009069464548FEF7BDFC0E2213
:102080000B214348FEF700FD1020009069464248AE
:10209000FEF7B2FC0E2204213F48FEF7F5FC0820B3
:1020A000009069463948FEF7A7FC0E220321374805
:1020B000FEF7EAFC4FF48070009069463248FEF764
:1020C0009BFC0E2208213048FEF7DEFC4FF4007026
:1020D000009069462C48FEF78FFC0E2209212A4801
:1020E000FEF7D2FC8020009069462948FEF784FC68
:1020F0000E2207212648FEF7C7FC4FF480600090AF
:1021000069462548FEF778FC0E220A212248FEF790
:10211000BBFC4FF40070009069461F48FEF76CFC52
:102120000E2209211C48FEF7AFFC4FF4806000909E
:1021300069461C48FEF760FC0E220A211948FEF78A
:10214000A3FC1020009002208DF8050001208DF8DE
:10215000040000208DF8060001208DF80700694674
:102160000F48FEF749FC8020009069460C48FEF7B6
:1021700043FC10210A48FEF7ACFC80210848FEF71A
:10218000A8FC1CBD001C02400004024000000240EC
:1021900000180240001002400020024000080240E7
:1021A000000C02400014024000B58FB001218806E7
:1021B00000F066FB0121C80500F022FBFFF770FE6E
:1021C00000F056FC002000900190029003900C90CB
:1021D0000D900E9005220721FA2000F007FC002048
:1021E00000F0F2FB012000F0FBFB00BF3D2000F0FF
:1021F000CBFB0028FAD00020049005902E200690FA
:102200001720079040F24E30089040F2F7100990E6
:102210004FF459700A9040F20D200B90684600F080
:1022200023F90FB000BD000000B591B02F20019040
:1022300040F24E3002901820039040F2F7100490C4
:1022400002200590FF20069000200790089009903A
:102250000A904FF480600B9005200C9040F2436090
:102260000E90C01E0F904FF4F070109015480D9016
:1022700001A9154800F0C9F90220059011480D90F8
:102280004FF4C0600B9007200C9001A90E488030DD
:1022900000F0BBF9012000F043FA01210A4800F0E8
:1022A000A9F901210848803000F0A4F9012000F0CC
:1022B00037FA064800F016F8012000F0C3F811B014
:1022C00000BD0000000000D084680140F80200203A
:1022D000024A1080024A118070470000300000203E
:1022E0003200002001490860704700002C000020E7
:1022F00030B90749074A11600021074A116005E01B
:102300000349044A11600121034A1160704700002B
:10231000000000D03400002038000020014908806F
:10232000704700003000002010B5044608480068DF
:1023300020B92146074800F05BF904E02146054832
:10234000803000F055F9012000F0EAF910BD0000DE
:1023500038000020846801401CB50121802000F075
:102360004FFA4FF48050009001208DF804000220B5
:102370008DF8050000208DF8070069460448FEF737
:102380003BFB012211030248FEF7A9FB1CBD000024
:10239000001C02401CB50121802000F031FA4FF4EE
:1023A0000060009001208DF8040002208DF80500E7
:1023B00000208DF8070069460448FEF71DFB012246
:1023C000D1020248FEF78BFB1CBD0000001C02403E
:1023D00010B54FF400610248FEF77DFB10BD000010
:1023E000001C02401CB50121802000F009FA4FF4C6
:1023F0008060009001208DF8040002208DF8050017
:1024000000208DF8070069460448FEF7F5FA01221E
:1024100091020248FEF763FB1CBD0000001C024055
:1024200030B10749096841F00101054A116005E032
:102430000349096821F00101014A11607047000059
:102440001868014030B10749096841F48031054AF4
:10245000116005E00349096821F48031014A1160E7
:102460007047000018680140F0B5002100220023E9
:102470000024002500265B4F3F68DFF86CC107EAA7
:102480000C07DFF860C1CCF80070078A3904674692
:102490003F68D0F814C04CEA010C47EA0C07DFF89B
:1024A00044C1CCF800700CF104073F68DFF838C174
:1024B00007EA0C07DFF82CC10CF1040CCCF8007013
:1024C000078B3A0467463F68D0F81CC04CEA020C00
:1024D00047EA0C07DFF80CC10CF1040CCCF80070D3
:1024E0000CF104073F68DFF800C107EA0C07DFF8CA
:1024F000F4C00CF1080CCCF80070078C3B04674664
:102500003F68D0F824C04CEA030C47EA0C07DFF818
:10251000D4C00CF1080CCCF800700CF104073F6833
:10252000DFF8C4C007EA0C07DFF8B8C00CF10C0CE8
:10253000CCF80070078D3C046746D7F800C0C76A26
:1025400027434CEA070C274F0C37C7F800C03F1D44
:102550003F68DFF898C007EA0C07DFF888C00CF185
:10256000100CCCF80070D0E9007C47EA0C07D0F8DA
:1025700008C047EA0C07D0F80CC047EA0C07DFF8A0
:1025800064C00CF1100CDCF800C047EA0C07DFF85F
:1025900054C00CF1100CCCF80070476B3D02078E54
:1025A0003E04104F24373F6807F07F47DFF834C000
:1025B0000CF1240CCCF8007046EA0507D0F838C0BE
:1025C00047EA0C07DFF81CC00CF1240CDCF800C053
:1025D00047EA0C07DFF80CC00CF1240CCCF80070B3
:1025E000F0BD00000868014000F800F08F88FE0F81
:1025F0004161704721B1026842F00102026003E0CC
:10260000026822F00102026070472DE9F0410024C7
:1026100000250026002200270023B1F804C04FEA5D
:102620000C44D0F804C00CF4704CC0F804C0D1F8CD
:1026300000C04CEA040CC0F804C0B1F80CC04FEA6A
:102640000C45D0F808C00CF4704CC0F808C0D1F8A4
:1026500008C04CEA050CC0F808C0D0F810C02CF037
:10266000070CC0F810C0D1F810C0C0F810C0D1F8E5
:102670001CC04FEA0C26B1F820C04FEA0C4291F87A
:1026800024C04FEA0C67D0F818C09C46C0F818C0A8
:10269000D1F818C04CEA060C4CEA020C4CEA070CC4
:1026A000C0F818C0D0F814C02CF0FF0CC0F814C04B
:1026B000D1F814C0C0F814C0D0F81CC040F207789C
:1026C0002CEA080CC0F81CC0D1E90AC84CEA080C76
:1026D000C0F81CC0D0F828C09C46C0F828C0D1F86B
:1026E00030C0C0F828C0B1F838C04FEA0C43D0F869
:1026F0002CC00CF0E02CC0F82CC0D1F834C04CEA4F
:10270000030CC0F82CC0D0F830C06FF30A0CC0F82E
:1027100030C0D1F83CC0C0F830C0BDE8F081000046
:1027200001490860704700002468014000BFFEE7CF
:102730007047000070B5002100230F22C4781CB33D
:10274000174C246804F4E064C4F5E064C4F3072182
:10275000C1F10404E3B20A4144789C40E1B28478B8
:10276000144021430C07210E0E4C05786155047866
:1027700004F01F050124AC4005786D11AD0005F192
:10278000E025C5F8004109E0047804F01F050124A4
:10279000AC40054D0678761145F8264070BD000026
:1027A0000CED00E000E400E080E100E002490143BC
:1027B000024A1160704700000000FA050CED00E0CD
:1027C00030B5002807DBB0F5487F04DC002902DBC8
:1027D000B1F5F07F00DD30BD00224FF4487303FBFC
:1027E0000103054C2468022505FB0342034B1B88AB
:1027F000138000BFEFE7000034000020300000200D
:1028000029B1064A12680243044B1A6004E0034AE5
:1028100012688243014B1A60704700003038024052
:1028200029B1064A12680243044B1A6004E0034AC5
:1028300012688243014B1A60704700001038024052
:1028400029B1064A12680243044B1A6004E0034AA5
:1028500012688243014B1A6070470000383802400A
:1028600029B1064A12680243044B1A6004E0034A85
:1028700012688243014B1A607047000040380240E2
:1028800029B1064A12680243044B1A6004E0034A65
:1028900012688243014B1A607047000044380240BE
:1028A000F0B5002100220024022500260223324F29
:1028B0003F6807F00C0121B1042905D0082937D160
:1028C00005E02E4F076036E02D4F076033E02A4FBA
:1028D0003F1F3F68C7F38056274F3F1F3F6807F0F1
:1028E0003F036EB1264FB7FBF3F7DFF88CC0ACF1B6
:1028F000040CDCF800C0CCF3881C07FB0CF40CE0E3
:102900001E4FB7FBF3F7DFF870C0ACF1040CDCF836
:1029100000C0CCF3881C07FB0CF4174F3F1F3F6827
:10292000C7F301477F1C7D00B4FBF5F7076002E0A9
:10293000124F076000BF00BF0F4F3F6807F0F00164
:102940000909104F7A5C0768D74047600A4F3F6813
:1029500007F4E051890A0B4F7A5C4768D7408760DB
:10296000054F3F6807F46041490B064F7A5C4768A2
:10297000D740C760F0BD0000083802400024F400D2
:1029800040787D011400002010B50146002200238C
:1029900000204A11012A02D10A4C236808E0022AC9
:1029A00003D1084C7034236802E0064C7434236869
:1029B00001F01F02012494401C400CB1012000E0F2
:1029C000002010BD0038024001460020034A106874
:1029D00020F4403008431060704700008C380240FB
:1029E00001490867704700000000474210B58301A5
:1029F00043EA016343EA0273014C236010BD000007
:102A00008838024030B501460020C1F3C442C1F30A
:102A10008523C1F3C404D50205EB43152544A8B2B0
:102A200030BD00000149086070470000382C0140AB
:102A300001460020034A12680A400AB1012000E062
:102A400000207047342C014010B500F093FA10BDFF
:102A500029B1064A12680243044B1A6004E0034A93
:102A600012688243014B1A60704700003C2C014001
:102A700000B593B000F02EF801210846FFF7E0FE04
:102A80000220019007200290042003900720049068
:102A900002200590069007900120089000200990E0
:102AA00004200A9010200B9040200C9080000D9084
:102AB00000200E904FF400600F9040001090002016
:102AC000119001A8129008A8FDF7E8FE00F0D4F9D3
:102AD00013B000BD1CB50121FC20FFF791FE0220C0
:102AE0008DF804008DF8050000208DF806008DF8A3
:102AF0000700012000906946D948FDF77DFF0C22B0
:102B00000021D748FDF7C0FF022000906946D44855
:102B1000FDF772FF0C220121D148FDF7B5FF04201B
:102B200000906946CE48FDF767FF0C220221CC4891
:102B3000FDF7AAFF082000906946C948FDF75CFF31
:102B40000C220321C648FDF79FFF10200090694624
:102B5000C348FDF751FF0C220421C148FDF794FF43
:102B6000202000906946BE48FDF746FF0C22052153
:102B7000BB48FDF789FF4FF4805000906946B84884
:102B8000FDF73AFF0C221146B548FDF77DFF4FF4E3
:102B9000005000906946B248FDF72EFF0C220D212F
:102BA000AF48FDF771FF4FF4804000906946AC4894
:102BB000FDF722FF0C220E21A948FDF765FF4FF417
:102BC000004000906946A648FDF716FF0C220F2131
:102BD000A348FDF759FF012000906946A148FDF781
:102BE0000BFF0C2200219F48FDF74EFF02200090B2
:102BF00069469C48FDF700FF0C2201219948FDF72A
:102C000043FF1020009069469648FDF7F5FE0C2220
:102C100004219448FDF738FF202000906946914830
:102C2000FDF7EAFE0C2205218E48FDF72DFF4FF43B
:102C30008040009069468C48FDF7DEFE0C220E2194
:102C40008948FDF721FF4FF400400090694686480F
:102C5000FDF7D2FE0C220F218348FDF715FF01205E
:102C6000009069468048FDF7C7FE0C2200217E488F
:102C7000FDF70AFF0220009069467B48FDF7BCFE85
:102C80000C2201217848FDF7FFFE80200090694664
:102C90007648FDF7B1FE0C2207217448FDF7F4FEDB
:102CA0004FF48070009069467048FDF7A5FE0C2235
:102CB00008216E48FDF7E8FE4FF400700090694669
:102CC0006A48FDF799FE0C2209216848FDF7DCFEF1
:102CD0004FF48060009069466448FDF78DFE0C2239
:102CE0000A216248FDF7D0FE4FF40060009069466B
:102CF0005E48FDF781FE0C220B215C48FDF7C4FE07
:102D00004FF48050009069465848FDF775FE0C223C
:102D100011465648FDF7B8FE4FF400500090694642
:102D20005248FDF769FE0C220D215048FDF7ACFE1C
:102D30004FF48040009069464C48FDF75DFE0C2240
:102D40000E214A48FDF7A0FE4FF40040009069466E
:102D50004648FDF751FE0C220F214448FDF794FE32
:102D60004FF48070009069463F48FDF745FE0C2205
:102D700008213D48FDF788FE4FF400700090694639
:102D80003948FDF739FE0C2209213748FDF77CFE52
:102D90004FF48060009069463348FDF72DFE0C2209
:102DA0000A213148FDF770FE402000906946304806
:102DB000FDF722FE0C2206212D48FDF765FE0120BD
:102DC000009069462B48FDF717FE0C220021294888
:102DD000FDF75AFE4FF40060009069462048FDF769
:102DE0000BFE0C220B211E48FDF74EFE4FF4004057
:102DF000009069461B48FDF7FFFD0C220F21194882
:102E0000FDF742FE4FF48070009069461548FDF7CB
:102E1000F3FD0C2208211348FDF736FE80200090B8
:102E200069461348FDF7E8FD0C2207211048FDF71D
:102E30002BFE0220009069460C48FDF7DDFD0C22B8
:102E400001210A48FDF720FE01200090694607484D
:102E5000FDF7D2FD0C2200210448FDF715FE1CBD34
:102E60000014024000180240000C02400010024012
:102E7000001C0240000802401FB500240120009001
:102E80000820019000200290039000BF2021012023
:102E9000FDF7D0FC0028F9D16846FDF7EFFC0A20C9
:102EA00000F042F8022000900820019000200290DB
:102EB000039000BF20210120FDF7BCFC0028F9D1C0
:102EC0006846FDF7DBFC03200090082001900220FB
:102ED00002900020039000BF20210120FDF7AAFCF2
:102EE0000028F9D16846FDF7C9FC40F222240420ED
:102EF00000900820019001200290039400BF20213F
:102F00000120FDF797FC0028F9D16846FDF7B6FCD3
:102F100040F26A50FDF764FD00BF20210120FDF75B
:102F200089FC0028F9D11FBD01B581B000200090B7
:102F3000054901984843009002E00098401E009027
:102F400000980028F9D10CBDA086010010B50748F3
:102F5000006800F0C05040B10120054908604FF002
:102F6000C25102485830FDF767FB10BD00640240B3
:102F7000D802002010B54FF48070FFF759FD50B112
:102F80000020254908704FF48070FFF74BFD0120A9
:102F90002249086037E00220FFF74AFD30B10220E5
:102FA000FFF740FD02201C4908702CE00820FFF7C5
:102FB0003FFD30B10820FFF735FD042016490870A9
:102FC00021E02020FFF734FD30B12020FFF72AFD5B
:102FD00006201149087016E01020FFF729FD30B1D6
:102FE0001020FFF71FFD05200B4908700BE04FF480
:102FF0000070FFF71DFD30B14FF40070FFF712FDB8
:1030000007200549087000214CF23A30FFF720FDF7
:103010000148007810BD0000D0020020D40200203A
:1030200021B1028842F04002028004E002884FF69B
:10303000BF731A400280704710B50022028802F464
:1030400041520B884C8823438C882343CC882343EC
:103050000C8923434C8923438C892343CC89234304
:103060001A430280838B4FF2FF74234083830B8AC1
:10307000038210BD30B500228B071C0F0F2303FA0B
:1030800004F20B4B8C1053F824309343084C8D10F2
:1030900044F8253023468C1053F824308C07240F35
:1030A00000FA04F42343024C8D1044F8253030BD5F
:1030B000083801400CB5002001900090414800689C
:1030C00040F480303F49086000BF3E48006800F48B
:1030D000003000900198401C0190009818B90198A8
:1030E000B0F5A04FF1D13748006800F4003010B1BE
:1030F0000120009001E0002000900098012860D19C
:1031000030484030006840F080502E49403108601F
:103110002D48006840F440402B4908602948083099
:1031200000682849083108600846006840F40040FB
:1031300008600846006840F4A05008602348091F52
:103140000860081F006840F08070091F086000BF19
:103150001C48006800F000700028F9D01A48006888
:1031600040F480301849086000BF1748406800F4F8
:1031700080300028F9D01448006840F4003012492B
:10318000086000BF1048406800F400300028F9D003
:1031900040F205700E4908600A480830006820F0C7
:1031A00003000849083108600846006840F0020042
:1031B000086000BF03480830006800F00C000828D1
:1031C000F8D10CBD0038024000700040195A400789
:1031D000003C024010B500BF502080F31188BFF3BF
:1031E0004F8FBFF36F8F00BF06F0B8F918B14FF0E3
:1031F00080500449086000BF002080F3118800BFA0
:1032000010BD000004ED00E010B51548006840F462
:103210007000134908601348006840F0010011492C
:10322000086000200F49083108600E4800680E4908
:1032300008400C4908600D48091D0860081F006817
:1032400020F48020091F0860002006490C31086026
:10325000FFF730FF4FF0006001498039086010BD72
:1032600088ED00E000380240FFFFF6FE1030002439
:1032700000B587B001210846FFF7C2FA01211020EE
:10328000FFF7FEFA00208DF81A0002208DF81800D2
:1032900001208DF81B0003208DF819004FF40070F9
:1032A000059005A91A48FDF7A7FB4FF4806005902B
:1032B00005A91748FDF7A0FB072209211448FDF7CF
:1032C000E3FB07220A211248FDF7DEFB4FF4E13051
:1032D00001900020ADF80A00ADF80800ADF80C0030
:1032E000ADF810000C20ADF80E0001A9094800F05F
:1032F00003F900F053F80121064800F094F8012288
:1033000040F22551034800F0D1F807B000BD00009D
:10331000000002400010014010B540F2255118484D
:1033200000F09AF858B300F04DF816490A68096899
:10333000491C144B1960144941F8220040F22551F0
:103340000F4800F061F80F4800681049096888428A
:1033500015D100200B4908600C4801680A4800F0AC
:103360003FF8002407E0084850F82420214608A030
:1033700004F004FA641C054800688442F3DB10BDC5
:103380000010014028000020A80300202400002095
:103390002025642D2D2563200A00000008B54FF478
:1033A0004070FFF703FA25208DF8000000208DF80B
:1033B00001008DF8020001208DF803006846FFF738
:1033C000B9F908BD10B500BF2021044800F037F856
:1033D0000028F9D0014800F0F9F810BD00100140B4
:1033E0002DE9F04105460E462F46002405E017F86A
:1033F0002410044800F0EFF8641CB442F7DBBDE889
:10340000F08100000010014010B50022002340F6BA
:103410006A14A14200D100BF0A1201249440A3B251
:10342000DC43048010BD21B1828942F400528281C4
:1034300004E082894DF6FF731A408281704702468C
:103440000020B1F5007F00D100BF13880B400BB105
:10345000012000E00020704770B5024600240023E0
:103460000025002040F66A16B14200D100BFC1F32A
:10347000421501F01F03012606FA03F3012D02D1C4
:103480009689334006E0022D02D1168A334001E0CE
:10349000968A33400C12012606FA04F4168834404A
:1034A00013B10CB1012000E0002070BDF0B503465F
:1034B000002400260025002040F66A17B94200D1FA
:1034C00000BF1846C1F3421401F01F06012707FA96
:1034D00006F5012C01D10C3004E0022C01D1103092
:1034E00000E014301AB107682F43076002E0076854
:1034F000AF430760F0BD00002DE9FF4705460E46CB
:103500000024A14600BFA046B08900B100BF2C8AAC
:1035100024F44054F08804432C82AC8941F20C60BE
:103520008443B08831890843718908430443AC81DE
:10353000AC8A24F44074B0890443AC826846FFF737
:10354000AFF92048854202D01F48854202D1DDF8FC
:103550000C9001E0DDF80890A88900F4004040B12B
:1035600009EBC90000EB091031684900B0FBF1F725
:1035700007E009EBC90000EB091031688900B0FBD6
:10358000F1F76420B7FBF0F004012009642101FB8E
:103590001078A88900F4004040B1322000EBC80048
:1035A000B0FBF1F000F00700044308E0322000EB2C
:1035B00008106421B0FBF1F000F00F0004432C81EF
:1035C000BDE8FF87001001400014014001468888D3
:1035D000C0F30800704770B504460D4629462046E2
:1035E00000F008F800BF80212046FFF728FF0028E0
:1035F000F9D070BDC1F308028280704700BFFEE7BA
:103600002DE9FF4117461E4604F052FB002869D100
:1036100001A96846FDF7E8FCBDF80000B0F5487F59
:103620002CDABDF80400B0F5F07FF9DA3078012823
:1036300025D146480068002820D0142004F08AF8DC
:1036400004461421FCF77AFE254601202872BDF8B5
:103650000000E860BDF8040028613C48006828606C
:103660000020686000230A2229463948006805F0D6
:1036700099FD012802D1284604F063F863E0BDF803
:103680000420BDF80010384603F085FB8046012079
:103690003070B8F1000F24D02C48C0F800801420FE
:1036A00004F058F804461421FCF748FE2546012092
:1036B0002872BDF80000E860BDF8040028612348C6
:1036C000006828600020686000230A2229462048FC
:1036D000006805F067FD012802D1284604F031F8A2
:1036E00000BF30E004F0E4FA68B3307801282AD152
:1036F0000020307001A96846FDF776FC142004F024
:1037000029F804461421FCF719FE254602202872E8
:10371000BDF80000E860BDF8040028610B480068AF
:1037200028600020686000231A462946084800687F
:1037300005F038FD012802D1284604F002F80020E7
:103740000249086000BFBDE8FF810000EC020020D4
:10375000E80200202DE9F05F06468B4690461F46A2
:10376000DDF8289022A004F009F8B8F1010F03D089
:10377000B8F1020F37D10EE01FFA89F2B9B2304624
:1037800003F049FA18B1304603F09AFB02E03046E4
:1037900003F0F9FB28E0304603F0F5FB1FFA89F24D
:1037A000B9B2304603F037FAE0B1142003F0D2FF8B
:1037B00004461421FCF7C2FD254608202872304635
:1037C00002F0A5FFE8600020286100BF306A286091
:1037D0006E6000BFB069824652462946304603F00B
:1037E00082F900BF00E000BF00BFBDE8F09F00000D
:1037F0006974656D57496E0A000000002DE9F05F9D
:103800000646884691461F46DDF828A0B9F1010F0B
:1038100003D0B9F1020F3BD10EE01FFA8AF2B9B220
:10382000304603F0F8F918B1304603F049FB02E0E6
:10383000304603F0A8FB2CE0304603F0A4FB1FFA4F
:103840008AF2B9B2304603F0E6F900B3142003F06F
:1038500081FF04461421FCF771FD254606202872DD
:1038600000BF70690078E86000BF70694078286127
:1038700000BF306A2860C5F80480304603F0C8F9FC
:1038800083465A462946304603F02DF900BF00E032
:1038900000BF00BFBDE8F09F2DE9F04F85B007469F
:1038A0008A4615469B46DDF83890012D04D0022D3E
:1038B00003D0042D2FD101E031E030E01AA003F055
:1038C0005DFF402003F046FF0446384602F0E7FD66
:1038D000804601201649096816A2CDE90128CDE9E4
:1038E000031096204FF4F0737822A0210090204618
:1038F00003F064FD04462646304603F0E7FB154915
:10390000304602F0B8FF3068C1683046884730461C
:1039100003F0A2F903E010A003F030FF00BF00BFE6
:1039200005B0BDE8F08F0000636C6F73650A00009E
:10393000E8020020436C69636B204F4B20746F20BA
:10394000636C6F7365207468652077696E646F7748
:103950002E000000E5390008756E646566696E69C1
:1039600074696F6E206D73670A0000002DE9F843DB
:103970000646884614461D46089F062C0DD1202079
:1039800000906B463A462946304602F03FFC9DF8CF
:103990000010304602F0C8FC00BF00BF00BFBDE809
:1039A000F88300002DE9F0410446884615461E467E
:1039B000069F012D04D0022D03D00A2D0CD106E064
:1039C0000BE021460648006802F0CDFC05E0F1B2AC
:1039D000204601F03DFA00BF00BF00BFBDE8F08106
:1039E000F00200202DE9F0410446884615461E46A7
:1039F000069F18A003F0C2FE042D02D00B2D24D187
:103A00000AE019A003F0BAFE204603F047FC206844
:103A100041692046884719E030786F280AD119A0FB
:103A200003F0ACFE204603F039FC206841692046D3
:103A3000884709E00CA003F0A1FE204603F02EFC0D
:103A4000206841692046884700E000BF00BFBDE80C
:103A5000F08100006469616C6F672D2D77696E706D
:103A6000726F6320330A00000A2063616E63656C25
:103A700020636C6F73652077696E646F7721200A0D
:103A8000000000000A2077696E646F772077696C08
:103A90006C20626520636C6F73656421200A0000EE
:103AA0002DE9F0478246894617461E46DDF82080FC
:103AB000012F02D0022F19D10EE01FFA88F2B1B205
:103AC000504603F0A8F818B1504603F0F9F902E0A7
:103AD000504603F058FA27E0504603F054FA1FFA14
:103AE00088F2B1B2504603F096F81DE0504603F05C
:103AF0004FF9C0B1142003F02DFE04461421FCF749
:103B00001DFC25462F72EE60C5F81080504603F06C
:103B10003FF92860C5F804900548294602685046D8
:103B200002F0E1FF00BF00BF00BFBDE8F08700006A
:103B3000E80200202DE9F0478246894617461E46D6
:103B4000DDF82080012F04D0022F11D0082F23D1BF
:103B50001CE01FFA88F2B1B2504603F05CF818B1CD
:103B6000504600F06DFD02E0504600F0B0FE31E03E
:103B7000504600F0ACFE1FFA88F2B1B2504603F096
:103B80004AF810B1504600F036FE23E03446214694
:103B900012A003F0F3FD1DE0504603F0F9F8C0B1A8
:103BA000142003F0D7FD04461421FCF7C7FB25467B
:103BB0002F72EE60C5F81080504603F0E9F82860D7
:103BC000C5F80490074829460268504602F08BFF6A
:103BD00000BF00BF00BFBDE8F08700002D2D25739A
:103BE0000A000000E80200202DE9F041074688465F
:103BF00014461D46069E072C04D1294603A003F057
:103C0000BDFD00E000BF00BFBDE8F08172616469E6
:103C10006F62746E3E3E3E3E3E3E3E3E25730A005F
:103C20002DE9F0470646894614461D46089F012C9B
:103C300002D0022C1BD116E0BAB2A9B2304601F074
:103C4000D7FB304601F01EFC804641460AA003F037
:103C500095FD304601F016FC804641460D4800684F
:103C600001F01DFE04E0304601F0ABFB00E000BFB8
:103C700000BFBDE8F0870000736C696465722D2D8C
:103C80002D2D2D2D2D2D2D2D3E3E3E3E3E25640A03
:103C900000000000F40200202DE9F05F05460F4609
:103CA00090469946DDF828A0B8F1020F2AD11FFAF4
:103CB0008AF21FFA89F1284602F0ADFF08B300BF6F
:103CC000286A8346294601F080F9142003F042FD5A
:103CD00004461421FCF732FB26460720307200BF51
:103CE0006869F0600020306100BF286A306077604A
:103CF00000BFA86983465A463146284602F0F3FEC3
:103D000000BF00E000BF00BFBDE8F09F2DE9F04715
:103D10000446884615469946089F022D0BD1204639
:103D200003F083FB00BF94F844000646314604A02C
:103D300003F024FD00BF00BF00BFBDE8F087000016
:103D4000636865636B3E3E3E3E3E3E3E3E3E3E25E4
:103D5000640000002DE9F0410646884614461D46E1
:103D6000069F012C02D0022C0AD105E0BAB2A9B2FA
:103D7000304601F048FC04E0304601F039FC00E038
:103D800000BF00BFBDE8F0812DE9F05F06468A461E
:103D900091461F46DDF82880B9F1010F03D0B9F133
:103DA000020F35D10EE01FFA88F2B9B2304602F0A8
:103DB00032FF18B1304603F083F802E0304603F0DA
:103DC000E2F845E0304603F0DEF81FFA88F2B9B2B7
:103DD000304602F020FFD0B1142003F0BBFC0446B3
:103DE0001421FCF7ABFA254604202872EF60C5F8D1
:103DF000108000BF306A28606E60304602F008FF15
:103E000083465A462946304602F06DFE00BF1FE049
:103E100000BF306AD8B1142003F09CFC0446142182
:103E2000FCF78CFA254685F80890EF60C5F81080FD
:103E300000BF306A2860C5F804A0304602F0E8FEF2
:103E400083465A462946304602F04DFE00BF00BF69
:103E500000BFBDE8F09F2DE9F05F05468B46904618
:103E60001F46DDF82890B8F1010F03D0B8F1020F1A
:103E700037D10EE01FFA89F2B9B2284602F0CBFE24
:103E800018B1284603F01CF802E0284603F07BF83E
:103E900028E0284603F077F81FFA89F2B9B22846DD
:103EA00002F0B9FEE0B1142003F054FC04461421E2
:103EB000FCF744FA26460B20307200BF6869F060B8
:103EC00000BFA88B306100BF286A3060756000BFFA
:103ED000A869824652463146284602F004FE00BFD9
:103EE00000E000BF00BFBDE8F09F00002DE9F047F3
:103EF00081460F4616469846DDF820A0012E02D0D6
:103F0000022E02D100E01EE01DE0484602F040FF14
:103F1000C0B1142003F01EFC04461421FCF70EFA75
:103F200025462E72C5F80C80C5F810A0484602F050
:103F30002FFF28606F60054829460268484602F056
:103F4000D2FD00BF00BF00BFBDE8F087E80200203F
:103F5000AAB0FE4AD2E900109268CDE91E021D9176
:103F6000FA4A0C32D2E900109268CDE91B021A918C
:103F7000402003F0EFFB29900120F5490968002259
:103F8000F4A3CDE90132CDE903104FF4F0704FF402
:103F9000487311460090299802F06CFB2990199003
:103FA000402003F0D7FB01212990E9480268EBA3E8
:103FB0001998CDE90130CDE903214FF4F0704FF4A9
:103FC0004873002211460090299802F053FB299073
:103FD000189018980068C068079007991898884743
:103FE000E349189802F047FC189802F058FA179025
:103FF000602003F0AFFB2890D5480268DDA31E21A6
:104000001798CDE90013CDE90202B42332221146FC
:10401000289800F0F5FD289016900021169800F0E1
:104020001FFA4FF4FC61169800F018FAD34916985D
:1040300002F021FC03221DA9169800F061FC1698DD
:104040000068C0680790079916988847442003F0D5
:1040500081FB2790BE480168C9A264231798CDE967
:104060000032CDE90201B42364223221279802F004
:10407000F7FF279015900021159800F0F1F947F609
:10408000FF71159800F0EAF915980068C06807906C
:10409000079915988847BC49159802F0ECFB542005
:1040A00003F058FB2690AA48026800236E21179857
:1040B000CDE90013CDE90202B423DC223221269897
:1040C00001F07AF826901490002303221AA914987C
:1040D00000F0A4FF14980068C0680790079914982E
:1040E0008847AA49149802F0C6FB482003F032FB27
:1040F0000021259096480268A5A31798CDE90130C4
:10410000CDE903211E20B4234FF4AF723221009079
:10411000259803F0E5FA2590139013980068C0687D
:1041200007900799139888479B49139802F0A3FBBF
:10413000482003F00FFB002125908548026897A3D3
:104140001798CDE90130CDE903211E20B4234FF4A7
:10415000C87232210090259803F0C2FA259012907F
:1041600012980068C06807900799129888478A4992
:10417000129802F080FB502003F0ECFA249074486F
:10418000016800221E231798CDE90032CDE9020113
:104190004FF4BE7332224FF48C71249801F034FB3B
:1041A00024901190119801F042FA11980068C068AB
:1041B00007900799119888477A49119802F05BFB9C
:1041C000502003F0C7FA0021239061480268179835
:1041D000CDE901104FF4C8701E23CDE903210090F2
:1041E0001A4640F2EE21239801F098F9239010909E
:1041F00010980068C06807900799109888476A4926
:10420000109802F038FB482003F0A4FA229050489E
:10421000026800231E211798CDE90013CDE90202A0
:104220004FF496736E224FF48C71229801F076FB56
:1042300022900F900F980068C068079007990F9818
:1042400088475A490F980860502003F083FA21905C
:104250003F4801680022C8231798CDE90032CDE914
:1042600002015B00F4220021219802F0CBF821909A
:104270000E9000210E9800F0F3F84D48FEF7C2FBB7
:10428000014607900E9800F0E9F80E9801F03AFC0C
:1042900048490E9802F0EFFA47490E9808605020FE
:1042A00003F058FA20902A48016800225A231798F0
:1042B000CDE90032CDE902014FF4C873A022FA2102
:1042C000209800F0FDFD20900D9000210D9800F049
:1042D000C7F84FF6E0710D9800F0C0F837490D9817
:1042E00002F0C9FA0D980068C068079007990D9808
:1042F0008847189802F0B0FC00200990142004F0C0
:10430000E7F9089089E009AB189ADDE90B10FFF78F
:1043100077F900231A460E480899006804F014FE45
:1043200007900798012877D1089800680A9000BF85
:104330000A9890F82D0038B1089800690090089804
:10434000C068069008983BE04BE00000E09A000847
:10435000E8020020524F4F542100000049542049E8
:104360005320544553542057494E2031210000001A
:10437000993800086C69737442617200353B00081B
:10438000627574746F6E0000A13A0008E93B000882
:10439000636865636B3100000D3D00086368656309
:1043A0006B320000553D0008213C0008F40200205B
:1043B000CFCFCF006D390008F0020020A5390008EA
:1043C000007A059008984068049008980068039067
:1043D0000A9840680290DDE9024004A90EC9A0478E
:1043E0001AE00E490A9802F046FA0898006900900F
:1043F0000898C06806900898007A05900898406868
:1044000004900898006803900A9840680290DDE9DB
:10441000024004A90EC9A04700BF74E7ED3E0008A2
:104420001CB50020012103464FF4FA62CDE90010CB
:1044300003A1054805F04CF804F024FC1CBD000065
:1044400077696E3000000000513F000870477047E8
:104450000146886B70470146486B7047816370471F
:104460004163704770472DE9FF4F81B005469A467A
:104470000F9E002E4ED04FF0000800240CE0601C70
:10448000C4B200BF288ABDF80C1001FB140000283C
:1044900002DC601EC4B202E0305D0028EFD100BF34
:1044A00000BF698900BF6A8ABDF80E30D01A00EBE0
:1044B000D07201EB62011FFA81FB284602F008FB73
:1044C0000146288ABDF80C2002FB1400009000EB86
:1044D000D07001EB60001FFA80F902A8FDF702FF1F
:1044E0000E9A91B21FFA8AF0FDF7F2FE0FE016F86D
:1044F00008703A4649465846FDF742FABDF80C00A6
:1045000048441FFA80F908F1010000F0FF08A045B7
:10451000EDDB00BF05B0BDE8F08FD1E90F23C0E9A6
:10452000002370472DE9FF5F04460D4616461F46DF
:10453000DDE910ABDDE90E893B46324629462046CF
:104540008DE8000F02F062FC04460748206000205E
:1045500060634FF2DE70A063044903C9C4E90F0130
:10456000204604B0BDE8F09FB8C50008F80200205E
:1045700070B50446204600F004F8054603F0E1F863
:1045800070BD10B50446204602F093FC0446204658
:1045900010BD10B50446E06C03F0D3F804F14400FC
:1045A00000F0EFFC204602F0A2F810BD0146B1F881
:1045B0004A0070472DE9F84F0746384602F060F987
:1045C000401C4FF6FF7101EA400900BF788A401C89
:1045D0001FFA80FA384602F07BFA8346384602F02A
:1045E0007AFA00EBC00101EB00100BEB4010460023
:1045F0004FF4C86000904FF0000812E0002408E07B
:10460000254670190949085C7119094A5054601C03
:1046100084B24C45F4DB0098064408F101001FFA0F
:1046200080F8D045EADBBDE8F88F000000B80BD079
:10463000000000D010B50446204602F0A9F910BDD4
:104640002DE9F04F87B0054600BF95F82C000028F3
:104650007DD1284602F0CEFA4FF6FF710846FDF7ED
:1046600037FE2846FFF7A2FF0446284602F008F965
:104670000646284602F02FFA0746284602F028FA96
:104680008046234632463946FDF7B0FA2846FFF702
:10469000E2FE84B22846FFF7DEFE86B221463046AF
:1046A000FDF716FE2846FFF781FF0446284602F074
:1046B000E7F80646284602F00EFA0746284602F0BA
:1046C00007FA8046234632463946FDF737FB28462F
:1046D00002F01DF800283AD000270024294605A83A
:1046E000FFF71BFF16E0601CC4B2284602F0C8F8B2
:1046F0008246294601A8FFF710FFDDE90101CDE957
:104700000301BDF8100000FB14A0002802DC601EAD
:10471000C4B205E0284601F0FAFF005D0028E2D1AE
:1047200000BF284602F0D7F982462846FFF73EFF31
:10473000834629466846FFF7F0FEDDE90001CDE932
:104740000301BDF81200ABEB0000029000E049E06D
:1047500000EBD0700AEB60001FFA80F9284602F0E7
:10476000B7F98246284602F08BF883462946684608
:10477000FFF7D3FEDDE90001CDE90301BDF810002C
:1047800000FB14B0029000EBD0700AEB60001FFA3F
:1047900080F805A8FDF7A6FD2846FFF75CFE1FFA86
:1047A00080FA4FF6FF715046FDF792FD17E028465C
:1047B00001F0ADFFC65D324641464846FDF7E0F8E0
:1047C000294601A8FFF7A9FEDDE90101CDE90301B2
:1047D000BDF8100040441FFA80F8781CC7B2A74209
:1047E000E5DB00BF07B0BDE8F08F10B504462046FA
:1047F00002F0A8F910BD2DE9F041044604F144008F
:1048000000F0C8FB002860D000BF94F854000028D6
:1048100031D104F1440000F0BAFB064600250AE05D
:1048200004F1440000F0B6FB50F825703868C16808
:10483000384688476D1CB542F2DB204601F0EFFF99
:104840002046FFF7B3FE711C484387B23946204625
:1048500002F00FF8204600F093F900BF94F82F0003
:1048600010B1204602F00FF8204600F03DF8204637
:1048700002F0F2F929E004F1440000F088FB074659
:1048800000250AE004F1440000F084FB50F82560A4
:1048900030680169304688476D1CBD42F2DB204616
:1048A000FFF788FE00BF94F82F0010B1204601F0FA
:1048B00031FF2046FFF77AFE06463146204601F0DA
:1048C000D8FF204600F010F800BFBDE8F08110B519
:1048D000044600BF94F82C0028B1204602F0BCF931
:1048E000204602F087F910BD00BF90F8541019B1AE
:1048F000002180F8541002E0012180F85410704724
:104900002DE9F04F87B0044689461746C4F84C900D
:1049100004F14400878000BF00F02BFB2046FFF726
:1049200045FE0646204601F0ABFF464304F1440035
:1049300000F02DFB46437000E06504F1440000F0F8
:1049400026FB069000253CE0442002F003FF0646CB
:10495000A06982462046FFF729FE0590204601F017
:104960008FFF04902046FFF721FE691C48431FFA81
:1049700080FB59F825000599CDE9024ACDE90010E0
:104980005A4600213046049B02F06AFB0646B046B8
:104990000F49404601F06FFF2046FFF75CFD82465D
:1049A000C8F834A000BF0B48FEF72CF88246C8F8C0
:1049B00038A000BF04F1440000F0ECFA40F8258074
:1049C0006D1C06988542BFDB07B0BDE8F08F000084
:1049D00055370008E0E0E0002DE9F04F87B00546CC
:1049E00000BF288F84B2288F86B221463046FDF75B
:1049F0006FFC2846FFF7DAFD0446284601F040FF29
:104A00000646284602F067F80746284602F060F896
:104A10008046234632463946FDF7E8F82846FFF738
:104A20001AFD84B22846FFF716FD86B221463046AD
:104A3000FDF74EFC2846FFF7B9FD0446284601F075
:104A40001FFF0646284602F046F80746284602F0B1
:104A50003FF88046234632463946FDF76FF928462F
:104A600001F055FE00287DD000270024294605A826
:104A7000FFF753FD16E0601CC4B2284601F000FFAA
:104A80008246294601A8FFF748FDDDE90101CDE98D
:104A90000301BDF8100000FB14A0002802DC601E1A
:104AA000C4B205E0284601F032FE005D0028E2D1E4
:104AB00000BF284602F00FF882462846FFF776FD31
:104AC000834629466846FFF728FDDDE90001CDE968
:104AD0000301BDF81200ABEB0000029000EBD070B8
:104AE0000AEB60001FFA80F9284601F0F1FF8246C8
:104AF000284601F0C5FE834629466846FFF70DFDAE
:104B0000DDE90001CDE90301BDF8100000FB14B0A0
:104B1000029000EBD0700AEB60001FFA80F805A845
:104B2000FDF7E0FB00BF288F1FFA80FA2846FFF749
:104B300092FC1FFA80FB51465846FDF7C9FB19E06D
:104B4000284601F0E4FDC65D324641464846FCF782
:104B500017FF294601A8FFF7E0FCDDE90101CDE9D7
:104B6000030100E009E0BDF8100040441FFA80F89E
:104B7000781CC7B2A742E3DB00BF07B0BDE8F08FE7
:104B80002DE9F84F0746384601F07AFE401C4FF6F3
:104B9000FF7101EA400900BF788A401C1FFA80FAC1
:104BA000384601F095FF8346384601F094FF00EB4C
:104BB000C00101EB00100BEB401046004FF4C86041
:104BC00000904FF0000812E0002408E0254670191C
:104BD0000949085C7119094A5054601C84B24C455B
:104BE000F4DB0098064408F101001FFA80F8D04574
:104BF000EADBBDE8F88F0000000000D000B80BD061
:104C00002DE9FF5F04460E46174698460EAD95E81F
:104C1000200E43463A46314620468DE8200EFFF7E7
:104C200081FC044604F1440000F0B7F9A0F144040B
:104C300008482060A4F84A50002084F85400E0643A
:104C40002146012081F82F0000BF204604B0BDE8B6
:104C5000F09F0000D8C5000870B50446204600F05B
:104C600004F8054602F06DFD70BD10B5044604F170
:104C7000440000F096F9A0F144042046FFF781FCBF
:104C80000446204610BD10B5044694F84A0000289A
:104C90000BDD4434A079401EA0710020A279216868
:104CA000443C8854204601F0D7FF10BD10B504469F
:104CB000606C02F046FD204601F019FD10BD7FB585
:104CC000044621466846FFF728FCDDE90001CDE9EE
:104CD0000201BDF80E00B4F84E104518204601F050
:104CE000FAFE618A0844854213DC204601F0F0FE9A
:104CF000A4F84C0021466846FFF70FFCDDE90001EF
:104D0000CDE90201BDF80E00B4F84E100844A4F835
:104D10004E007FBDF0B587B004460D46214605A87C
:104D2000FFF7FBFB05A8FDF7DDFA00BF208F86B279
:104D3000A08E87B231463846FDF7CAFAB4F84C1057
:104D4000B4F84E002A46FCF71BFE214601A8FFF7E7
:104D5000E4FBDDE90101CDE90301BDF81000B4F881
:104D60004C100844A4F84C00204601F0B1FE218A02
:104D70000844B4F84C10884226DC204601F0A8FE16
:104D8000A4F84C00214601A8FFF7C7FBDDE90101AB
:104D9000CDE90301BDF81200B4F84E100844A4F8A0
:104DA0004E00204601F097FE618A0844B4F84E1088
:104DB000884209DA204601F08BFEA4F84C00204618
:104DC00001F089FEA4F84E0007B0F0BD10B504460E
:104DD000204601F0DDFD10BD10B50446204601F06F
:104DE000B1FE10BD2DE9F047044600BF208F86B20A
:104DF000208F87B231463846FDF76AFA00BF608AD5
:104E00000646208A0746204601F065FE8046204679
:104E100001F05EFE814633463A464146FCF7E6FE27
:104E2000204601F055FEA4F84C00204601F053FE48
:104E3000A4F84E00002505E0606C415D2046FFF7B8
:104E400069FF6D1C94F84A00A842F5DCBDE8F087C4
:104E500070B504460D46112D19D007DCCDB1082DD3
:104E60000FD0092D11D0102D14D109E0122D0FD023
:104E7000142D0BD02E2D0DD12046FFF704FF1DE081
:104E80001CE02046FFF71BFF18E017E016E015E0D6
:104E900014E013E094F84A00B4F8481088420CDC9F
:104EA00094F84A10606C455429462046FFF732FFBB
:104EB00094F84A00401C84F84A0000BF00BF70BD4F
:104EC0002DE9FF4F89B004460F461D4616AE96E801
:104ED00040072B468DE84007394620460B9AFFF7DE
:104EE00021FB044619482060214601A8FFF715FB65
:104EF000DDE90101CDE90501BDF81A0096FBF0FBE3
:104F00000BFB05FB214603A8FFF707FBDDE90301C7
:104F1000CDE90701BDF820009BFBF0F0401E4434B2
:104F2000A080A08802F011FC20600020A071443C09
:104F3000204601F0CDFDA4F84C00204601F0CBFD49
:104F4000A4F84E0020460DB0BDE8F08FF8C500086B
:104F500070B50446204600F004F8054602F0F1FB67
:104F600070BD10B504462046FFF70BFB04462046F3
:104F700010BD10B50446A188880002F0E6FB206051
:104F800010BD10B50446206802F0DBFB10BD0146E1
:104F90008888704701460868704700210160818059
:104FA0007047704710B50446E06C02F0CAFB04F18C
:104FB0004400FFF7E6FF204601F099FB10BD10B555
:104FC0000446204601F0E4FC10BD2DE9F041044602
:104FD0000D4600BF95F8440018B1284602F025FAA6
:104FE00019E000260AE004F14400FFF7D3FF50F86F
:104FF0002680002788F8447000BF761C04F1440026
:10500000FFF7C5FFB042EEDC284602F00EFA20465C
:1050100001F022FE00BFBDE8F08100002DE9F04F55
:1050200089B004460E4690469946E66404F1440071
:10503000A0F8048000BFFFF79CFF84F85090002781
:1050400094F85000002852D0002549E0482002F092
:1050500081FB0890A0690790608A0690B4F810B0B0
:1050600004F14400FFF793FF9BFBF0F080B20122B4
:10507000059056F825100798CDE90114CDE90302F3
:105080000698B9B200900022059B089802F028FB10
:105090008346089004F14400FFF77CFF40F825B0F8
:1050A00004F14400FFF776FF50F825A0DAF800007D
:1050B000C1685046884704F14400FFF76BFF50F881
:1050C00025B03849584601F0D6FB00BFB4F810B0FF
:1050D00004F14400FFF75BFF9BFBF0F007446D1CFD
:1050E00004F14400FFF753FFA842AFDC56E004F19F
:1050F0004400FFF74CFF824604F14400FFF747FFEE
:105100000AEB4000471E002542E0482002F022FB47
:105110008246A0690890608A400090FBF7F080B258
:105120000790208A0690608A05EB4501484390FB72
:10513000F7F080B20122059056F825100898CDE9C5
:105140000114CDE903020798009000215046DDE9E3
:10515000052302F0C5FA824604F14400FFF71AFF66
:1051600040F825A004F14400FFF714FF50F825B0E3
:10517000DBF80000C1685846884704F14400FFF797
:1051800009FF50F825000749089001F074FB6D1CD9
:1051900004F14400FFF7FBFEA842B6DC09B0BDE80D
:1051A000F08F0000993C000810B50446204601F03D
:1051B000C9FC10BD704700002DE9FF5F04460D4695
:1051C00016461F46DDE910ABDDE90E893B46324647
:1051D000294620468DE8000FFFF7A4F9044604F1A4
:1051E0004400FFF7DAFEA0F14404044820600120E7
:1051F00084F85000204604B0BDE8F09F18C60008AF
:1052000070B50446204600F004F8054602F099FA0D
:1052100070BD10B5044604F14400FFF7C2FEA0F1D2
:1052200044042046FFF7ADF90446204610BD10B5F2
:105230000446204601F05BFA10BD2DE9F05F0446FC
:105240008946924694F84C0080B3B4F84E70B4F896
:105250004E0000EBD071A9EB61018DB2204601F048
:105260003AFC0646204601F04FFA8046204601F0FF
:105270002FFCA84204DD204601F02AFC054648E048
:10528000204601F025FC8346204601F0F9FA5844F7
:10529000C01BA8423DDA204601F01AFC8346204696
:1052A00001F0EEFA5844C01B85B232E0FFE7204619
:1052B00001F00EFC0546B4F84E0000EBD071AAEBED
:1052C00061018EB2204601F0DBFA0746B4F84E8049
:1052D000204601F000FCB04204DD204601F0FBFB5B
:1052E000064616E0204601F0F6FB8346204601F014
:1052F0000BFA5844A0EB0800B0420ADA204601F04D
:10530000EAFB8346204601F0FFF95844A0EB080071
:1053100086B243463A4631462846FCF767FCBDE86C
:10532000F09F10B50446204601F032FB10BD2DE978
:10533000F041044694F84C0000B3204601F0A0FA76
:10534000B4F84E10401A05B2204601F0C1FBA16C22
:10535000C0EB1140B4F84E7007EBD771A0EB6100C1
:1053600006B2002E00DA0026AE4200DD2E46642092
:10537000704390FBF5F084F8440020E0204601F0F3
:10538000C3F9B4F84E10401A05B2204601F0A3FB51
:10539000B4F84810081AB4F84E7007EBD771A0EBB8
:1053A000610006B2002E00DA0026AE4200DD2E4675
:1053B0006420704390FBF5F084F8440000BFBDE822
:1053C000F08170B504462046FFF745F885B22046C7
:1053D000FFF741F886B229463046FCF779FFB4F86A
:1053E000480082B2A06C010C2046FFF726FF70BD7A
:1053F0002DE9F05F04460D461646A06CB5EB104F44
:1054000035D0B4F8480080B2B04230D02F463804CE
:10541000A064A06C3044A0641648FDF7F3FA8046FF
:105420001448FDF7EFFA81464146FCF751FF20464C
:1054300001F06AF98046204601F022FA81462046B2
:1054400001F049FB8246204601F042FB8346434679
:105450004A465146FCF7CAFB4FF6FF710846FCF777
:1054600037FF324629462046FFF7E7FE00BFBDE87A
:10547000F09F0000E0E0E00010B50446204601F097
:1054800061FB10BD10B504462046FFF750FF94F8AD
:10549000440010BD2DE9F04104461F48FDF7B2FA63
:1054A00005461D48FDF7AEFA06462946FCF710FFF3
:1054B000204601F029F90546204601F0E1F90646AB
:1054C000204601F008FB0746204601F001FB80461C
:1054D0002B4632463946FCF789FB2046FEF7BBFFD8
:1054E00085B22046FEF7B7FF86B229463046FCF764
:1054F000EFFEB4F8480082B2A06C010C2046FFF722
:105500009CFEB4F8480082B2A06C010C2046FFF764
:105510006FFFBDE8F0810000E0E0E0002DE9FF4F03
:1055200085B004460E4612AF97E88007169D8DE8B9
:10553000800731462046DDE90723FEF7F3FF0446E6
:105540001748206084F84C50204601F0C1FA0490BE
:1055500004980004A064204601F0BDFAA16C084440
:10556000A0645DB1204601F0CFF800EB400B0BEBDF
:10557000DB70C0F34F00A4F84E000AE0204601F0B3
:105580007FF900EB400B0BEBDB70C0F34F00A4F88E
:105590004E00002084F84400204609B0BDE8F08F9A
:1055A00038C6000870B50446204600F004F80546E9
:1055B00002F0C7F870BD10B504462046FEF7E1FFC3
:1055C0000446204610BD10B50446E06C10B1E06CF6
:1055D00002F0B7F804F14400FFF7D3FC204601F0D5
:1055E00086F810BD10B50446204601F0D1F910BD73
:1055F00070B5044604F14400FFF7CCFC056828466A
:10560000FFF7DFFE70BD2DE9F04104460D4616465A
:1056100004F14400FFF7BEFC3246294607683846CD
:10562000FFF7E6FE204600F095F8BDE8F0812DE991
:10563000F04F8DB0044604F144000221818000BF88
:10564000FFF797FC502002F085F80546A069074651
:10565000206A804660698146608A8246B4F810B04C
:10566000214609A8FEF759FFDDE90901CDE90B0143
:10567000BDF8300000EB8000ABEB000080B208907A
:10568000E0890790A08906900120CDE900A9CDE925
:1056900002870490284606A90EC9FFF73FFF05467A
:1056A00004F14400FFF776FC0560442002F052F854
:1056B0000646A0690746608A8046214607A8FEF78D
:1056C0002CFFDDE90701CDE90B01BDF8300000EB4F
:1056D00080001FFA80F9B4F810B0214605A8FEF743
:1056E0001CFFDDE90501CDE90901BDF8280000EB4B
:1056F0008000ABEB00001FFA80FA00204B46024608
:105700005146CDE90080CDE90247304600F07AF9F4
:10571000064604F14400FFF73DFC4660052002F018
:1057200014F8E0640DB0BDE8F08F10B504462046D3
:1057300001F008FA10BD70B5044604F14400FFF70B
:1057400029FC05682868816828468847204600F0BB
:1057500001F870BD2DE9FF47044604F14400FFF74E
:1057600019FCD0F800804046FFF78CFE0A2190FB20
:10577000F1F201FB120504F14400FFF70BFCD0F835
:1057800000804046FFF77EFE0A2190FBF1F090FB7F
:10579000F1F201FB120604F14400FFF7FBFBD0F825
:1057A00000804046FFF76EFE642190FBF1F707F1A1
:1057B0003000E16C087006F13000E16C487005F1D2
:1057C0003000E16C88702520E16CC8700020E16C2D
:1057D000087100BFA06B8046606B8146214602A81D
:1057E000FEF79BFE04F14400FFF7D4FBD0F804A0C1
:1057F000E06C4B46CDE900805046DDE90212FEF731
:1058000032FEBDE8FF8700002DE9FF5F04460D462C
:1058100016461F46DDE910ABDDE90E893B463246F0
:10582000294620468DE8000FFEF77CFE044604F171
:105830004400FFF7B2FBA0F1440403482060204677
:1058400004B0BDE8F09F000058C6000870B50446DB
:10585000204600F004F8054601F073FF70BD10B556
:10586000044604F14400FFF79CFBA0F144042046E9
:10587000FEF787FE0446204610BD10B504462046BC
:1058800000F035FF10BD10B50446204601F080F849
:1058900010BD10B50446204601F054F910BD70B596
:1058A00004460D4684F8465000BF208A68436421B0
:1058B00090FBF1F0A4F84400204601F0CDF970BD52
:1058C0002DE9F04104461448FDF79CF80546FCF725
:1058D00025FD00BF608A0546208A06466089074686
:1058E000208980462B4632463946FCF77FF9B4F8CA
:1058F000440078B11F20FCF711FD00BF608A054607
:105900006089064620890746B4F844202B46314674
:10591000FCF76CF9BDE8F081E0E0E0002DE9FF5F05
:1059200004460D4616461F46DDE910ABDDE90E893B
:105930003B463246294620468DE8000FFEF7F2FD31
:105940000446054820600020A4F8440084F846007E
:10595000204604B0BDE8F09F78C6000870B5044644
:10596000204600F004F8054601F0EBFE70BD10B5CE
:1059700004462046FEF705FE0446204610BD10B53D
:105980000446204600F0B3FE10BD10B50446204684
:1059900000F0FEFF10BD10B50446204601F0D2F81D
:1059A00010BD2DE9FF41044600BF208F85B2208F36
:1059B00086B229463046FCF78BFC00BF608A05465C
:1059C000208A064660890746208980462B46324653
:1059D0003946FCF70BF900BF60690646A06B074625
:1059E000606B054602A8D4E90F12C0E9001200BF9F
:1059F0002B46CDE900762046DDE90212FEF733FDA5
:105A0000BDE8FF812DE9FF5F04460D4616461F469F
:105A1000DDE910ABDDE90E893B46324629462046DA
:105A20008DE8000FFEF77EFD044603482060204607
:105A300004B0BDE8F09F000098C6000870B50446A9
:105A4000204600F004F8054601F07BFE70BD10B55D
:105A500004462046FEF795FD0446204610BD10B5CD
:105A6000044604F14400FFF78CFA204600F03FFEA4
:105A700010BD00002DE9F05F0546284600F000FF4C
:105A8000401C4FF6FF7101EA400900BF688A401CC4
:105A90001FFA80FA00BF288900BF698901EBC102A3
:105AA00002EB011100EB411047004FF4C86B4FF0BF
:105AB000000811E0002408E02646B8190849085CEF
:105AC000B919084A5054601C84B24C45F4DB5F4459
:105AD00008F101001FFA80F8D045EBDBBDE8F09F2C
