:020000040800F2
:10000000000900207D02000831230008BD1200080D
:100010002D23000807050008BD310008000000007E
:10002000000000000000000000000000C501000802
:100030006D0600080000000019020008952D000858
:100040009B0200089B0200089B0200089B0200081C
:100050009B0200089B0200089B0200089B0200080C
:100060009B0200089B0200089B0200089B020008FC
:100070009B0200089B0200089B0200089B020008EC
:100080009B0200089B0200089B0200089B020008DC
:100090009B0200089B0200089B0200089B020008CC
:1000A0009B0200089B0200089B0200089B020008BC
:1000B0009B0200089B0200089B0200089B020008AC
:1000C0009B0200089B0200089B0200089B0200089C
:1000D0009B020008D92E00089B0200089B02000822
:1000E000810600089B0200089B0200089B02000892
:1000F0009B0200089B0200089B0200089B0200086C
:100100009B020008092600089B0200089B020008C9
:100110009B0200089B0200089B0200089B0200084B
:100120009B0200089B0200089B02000831060008A1
:100130009B0200089B0200089B0200089B0200082B
:100140009B0200089B0200089B0200089B0200081B
:100150009B0200089B0200089B0200089B0200080B
:100160009B0200089B0200089B0200089B020008FB
:100170009B0200089B0200089B0200089B020008EB
:100180009B0200089B0200089B0200089B020008DB
:100190009B0200089B0200089B0200089B020008CB
:1001A0009B0200089B0200089B020008DFF810D0A9
:1001B00000F04EF900F0CEF8004800477D900008AE
:1001C000000900202A4B19680868B0E8F04F80F356
:1001D0000988BFF36F8F4FF0000080F311887047DC
:1001E0000000000006480068006880F3088862B6D6
:1001F00061B6BFF34F8FBFF36F8F00DF00BF00BF4B
:1002000008ED00E0DFF80C00016841F470010160C6
:10021000704700BF88ED00E0EFF30980BFF36F8FF8
:10022000134B1A681EF0100F08BF20ED108A20E94A
:10023000F04F106008B44FF0500080F31188BFF306
:100240004F8FBFF36F8F09F04FFF4FF0000080F327
:10025000118808BC19680868B0E8F04F1EF0100F4C
:1002600008BFB0EC108A80F30988BFF36F8F704726
:100270001C030020EFF3058070470000074880470B
:100280000748804707480047FEE7FEE7FEE7FEE72E
:10029000FEE7FEE7FEE7FEE7FEE7FEE7C92D000802
:1002A00031260008AD0100082DE9F05F0546002069
:1002B00092469B4688460646814640241BE02846D7
:1002C00041464746224600F066F853465A46C01A51
:1002D000914110D311461846224600F04DF82D1AD0
:1002E00067EB01084F4622460120002100F044F848
:1002F00017EB00094E41201EA4F10104DFDC484643
:1003000031462A464346BDE8F09F40EA01039B0779
:1003100003D009E008C9121F08C0042AFAD203E07A
:1003200011F8013B00F8013B521EF9D27047D2B2DE
:1003300001E000F8012B491EFBD270470022F6E7CE
:1003400010B513460A4604461946FFF7F0FF20464B
:1003500010BD000070B5054C054D03E02068204439
:100360008047241DAC42F9D170BD0000D8DF0008E1
:10037000DCDF000800F036B8202A04DB203A00FA5F
:1003800002F1002070479140C2F1200320FA03F3EC
:10039000194390407047202A04DB203A21FA02F0EA
:1003A0000021704721FA02F3D040C2F120029140AF
:1003B0000843194670470000004870479403002026
:1003C0007047000009207047092070477047704748
:1003D00009207047024801464860001D7047000030
:1003E0009803002010B500F00EF8016919B1002241
:1003F0000261884701E080688047AFF30080000019
:1004000010B5AFF3008070B5FFF7E4FF0468054650
:10041000A4B9202008F044FE040011D009490020AE
:100420002C60C4E900010849A1602073206160616B
:100430000649A06109B100F01DF8E061204670BDD9
:10044000AFF300800000000001040008000000007D
:10045000064C074D06E0E06840F0010394E8070011
:1004600098471034AC42F6D3FFF7A4FE98DF00089B
:10047000D8DF000810B5882008F012FE002801D04F
:100480000021017010BD802902D808B1017809B19E
:1004900000207047012100F8081B704718B100F1D7
:1004A0000802914201D0002070470021017070477E
:1004B00070B58C1810F8015B15F0070301D110F826
:1004C000013B2A1106D110F8012B03E010F8016B53
:1004D00001F8016B5B1EF9D12B0705D40023521ED6
:1004E0000DD401F8013BFAE710F8013BCB1A921C3E
:1004F00003E013F8015B01F8015B521EF9D5A1423C
:10050000D8D3002070BD00BFFEE710B50121C8059B
:1005100001F066FF00214FF4000001F061FF10BD03
:1005200001460020034A52680A400AB1012000E057
:100530000020704700B0024070B500210022002367
:100540000024344D2D68344E3540324E35603546EA
:100550002D68066835432F4E356035466D6B25F0A6
:100560000705756335466D6B46683543294E7563DF
:10057000456835B9C5682902058A2A04057D2B0618
:1005800021E04568012D05D1C5682902058A2A04A4
:10059000002318E04568022D05D1C5686901056989
:1005A000EA0200230FE04568032D06D1C568690102
:1005B0000569AA024569EB0305E0C56829010569DB
:1005C0002A0245692B0341EA0205866835431D432B
:1005D000104EB66B35430F4EB5638569F5633546EE
:1005E0002D6C6FF30D05356435462D6CC6693543AA
:1005F000084E3564858C2C0435466D6C05F04045FD
:10060000756435466D6C066A26433543014E756444
:1006100070BD000000B00240FCE0FCFF0348006831
:1006200040F00100014908607047000000B002403E
:1006300010B502F06BFA10BD0246094B9A4201D286
:10064000084801E00648103801F000531BB1064B82
:100650000B40C36002E0044B0B4083607047000016
:1006600010640240006002407D0F7D0F704701B5AD
:1006700002E00098401E009000980028F9D108BDC3
:1006800010B54FF4005000F011F838B101F0A0FCA3
:1006900000F068FC4FF4005000F002F810BD0000BC
:1006A0000149086070470000143C014001460020E9
:1006B000034A12680A400AB1012000E00020704796
:1006C000143C0140002123498279002A3AD00A468D
:1006D000126803689A430B461A600A1D1268036881
:1006E0009A430B1D1A60027911440A6803681A4381
:1006F0000A60184A0832126803689A43154B083397
:100700001A601A1D126803689A43124B0C331A6060
:100710004279102A0ED11A1F126803681A430D4B32
:1007200008331A601A1D126803681A43094B0C3308
:100730001A600DE00749427911440A6803681A43B8
:100740000A6005E0027911440A6803689A430A6066
:1007500070470000003C014000B587B00121202017
:1007600001F02EFE0121080501F06AFE0522072195
:100770002E4800F089F9052208212C4800F084F960
:1007800005220921294800F07FF9802000900220ED
:100790008DF805008DF8040000208DF806008DF816
:1007A00007006946214800F027F94FF48070009057
:1007B00069461E4800F020F94FF400700090694629
:1007C0001A4800F019F94020009001208DF804002B
:1007D0006946164800F010F9402014491831088085
:1007E0000020ADF808004FF48270ADF80A00002038
:1007F000ADF80C000220ADF80E000120ADF810009D
:100800004002ADF812000020ADF81400ADF816005B
:100810000720ADF8180002A9054802F0EDF9012102
:10082000034802F0DDF907B000BD000000140240EB
:100830000050014010B5024600200023102A03D1C9
:100840004FF02044636E0FE0B2F5807F02D10A4C76
:10085000236809E0B2F5805F03D1074C2034236898
:1008600002E0054CD434236803EA01048C4201D031
:10087000002000E0012010BD840000A00021D0E98C
:1008800000231A4383685B1E42EA4312C36842EAAC
:100890004321014A11607047500100A070B5002249
:1008A0000021002300240568AD00A5F1C045D5F85E
:1008B00040216FF30E02D0E901563543C668354337
:1008C000066935434669354386693543C66935430C
:1008D000066A3543466A35432A43056835B90568D3
:1008E000AD00A5F1C045C5F8402111E03B4D2B6896
:1008F0006FF30E03D0E907563543466A35432B4361
:10090000364D2B600568AD00A5F1C045C5F8402106
:10091000056875BB314D0835066855F8261001F09D
:100920007041856A2D686D1E866A7668761E45EA76
:100930000616856AAD686D1E46EA0526856AED686D
:100940006D1E46EA0536856A2D8A6D1E46EA054605
:10095000856AAD8A6D1E46EA0556856A2D7E6D1E36
:1009600046EA056529431D4D0835066845F82610F9
:1009700032E0FFE7194D0835066855F8261001F0FA
:100980007041856A2D686D1E866A7668761E45EA16
:100990000616856AAD686D1E46EA0526856A2D8AAB
:1009A0006D1E46EA054529430C4D08352C6804F0B8
:1009B0007044856AED686D1E2E03856AAD8A6D1ED2
:1009C00046EA05552C434FF02045C5F84841034DF4
:1009D0000835066845F8261070BD0000400100A0EB
:1009E0000449096841EA40014FF02042C2F854111D
:1009F00070470000540100A0F0B50A460021002312
:100A0000002400BF3DE0012505FA01F3156805EA61
:100A100003049C4234D105684F000326BE40B54311
:100A2000056015794E00B5400668354305601579B7
:100A3000012D02D01579022D16D185684F000326AD
:100A4000BE40B543856055794E00B5408668354354
:100A50008560456801268E40B543456045689679B6
:100A60008E40B6B235434560C5684F000326BE4090
:100A7000B543C560D5794E00B540C6683543C560FD
:100A8000491C1029BFD3F0BDF0B5002300244D0749
:100A9000ED0E02FA05F3CE1000F1200555F82650B0
:100AA0004E07F70E0F26BE40B543CF1000F12006CB
:100AB00046F82750CE1000F1200555F8265045EA9B
:100AC0000304CE1000F1200545F82640F0BD418317
:100AD00070470183704742694A40426170470AB1DA
:100AE000018300E0418370472DE9FC410020009024
:100AF000019000244FF448754FF4F07600278020D1
:100B00008DF8000048208DF8010006226946BA20C1
:100B100000F04EF80446002C02DA0020BDE8FC810B
:100B20009DF802009DF8031000EB012085B29DF8AE
:100B300004009DF8051000EB012086B280208DF89E
:100B400000004D208DF8010003226946BA2000F014
:100B50002FF80446002C01DA0020DFE79DF80200A0
:100B600000F003073B463246294602A007F0E6FFA5
:100B70000120D3E73C3C2D4754502D494E464F2D84
:100B80003E3E20585F4D4158203D2025642C205981
:100B90005F4D4158203D2025642C20545249474741
:100BA0004552203D203078253032780A0000000080
:100BB0002DE9F04186B005460C4616464FF0FF374A
:100BC0004FF0000800BF00BF0020ADF802008DF814
:100BD00000500220ADF8040002940121ADF80E107F
:100BE0008DF80C50B01E81B2ADF81010A01C05900D
:100BF00009E00221684600F0EDFD0746022F00D112
:100C000004E008F10108B8F1050FF2DB00BFB8F10C
:100C1000050F08DB6078237840EA0321B21E3B46CB
:100C2000034807F08BFF384606B0BDE8F0810000AE
:100C3000D0DD000838B50E480068009000256C1E15
:100C400000BF00BF0DE003226946BA20FFF7B0FFE6
:100C500044B2002C01DD204638BD294605A007F02E
:100C60006DFF2846691CCDB20528ECDB2046F3E772
:100C7000A8AF00083C3C2D4754502D4552524F52CE
:100C80002D3E3E20475450206932632074657374B2
:100C9000206661696C65642074696D652025642E29
:100CA0000A0000002DE9FE4380460C4615464FF031
:100CB000FF36002700BF00BF0020ADF802008DF80E
:100CC0000080A8B2ADF80400029408E00121684653
:100CD00000F080FD0646012E00D102E07F1C052FAA
:100CE000F4DB00BF052F08DB6078237840EA03219E
:100CF000AA1E3346024807F021FF3046BDE8FE83B6
:100D000020DE00082DE9F0474FF0FF3500264FF0B8
:100D100000094FF0000AB82400BF00BF00F050FDEA
:100D2000FFF788FF0546002D05DA28A007F006FF2B
:100D30002846BDE8F08700F069F82F48007818B918
:100D40002E4F4FF0BA0802E02D4F4FF0BA08F021B5
:100D50002C48FFF7F3FA424639462A48FFF7D5FAFE
:100D60004FF00009022606E02648801E805D4844B8
:100D700000F0FF09761CA01C8642F5DB6FEA090033
:100D8000401CC1B21F4A921EA01C11540121E01C3C
:100D900011544FF0000A0BE0221D1A49891EBA2097
:100DA000FFF780FF0546002D00DD04E00AF1010A8F
:100DB000BAF1050FF0DB00BF1348FFF758FC00F055
:100DC00007FBFFF791FE0020B3E700003C3C2D47F6
:100DD00054502D4552524F522D3E3E204932432011
:100DE000636F6D6D756E69636174696F6E204552D6
:100DF000524F52210A000000A20200203C000020B5
:100E0000F6000020B2010020FFFF0F0010B586B0F1
:100E10004FF0FF342E4903C9CDE9040100BF00BFE4
:100E2000082204A9BA20FFF7C3FE0446002C05DA05
:100E300028A007F083FE204606B010BD9DF81500DF
:100E4000F0B99DF816009DF81710CDE900109DF837
:100E500014309DF813209DF8121029A007F06EFEA3
:100E60009DF81200392830D19DF8130031282CD17B
:100E70009DF81400312828D101202D49087024E064
:100E80009DF816009DF817109DF81520CDE900215A
:100E900002909DF814309DF813209DF8121025A0A3
:100EA00007F04CFE9DF8120039280ED19DF8130072
:100EB00031280AD19DF81400352806D19DF8150077
:100EC000372802D100201A4908702046B4E70000F4
:100ED00090AF00083C3C2D4754502D4552524F5284
:100EE0002D3E3E2047545020726561642076657225
:100EF00073696F6E206661696C65640A00000000AA
:100F00003C3C2D4754502D494E464F2D3E3E2049E6
:100F100043312056657273696F6E3A2025632563ED
:100F200025635F25303278253032780A00000000D2
:100F3000A20200203C3C2D4754502D494E464F2DD7
:100F40003E3E204943322056657273696F6E3A20E7
:100F500025632563256325635F253032782530328C
:100F6000780A000010B500BF00BF00F0AFF810BD58
:100F70002DE9F04104460D4616461F46B3B2AAB20B
:100F8000DFF82CC03CF814C01FFA8CF1DFF824C045
:100F90003CF814C01FFA8CF000F07AF828B205492A
:100FA00021F8140030B2024921F81400BDE8F081A4
:100FB000AE020020A402002010B50446084A32F90F
:100FC0001410084A32F9140000F07AF84FF0FF309C
:100FD000044921F81400024921F8140010BD000052
:100FE000AE020020A40200202DE9F04F8BB006468F
:100FF0000F4614469846149D4FF00009CA46CB464A
:101000000020009005F478404FEAD02A05F01F0038
:10101000009005F4FC604FEA501B4FF4487000FB51
:1010200007601449022202FB0019FFF76EFA4FF421
:101030004030019002200290CDF810B0009803904B
:10104000CDF814A00F200690CDF81C90C4F5487080
:101050000890CDF824800A9401A8FFF76DFAFFF7F5
:10106000DDFA00BF0220FFF75BFA0028FAD00BB0D0
:10107000BDE8F08F000000D0034A12880280034AC6
:1010800012880A8070470000E2020020E40200207B
:1010900030B5064C2080064C2180064C2280064C40
:1010A00023800024054D2C7030BD0000DE0200209E
:1010B000E0020020E2020020E4020020E60200201C
:1010C0000122014B1A707047E60200202DE9F04F13
:1010D00099B05FA00068189028210EA8FFF72EF99C
:1010E0005C4800680D900025A8464FF0BA0B00261A
:1010F00000200C900B900A90814600244FF0FF3A9C
:1011000000BF00BF0C220DA95846FFF751FD8246D3
:10111000BAF1000F06DA51464FA007F00FFD19B0E3
:10112000BDE8F08F9DF83680B8F1000F00D1F6E7EA
:1011300008F0800000B97CE008F00F05052D00DD07
:1011400077E0012D17DD242101A8FFF7F7F84148CA
:10115000001D00680090681EC000821C6946584649
:10116000FFF726FD8246681EC2000DF1020110A89D
:10117000FFF7CBF800BF44480088A84221DD0024D7
:101180001BE0002715E0032000EBC7000DA946185F
:10119000307800F00F093D48005D484500D10AE075
:1011A000681EB84203DC3949085DFFF705FF781C6B
:1011B000C7B2AF42E7DB00BF641C334800888442FB
:1011C000DFDB2DB3002420E0032000EBC4000DA9D9
:1011D0004618307800F00F092C4800F80490707819
:1011E000B17840EA01200C90F078317940EA012092
:1011F0000B907079B17940EA01200A904846DDE908
:101200000A320C99FFF7B4FE641CAC42DCDB0DE043
:101210001D48008850B1002404E01C49085DFFF718
:10122000CBFE641C184800888442F6DB1648058013
:1012300000BF032218A95846FFF734FD8246BAF1D1
:10124000000F02DA12A007F079FC00BF67E7000088
:10125000814E000034AF00083C3C2D4754502D45D2
:1012600052524F522D3E3E20493243207472616EDD
:1012700073666572206572726F722E206572726E6F
:101280006F3A25640A200A00B8020020BA02002042
:101290003C3C2D4754502D494E464F2D3E3E204953
:1012A000324320777269746520656E645F636D6494
:1012B000206572726F72210A0000000000BFFEE715
:1012C00021B1028842F48062028004E002884FF675
:1012D000FF331A400280704770B502460024002593
:1012E00000230020958A138B1B0445EA030626F091
:1012F0007F4404EA01068E4201D1012000E0002073
:1013000070BD21B1028842F00102028004E002882F
:101310004FF6FE731A400280704700001CB5012191
:10132000880501F07DF80121882001F049F80121AC
:10133000880301F085F8042211462348FFF7A4FB37
:10134000042205212048FFF79FFB10200090022077
:101350008DF804008DF8050001208DF806000020AE
:101360008DF8070069461848FFF746FB20200090DB
:1013700069461548FFF740FB4FF4006000900120DC
:101380008DF8040002208DF8050000208DF806007D
:1013900002208DF8070069460C48FFF72DFB4FF43B
:1013A0000050009001208DF8040002208DF8050007
:1013B00000208DF8060002208DF8070069460348DA
:1013C000FFF71AFB1CBD0000001C0240000C02408D
:1013D00000B585B04FF40050009000208DF8040057
:1013E00002208DF8050000208DF807006946154899
:1013F000FFF702FB0D21032001F01CFC4FF400500D
:10140000039000208DF8100008208DF811000120B5
:101410008DF8120003A8FFF755F94FF4407000F063
:10142000C5FF28208DF8080000208DF809008DF8F0
:101430000A0001208DF80B0002A800F07BFF05B028
:1014400000BD0000000C024021B1028842F480720D
:10145000028004E002884FF6FF631A400280704762
:1014600021B1028842F40072028004E002884FF643
:10147000FF531A40028070470CB50246002000233B
:101480000193009300920B0F019321F07F41019B88
:101490001BB1009B1433009303E0090C009B18332D
:1014A0000093009B1B680B400BB1012000E0002063
:1014B0000CBD00002DE9FF4704460D460026B1464D
:1014C0000427DFF8CC80A6884FF6C0700640684637
:1014D00000F0C6FFDDF808802E48B8FBF0F01FFAD8
:1014E00080F946EA0906A68020884FF6FE7108407A
:1014F000208000262849286888420CD828684000A7
:10150000B8FBF0F087B2042F00DA04273E4309F15C
:101510000100208427E0E8884BF6FF71884206D15D
:10152000286800EB4000B8FBF0F087B209E02868BB
:1015300000EBC00101EB0010B8FBF0F087B247F4FC
:101540008047C7F30B0008B947F0010747F4004094
:1015500006434FF4967009FB00F04FF47A7190FB4C
:10156000F1F0401C2084A683208840F001002080F8
:1015700026884FF6F5300640A88869890843064357
:101580002680A889298908432081BDE8FF870000BB
:1015900000127A0040420F00A08601001FB5002013
:1015A000ADF804004BF6FF70ADF806000A20ADF868
:1015B00008004FF48060ADF80A000001ADF80C009F
:1015C0000748009069460748FFF774FF0121054866
:1015D000FFF797FE01210348FFF772FE1FBD0000D1
:1015E000801A06000058004070B506460D461446A5
:1015F0004FF420403B49086009E03A490868411E21
:10160000384A116018B9002000F0BAF870BD4FF4E4
:1016100000313548FFF730FF0028EED10121324874
:10162000FFF712FF4FF480502E49086009E02D4962
:101630000868411E2B4A116018B9012000F0A0F87B
:10164000E4E72A492848FFF747FE0028EFD00122A7
:101650003146254800F08AF84FF48050214908604F
:1016600009E020490868411E1E4A116018B902208D
:1016700000F086F8CAE71D49491C1B48FFF72CFEFD
:101680000028EED026E0012C07D100211648FFF7F4
:1016900017FE01211448FFF7E3FE4FF420401149E3
:1016A000086009E00F490868411E0E4A116018B928
:1016B000032000F065F8A9E70C493F310A48FFF71D
:1016C0000BFE0028EED0084800F012F828706D1CC0
:1016D000601E84B2002CD6D101210348FFF7F0FD33
:1016E000002093E7C00200200058004001000300E2
:1016F0000146088AC0B270471CB54FF400500090F4
:1017000001208DF8040002208DF8050000208DF8DE
:10171000060002208DF8070069461248FFF76CF9B1
:101720004FF400610F48FFF7D2F90F48FEF79FFF13
:101730004FF400610B48FFF7CCF90B48FEF797FF19
:101740004FF40050009000208DF8040002208DF826
:10175000050000208DF8070069460248FFF74CF9A4
:101760001CBD0000000C0240FFFF0F0012B141F051
:10177000010101E001F0FE01018270470182704722
:1017800010B50446214602A007F0D8F9FF2010BD8D
:101790003C3C2D4754502D4552524F522D3E3E2039
:1017A00049324320B5C8B4FDB3ACCAB121657272E9
:1017B0006F72436F6465203D2025640A00000000BD
:1017C00010B5FFF7ABFDFFF7E9FEFFF795FFFFF759
:1017D000FFFD10BD2DE9F04105460F46002400260F
:1017E00000BF00BF00BF2BE004EB440005EB80000E
:1017F000807800F0010088B104EB440305EB83031B
:101800009A8804EB440305EB8303996804EB4403D3
:1018100015F82300FFF7E8FE064610E004EB44034A
:1018200005EB83031A7904EB440305EB8303996802
:1018300004EB440315F8230000F00CF80646641C82
:101840000EB9BC42D0D116B13046BDE8F081204679
:10185000FBE7000070B505460C4616464FF42040E5
:101860003649086009E035490868411E334A11606D
:1018700018B90420FFF784FF70BD4FF400313048E1
:10188000FFF7FAFD0028EED101212D48FFF7DCFD1E
:101890004FF480502949086009E028490868411E32
:1018A000264A116018B90520FFF76AFFE4E72549C9
:1018B0002348FFF711FD0028EFD0002229462048D9
:1018C000FFF754FF4FF480501C49086009E01B49A2
:1018D0000868411E194A116018B90620FFF750FF29
:1018E000CAE719491648FFF7F7FC0028EFD01AE0BD
:1018F00021781348FFF742FF641C4FF480500F49D2
:10190000086009E00D490868411E0C4A116018B9C9
:101910000720FFF735FFAFE70B49891C0848FFF7A1
:10192000DBFC0028EED03000A6F10101CEB2DFD101
:1019300001210348FFF794FD00209DE7C00200202D
:1019400000580040010003008200070010B500F0BD
:1019500035FA00F073FA012000F062FB002000F07D
:10196000C7FA002000F01AF8FF2000F0DDFA01208D
:1019700000F0BEFA002000F011F8FF2000F0D4FAC9
:101980004FF6FF7000F0CAFA4FF4F0734FF448724C
:101990000021084600F03CF810BD0000F0B58BB007
:1019A000044600250026002704F47840C51204F000
:1019B0001F0704F4FC604611FEF7A7FD4FF440300A
:1019C0000190022002900496039705950F2006903F
:1019D0000D4800680790002008904FF4F0700990BF
:1019E0004FF448700A9001A8FEF7A6FDFEF716FE18
:1019F00000BF0220FEF794FD0028FAD003480088BB
:101A000000F08CFA0BB0F0BD340000203000002054
:101A10002DE9F04F8BB005460E4614461F464FF099
:101A20000008C146C246C3462048008800F47840FA
:101A30004FEAE0291D48007800F01F0B1B48008882
:101A400000F4FC604FEA601A4FF4487000FB065047
:101A500017490968022202FB0018FEF756FD4FF4F1
:101A60004030019002200290CDF810A0CDF80CB0CB
:101A7000CDF814900F200690CDF81C80C4F5487066
:101A8000089009970A9401A8FEF756FDFEF7C6FDD7
:101A900000BF0220FEF744FD0028FAD0034800886A
:101AA00000F03CFA0BB0BDE8F08F000030000020E1
:101AB000340000201CB5012140F2FF1000F080FC32
:101AC0000420009002208DF805008DF8040000200D
:101AD0008DF806008DF807006946AF48FEF78CFFC9
:101AE0000E220221AC48FEF7CFFF08200090694685
:101AF000A948FEF781FF0E220321A748FEF7C4FF85
:101B00004FF4807000906946A348FEF775FF0E22DF
:101B10000821A148FEF7B8FF0120009069469F48C0
:101B2000FEF76AFF092200219C48FEF7ADFF4FF443
:101B30000060009069469A48FEF75EFF0E220B2176
:101B40009748FEF7A1FF4FF48050009069469448F3
:101B5000FEF752FF0E220C219148FEF795FF02205E
:101B6000009069468D48FEF747FF092201218B4806
:101B7000FEF78AFF4020009069468A48FEF73CFF46
:101B80000E2206218748FEF77FFF2020009069463D
:101B90008548FEF731FF0E2205218348FEF774FFCA
:101BA0004020009069468048FEF726FF0E2206215D
:101BB0007D48FEF769FF4FF4005000906946764873
:101BC000FEF71AFF0E220D217348FEF75DFF4FF45A
:101BD0008060009069467348FEF70EFF09220A21D3
:101BE0007048FEF751FF4FF40040009069466A4884
:101BF000FEF702FF0E220F216748FEF745FF012086
:101C0000009069466948FEF7F7FE0E2200216748FA
:101C1000FEF73AFF8020009069466548FEF7ECFE2B
:101C20000E2207216248FEF72FFF0420009069462C
:101C30005E48FEF7E1FE0E2202215C48FEF724FF1B
:101C40001020009069465848FEF7D6FE0E22042167
:101C50005548FEF719FF4FF48050009069465148EF
:101C6000FEF7CAFE0E220C214E48FEF70DFF402063
:101C7000009069464F48FEF7BFFE0E2206214D48F0
:101C8000FEF702FF4FF40060009069464548FEF7FA
:101C9000B3FE0E220B214348FEF7F6FE1020009003
:101CA00069464248FEF7A8FE0E2204213F48FEF78F
:101CB000EBFE0820009069463948FEF79DFE0E2293
:101CC00003213748FEF7E0FE4FF48070009069462C
:101CD0003248FEF791FE0E2208213048FEF7D4FE6E
:101CE0004FF40070009069462C48FEF785FE0E22E6
:101CF00009212A48FEF7C8FE80200090694629483D
:101D0000FEF77AFE0E2207212648FEF7BDFE4FF4AD
:101D10008060009069462548FEF76EFE0E220A217B
:101D20002248FEF7B1FE4FF40070009069461F484C
:101D3000FEF762FE0E2209211C48FEF7A5FE4FF4B5
:101D40008060009069461C48FEF756FE0E220A216C
:101D50001948FEF799FE1020009002208DF805002A
:101D600001208DF8040000208DF8060001208DF878
:101D7000070069460F48FEF73FFE80200090694645
:101D80000C48FEF739FE10210A48FEF7A2FE80211A
:101D90000848FEF79EFE1CBD001C024000040240E5
:101DA00000000240001802400010024000200240E3
:101DB00000080240000C02400014024000B58FB041
:101DC0000121880600F03CFB0121C80500F0F8FA6B
:101DD000FFF770FE00F02CFC0020009001900290B4
:101DE00003900C900D900E9005220721FA2000F030
:101DF000DDFB002000F0C8FB012000F0D1FB00BF9C
:101E00003D2000F0A1FB0028FAD0002004900590AE
:101E10002E2006901720079040F24E30089040F296
:101E2000F71009904FF459700A9040F20D200B9072
:101E3000684600F019F90FB000BD000000B591B080
:101E40002F20019040F24E3002901820039040F273
:101E5000F710049002200590FF20069000200790C4
:101E6000089009900A904FF480600B9005200C9028
:101E700040F243600E90C01E0F904FF4F07010902F
:101E800015480D9001A9154800F0BFF902200590F2
:101E900011480D904FF4C0600B9007200C9001A9E1
:101EA0000E48803000F0B1F9012000F039FA01212C
:101EB0000A4800F09FF901210848803000F09AF9A3
:101EC000012000F02DFA064800F00CF8012000F087
:101ED000B9F811B000BD0000000000D084680140D6
:101EE000F802002001490860704700002C00002023
:101EF00030B90749074A11600021074A116005E01F
:101F00000349044A11600121034A1160704700002F
:101F1000000000D034000020380000200149088073
:101F2000704700003000002010B5044608480068E3
:101F300020B92146074800F05BF904E02146054836
:101F4000803000F055F9012000F0EAF910BD0000E2
:101F500038000020846801401CB50121802000F079
:101F60002FFA4FF48050009001208DF804000220D9
:101F70008DF8050000208DF8070069460448FEF73B
:101F80003BFD012211030248FEF7A9FD1CBD000024
:101F9000001C02401CB50121802000F011FA4FF412
:101FA0000060009001208DF8040002208DF80500EB
:101FB00000208DF8070069460448FEF71DFD012248
:101FC000D1020248FEF78BFD1CBD0000001C024040
:101FD00010B54FF400610248FEF77DFD10BD000012
:101FE000001C02401CB50121802000F0E9F94FF4EB
:101FF0008060009001208DF8040002208DF805001B
:1020000000208DF8070069460448FEF7F5FC012220
:1020100091020248FEF763FD1CBD0000001C024057
:1020200030B10749096841F00101054A116005E036
:102030000349096821F00101014A1160704700005D
:102040001868014030B10749096841F48031054AF8
:10205000116005E00349096821F48031014A1160EB
:102060007047000018680140F0B5002100220023ED
:102070000024002500265B4F3F68DFF86CC107EAAB
:102080000C07DFF860C1CCF80070078A3904674696
:102090003F68D0F814C04CEA010C47EA0C07DFF89F
:1020A00044C1CCF800700CF104073F68DFF838C178
:1020B00007EA0C07DFF82CC10CF1040CCCF8007017
:1020C000078B3A0467463F68D0F81CC04CEA020C04
:1020D00047EA0C07DFF80CC10CF1040CCCF80070D7
:1020E0000CF104073F68DFF800C107EA0C07DFF8CE
:1020F000F4C00CF1080CCCF80070078C3B04674668
:102100003F68D0F824C04CEA030C47EA0C07DFF81C
:10211000D4C00CF1080CCCF800700CF104073F6837
:10212000DFF8C4C007EA0C07DFF8B8C00CF10C0CEC
:10213000CCF80070078D3C046746D7F800C0C76A2A
:1021400027434CEA070C274F0C37C7F800C03F1D48
:102150003F68DFF898C007EA0C07DFF888C00CF189
:10216000100CCCF80070D0E9007C47EA0C07D0F8DE
:1021700008C047EA0C07D0F80CC047EA0C07DFF8A4
:1021800064C00CF1100CDCF800C047EA0C07DFF863
:1021900054C00CF1100CCCF80070476B3D02078E58
:1021A0003E04104F24373F6807F07F47DFF834C004
:1021B0000CF1240CCCF8007046EA0507D0F838C0C2
:1021C00047EA0C07DFF81CC00CF1240CDCF800C057
:1021D00047EA0C07DFF80CC00CF1240CCCF80070B7
:1021E000F0BD00000868014000F800F08F88FE0F85
:1021F0004161704721B1026842F00102026003E0D0
:10220000026822F00102026070472DE9F0410024CB
:1022100000250026002200270023B1F804C04FEA61
:102220000C44D0F804C00CF4704CC0F804C0D1F8D1
:1022300000C04CEA040CC0F804C0B1F80CC04FEA6E
:102240000C45D0F808C00CF4704CC0F808C0D1F8A8
:1022500008C04CEA050CC0F808C0D0F810C02CF03B
:10226000070CC0F810C0D1F810C0C0F810C0D1F8E9
:102270001CC04FEA0C26B1F820C04FEA0C4291F87E
:1022800024C04FEA0C67D0F818C09C46C0F818C0AC
:10229000D1F818C04CEA060C4CEA020C4CEA070CC8
:1022A000C0F818C0D0F814C02CF0FF0CC0F814C04F
:1022B000D1F814C0C0F814C0D0F81CC040F20778A0
:1022C0002CEA080CC0F81CC0D1E90AC84CEA080C7A
:1022D000C0F81CC0D0F828C09C46C0F828C0D1F86F
:1022E00030C0C0F828C0B1F838C04FEA0C43D0F86D
:1022F0002CC00CF0E02CC0F82CC0D1F834C04CEA53
:10230000030CC0F82CC0D0F830C06FF30A0CC0F832
:1023100030C0D1F83CC0C0F830C0BDE8F08100004A
:1023200001490860704700002468014000BFFEE7D3
:102330007047000070B5002100230F22C4781CB341
:10234000174C246804F4E064C4F5E064C4F3072186
:10235000C1F10404E3B20A4144789C40E1B28478BC
:10236000144021430C07210E0E4C0578615504786A
:1023700004F01F050124AC4005786D11AD0005F196
:10238000E025C5F8004109E0047804F01F050124A8
:10239000AC40054D0678761145F8264070BD00002A
:1023A0000CED00E000E400E080E100E002490143C0
:1023B000024A1160704700000000FA050CED00E0D1
:1023C00029B1064A12680243044B1A6004E0034A2A
:1023D00012688243014B1A60704700003038024097
:1023E00029B1064A12680243044B1A6004E0034A0A
:1023F00012688243014B1A60704700001038024097
:1024000029B1064A12680243044B1A6004E0034AE9
:1024100012688243014B1A6070470000383802404E
:1024200029B1064A12680243044B1A6004E0034AC9
:1024300012688243014B1A60704700004038024026
:1024400029B1064A12680243044B1A6004E0034AA9
:1024500012688243014B1A60704700004438024002
:10246000F0B5002100220024022500260223324F6D
:102470003F6807F00C0121B1042905D0082937D1A4
:1024800005E02E4F076036E02D4F076033E02A4FFE
:102490003F1F3F68C7F38056274F3F1F3F6807F035
:1024A0003F036EB1264FB7FBF3F7DFF88CC0ACF1FA
:1024B000040CDCF800C0CCF3881C07FB0CF40CE027
:1024C0001E4FB7FBF3F7DFF870C0ACF1040CDCF87B
:1024D00000C0CCF3881C07FB0CF4174F3F1F3F686C
:1024E000C7F301477F1C7D00B4FBF5F7076002E0EE
:1024F000124F076000BF00BF0F4F3F6807F0F001A9
:102500000909104F7A5C0768D74047600A4F3F6857
:1025100007F4E051890A0B4F7A5C4768D74087601F
:10252000054F3F6807F46041490B064F7A5C4768E6
:10253000D740C760F0BD0000083802400024F40016
:1025400040787D011400002010B5014600220023D0
:1025500000204A11012A02D10A4C236808E0022A0D
:1025600003D1084C7034236802E0064C74342368AD
:1025700001F01F02012494401C400CB1012000E036
:10258000002010BD0038024001460020034A1068B8
:1025900020F4403008431060704700008C3802403F
:1025A00001490867704700000000474210B58301E9
:1025B00043EA016343EA0273014C236010BD00004B
:1025C0008838024030B501460020C1F3C442C1F34F
:1025D0008523C1F3C404D50205EB43152544A8B2F5
:1025E00030BD00000149086070470000382C0140F0
:1025F00001460020034A12680A400AB1012000E0A7
:1026000000207047342C014010B500F093FA10BD43
:1026100029B1064A12680243044B1A6004E0034AD7
:1026200012688243014B1A60704700003C2C014045
:1026300000B593B000F02EF801210846FFF7E0FE48
:1026400002200190072002900420039007200490AC
:102650000220059006900790012008900020099024
:1026600004200A9010200B9040200C9080000D90C8
:1026700000200E904FF400600F904000109000205A
:10268000119001A8129008A8FEF708F900F0D4F9FB
:1026900013B000BD1CB50121FC20FFF791FE022004
:1026A0008DF804008DF8050000208DF806008DF8E7
:1026B0000700012000906946D948FEF79DF90C22D9
:1026C0000021D748FEF7E0F9022000906946D4487F
:1026D000FEF792F90C220121D148FEF7D5F904202A
:1026E00000906946CE48FEF787F90C220221CC48BB
:1026F000FEF7CAF9082000906946C948FEF77CF940
:102700000C220321C648FEF7BFF91020009069464D
:10271000C348FEF771F90C220421C148FEF7B4F951
:10272000202000906946BE48FEF766F90C2205217C
:10273000BB48FEF7A9F94FF4805000906946B848AD
:10274000FEF75AF90C221146B548FEF79DF94FF4F1
:10275000005000906946B248FEF74EF90C220D2158
:10276000AF48FEF791F94FF4804000906946AC48BD
:10277000FEF742F90C220E21A948FEF785F94FF425
:10278000004000906946A648FEF736F90C220F215A
:10279000A348FEF779F9012000906946A148FEF7A9
:1027A0002BF90C2200219F48FEF76EF902200090C1
:1027B00069469C48FEF720F90C2201219948FEF752
:1027C00063F91020009069469648FEF715F90C222F
:1027D00004219448FEF758F920200090694691485A
:1027E000FEF70AF90C2205218E48FEF74DF94FF449
:1027F0008040009069468C48FEF7FEF80C220E21BE
:102800008948FEF741F94FF4004000906946864838
:10281000FEF7F2F80C220F218348FEF735F901206C
:10282000009069468048FEF7E7F80C2200217E48B8
:10283000FEF72AF90220009069467B48FEF7DCF893
:102840000C2201217848FEF71FF98020009069468C
:102850007648FEF7D1F80C2207217448FEF714F9E8
:102860004FF48070009069467048FEF7C5F80C225E
:1028700008216E48FEF708F94FF400700090694691
:102880006A48FEF7B9F80C2209216848FEF7FCF8FF
:102890004FF48060009069466448FEF7ADF80C2262
:1028A0000A216248FEF7F0F84FF400600090694694
:1028B0005E48FEF7A1F80C220B215C48FEF7E4F815
:1028C0004FF48050009069465848FEF795F80C2266
:1028D00011465648FEF7D8F84FF40050009069466C
:1028E0005248FEF789F80C220D215048FEF7CCF82B
:1028F0004FF48040009069464C48FEF77DF80C226A
:102900000E214A48FEF7C0F84FF400400090694697
:102910004648FEF771F80C220F214448FEF7B4F840
:102920004FF48070009069463F48FEF765F80C222E
:1029300008213D48FEF7A8F84FF400700090694662
:102940003948FEF759F80C2209213748FEF79CF860
:102950004FF48060009069463348FEF74DF80C2232
:102960000A213148FEF790F840200090694630482F
:10297000FEF742F80C2206212D48FEF785F80120CB
:10298000009069462B48FEF737F80C2200212948B1
:10299000FEF77AF84FF40060009069462048FEF791
:1029A0002BF80C220B211E48FEF76EF84FF4004066
:1029B000009069461B48FEF71FF80C220F211948AA
:1029C000FEF762F84FF48070009069461548FEF7F4
:1029D00013F80C2208211348FEF756F880200090C7
:1029E00069461348FEF708F80C2207211048FEF745
:1029F0004BF80220009069460C48FDF7FDFF0C22C1
:102A000001210A48FEF740F8012000906946074876
:102A1000FDF7F2FF0C2200210448FEF735F81CBD3B
:102A20000014024000180240000C02400010024056
:102A3000001C0240000802401FB500240120009045
:102A40000820019000200290039000BF2021012067
:102A5000FDF7F0FE0028F9D16846FDF70FFF0A20C8
:102A600000F042F80220009008200190002002901F
:102A7000039000BF20210120FDF7DCFE0028F9D1E2
:102A80006846FDF7FBFE032000900820019002201D
:102A900002900020039000BF20210120FDF7CAFE14
:102AA0000028F9D16846FDF7E9FE40F2222404200F
:102AB00000900820019001200290039400BF202183
:102AC0000120FDF7B7FE0028F9D16846FDF7D6FED4
:102AD00040F26A50FDF784FF00BF20210120FDF77E
:102AE000A9FE0028F9D11FBD01B581B000200090DA
:102AF000054901984843009002E00098401E00906C
:102B000000980028F9D10CBDA086010010B5074837
:102B1000006800F0C05040B10120054908604FF046
:102B2000C25102485830FDF787FD10BD00640240D5
:102B3000D802002010B54FF48070FFF759FD50B156
:102B40000020254908704FF48070FFF74BFD0120ED
:102B50002249086037E00220FFF74AFD30B1022029
:102B6000FFF740FD02201C4908702CE00820FFF709
:102B70003FFD30B10820FFF735FD042016490870ED
:102B800021E02020FFF734FD30B12020FFF72AFD9F
:102B900006201149087016E01020FFF729FD30B11A
:102BA0001020FFF71FFD05200B4908700BE04FF4C4
:102BB0000070FFF71DFD30B14FF40070FFF712FDFC
:102BC00007200549087000214CF23A30FFF720FD3C
:102BD0000148007810BD0000D0020020D40200207F
:102BE00021B1028842F04002028004E002884FF6E0
:102BF000BF731A400280704710B50022028802F4A9
:102C000041520B884C8823438C882343CC88234330
:102C10000C8923434C8923438C892343CC89234348
:102C20001A430280838B4FF2FF74234083830B8A05
:102C3000038210BD30B500228B071C0F0F2303FA4F
:102C400004F20B4B8C1053F824309343084C8D1036
:102C500044F8253023468C1053F824308C07240F79
:102C600000FA04F42343024C8D1044F8253030BDA3
:102C7000083801400CB500200190009041480068E0
:102C800040F480303F49086000BF3E48006800F4CF
:102C9000003000900198401C0190009818B90198EC
:102CA000B0F5A04FF1D13748006800F4003010B102
:102CB0000120009001E0002000900098012860D1E0
:102CC00030484030006840F080502E494031086064
:102CD0002D48006840F440402B49086029480830DE
:102CE00000682849083108600846006840F4004040
:102CF00008600846006840F4A05008602348091F97
:102D00000860081F006840F08070091F086000BF5D
:102D10001C48006800F000700028F9D01A480068CC
:102D200040F480301849086000BF1748406800F43C
:102D300080300028F9D01448006840F4003012496F
:102D4000086000BF1048406800F400300028F9D047
:102D500040F205700E4908600A480830006820F00B
:102D600003000849083108600846006840F0020086
:102D7000086000BF03480830006800F00C00082815
:102D8000F8D10CBD0038024000700040195A4007CD
:102D9000003C024010B500BF502080F31188BFF303
:102DA0004F8FBFF36F8F00BF07F0B8FD18B14FF022
:102DB00080500449086000BF002080F3118800BFE4
:102DC00010BD000004ED00E010B51548006840F4A7
:102DD0007000134908601348006840F00100114971
:102DE000086000200F49083108600E4800680E494D
:102DF00008400C4908600D48091D0860081F00685C
:102E000020F48020091F0860002006490C3108606A
:102E1000FFF730FF4FF0006001498039086010BDB6
:102E200088ED00E000380240FFFFF6FE103000247D
:102E300000B587B001210846FFF7C2FA0121102032
:102E4000FFF7FEFA00208DF81A0002208DF8180016
:102E500001208DF81B0003208DF819004FF400703D
:102E6000059005A91A48FDF7C7FD4FF4806005904D
:102E700005A91748FDF7C0FD072209211448FDF7F1
:102E800003FE07220A211248FDF7FEFD4FF4E13050
:102E900001900020ADF80A00ADF80800ADF80C0074
:102EA000ADF810000C20ADF80E0001A9094800F0A3
:102EB00003F900F053F80121064800F094F80122CC
:102EC00040F22551034800F0D1F807B000BD0000E2
:102ED000000002400010014010B540F22551184892
:102EE00000F09AF858B300F04DF816490A680968DE
:102EF000491C144B1960144941F8220040F2255135
:102F00000F4800F061F80F480068104909688842CE
:102F100015D100200B4908600C4801680A4800F0F0
:102F20003FF8002407E0084850F82420214608A074
:102F300005F004FE641C054800688442F3DB10BD04
:102F40000010014028000020A803002024000020D9
:102F50002025642D2D2563200A00000008B54FF4BC
:102F60004070FFF723FA25208DF8000000208DF82F
:102F700001008DF8020001208DF803006846FFF77C
:102F8000D9F908BD10B500BF2021044800F037F87A
:102F90000028F9D0014800F0F9F810BD00100140F8
:102FA0002DE9F04105460E462F46002405E017F8AE
:102FB0002410044800F0EFF8641CB442F7DBBDE8CD
:102FC000F08100000010014010B50022002340F6FF
:102FD0006A14A14200D100BF0A1201249440A3B296
:102FE000DC43048010BD21B1828942F40052828109
:102FF00004E082894DF6FF731A40828170470246D1
:103000000020B1F5007F00D100BF13880B400BB149
:10301000012000E00020704770B502460024002324
:103020000025002040F66A16B14200D100BFC1F36E
:10303000421501F01F03012606FA03F3012D02D108
:103040009689334006E0022D02D1168A334001E012
:10305000968A33400C12012606FA04F4168834408E
:1030600013B10CB1012000E0002070BDF0B50346A3
:10307000002400260025002040F66A17B94200D13E
:1030800000BF1846C1F3421401F01F06012707FADA
:1030900006F5012C01D10C3004E0022C01D11030D6
:1030A00000E014301AB107682F43076002E0076898
:1030B000AF430760F0BD00002DE9FF4705460E460F
:1030C0000024A14600BFA046B08900B100BF2C8AF1
:1030D00024F44054F08804432C82AC8941F20C6003
:1030E0008443B08831890843718908430443AC8123
:1030F000AC8A24F44074B0890443AC826846FFF77C
:10310000AFF92048854202D01F48854202D1DDF840
:103110000C9001E0DDF80890A88900F4004040B16F
:1031200009EBC90000EB091031684900B0FBF1F769
:1031300007E009EBC90000EB091031688900B0FB1A
:10314000F1F76420B7FBF0F004012009642101FBD2
:103150001078A88900F4004040B1322000EBC8008C
:10316000B0FBF1F000F00700044308E0322000EB70
:1031700008106421B0FBF1F000F00F0004432C8133
:10318000BDE8FF8700100140001401400146888817
:10319000C0F30800704770B504460D462946204626
:1031A00000F008F800BF80212046FFF728FF002824
:1031B000F9D070BDC1F308028280704700BFFEE7FE
:1031C0002DE9FF4117461E4605F052FF002869D140
:1031D00001A96846FDF750FFBDF80000B0F5487F33
:1031E0002CDABDF80400B0F5F07FF9DA3078012868
:1031F00025D146480068002820D0142005F08AFC1C
:1032000004461421FDF79AF8254601202872BDF8DE
:103210000000E860BDF8040028613C4800682860B0
:103220000020686000230A2229463948006807F018
:1032300099F9012802D1284605F063FC63E0BDF846
:103240000420BDF80010384604F0A2FB804601209F
:103250003070B8F1000F24D02C48C0F80080142042
:1032600005F058FC04461421FDF768F825460120B6
:103270002872BDF80000E860BDF80400286123480A
:10328000006828600020686000230A222946204840
:10329000006807F067F9012802D1284605F031FCE3
:1032A00000BF30E005F0E4FE68B3307801282AD191
:1032B0000020307001A96846FDF7DEFE142005F0FD
:1032C00029FC04461421FDF739F82546022028720E
:1032D000BDF80000E860BDF8040028610B480068F4
:1032E00028600020686000231A46294608480068C4
:1032F00007F038F9012802D1284605F002FC002029
:103300000249086000BFBDE8FF810000EC02002018
:10331000E80200202DE9F05F06468B4690461F46E6
:10332000DDF82890B8F1010F03D0B8F1020F37D1C2
:103330000EE01FFA89F2B9B2304604F0F1FA18B182
:10334000304604F023FE02E0304604F0E9FE28E0B7
:10335000304604F0E5FE1FFA89F2B9B2304604F0B7
:10336000DFFAE0B1142005F0D5FB04461421FCF788
:10337000E5FF254608202872304604F038F8E8605A
:103380000020286100BF306A28606E6000BFB0690D
:10339000824652462946304604F030FA00BF00E02B
:1033A00000BF00BFBDE8F09F2DE9F05F06468846EC
:1033B00091461F46DDF828A0B9F1010F03D0B9F1FD
:1033C000020F3BD10EE01FFA8AF2B9B2304604F088
:1033D000A7FA18B1304604F0D9FD02E0304604F0F7
:1033E0009FFE2CE0304604F09BFE1FFA8AF2B9B231
:1033F000304604F095FA00B3142005F08BFB044628
:103400001421FCF79BFF25460620287200BF706937
:103410000078E86000BF70694078286100BF306ABA
:103420002860C5F80480304604F077FA83465A468F
:103430002946304604F0E2F900BF00E000BF00BFBB
:10344000BDE8F09F2DE9F04F85B007468A46154646
:103450009B46DDF83890012D04D0022D03D0042DB9
:103460002FD101E031E030E01AA005F067FB5820D1
:1034700005F050FB0446384603F036FE8046012036
:103480001649096816A2CDE90128CDE90310962056
:103490004FF4F0737822A0210090204604F0B6FF8C
:1034A00004462646304604F0EDFE1549304603F04A
:1034B000CDFF3068C16830468847304604F058FA7E
:1034C00003E010A005F03AFB00BF00BF05B0BDE867
:1034D000F08F0000636C6F73650A0000E802002043
:1034E000436C69636B204F4B20746F20636C6F7368
:1034F00065207468652077696E646F772E00000020
:1035000091350008756E646566696E6974696F6EE1
:10351000206D73670A0000002DE9F84306468846CF
:1035200014461D46089F062C0DD1202000906B46A6
:103530003A462946304603F076F99DF800103046A9
:1035400003F02EFA00BF00BF00BFBDE8F883000003
:103550002DE9F0410446884615461E46069F012D7A
:1035600004D0022D03D00A2D0CD106E00BE0214639
:103570000648006803F033FA05E0F1B2204601F096
:103580009EFA00BF00BF00BFBDE8F081F00200203E
:103590002DE9F0410446884615461E46069F18A0B0
:1035A00005F0CCFA042D02D00B2D24D10AE019A08D
:1035B00005F0C4FA204604F011FF20684169204656
:1035C000884719E030786F280AD119A005F0B6FABB
:1035D000204604F003FF206841692046884709E03F
:1035E0000CA005F0ABFA204604F0F8FE2068416913
:1035F0002046884700E000BF00BFBDE8F081000022
:103600006469616C6F672D2D77696E70726F6320CE
:10361000330A00000A2063616E63656C20636C6F7F
:1036200073652077696E646F7721200A00000000BF
:103630000A2077696E646F772077696C6C20626509
:1036400020636C6F73656421200A00002DE9F04748
:103650008246894617461E46DDF82080012F02D09B
:10366000022F1DD10EE01FFA88F2B1B2504604F0CD
:1036700057F918B1504604F089FC02E0504604F0B6
:103680004FFD2BE0504604F04BFD1FFA88F2B1B21B
:10369000504604F045F910B112A005F04FFA1DE0B4
:1036A000504604F072F9C0B1142005F033FA044614
:1036B0001421FCF743FE25462F72EE60C5F81080FA
:1036C000504604F062F92860C5F80490074829467E
:1036D0000268504604F092F800BF00BF00BFBDE88A
:1036E000F0870000627574746F6E0A00E8020020B3
:1036F0002DE9F0478246894617461E46DDF82080B0
:10370000012F04D0022F11D0082F23D11CE01FFA63
:1037100088F2B1B2504604F003F918B1504600F0F7
:1037200053FE02E0504600F07BFF31E0504600F0CF
:1037300077FF1FFA88F2B1B2504604F0F1F810B1E9
:10374000504600F0F7FE23E03446214612A005F073
:10375000F5F91DE0504604F018F9C0B1142005F049
:10376000D9F904461421FCF7E9FD25462F72EE60D5
:10377000C5F81080504604F008F92860C5F8049098
:10378000074829460268504604F038F800BF00BFD9
:1037900000BFBDE8F08700002D2D25730A00000052
:1037A000E80200202DE9F0410746884614461D46F0
:1037B000069E072C04D1294603A005F0BFF900E0BE
:1037C00000BF00BFBDE8F081726164696F62746E12
:1037D0003E3E3E3E3E3E3E3E25730A002DE9F0470A
:1037E0000646894614461D46089F012C02D0022C2D
:1037F0001BD116E0BAB2A9B2304601F0D9FC30466E
:1038000001F037FD804641460AA005F097F93046A1
:1038100001F02FFD804641460D48006802F0C1FAD4
:1038200004E0304601F0B4FC00E000BF00BFBDE89A
:10383000F0870000736C696465722D2D2D2D2D2D80
:103840002D2D2D2D3E3E3E3E3E25640A00000000FB
:10385000F40200202DE9F05F05460F469046994698
:10386000DDF828A0B8F1020F2AD11FFA8AF21FFA58
:1038700089F1284604F054F808B300BF286A83464B
:10388000294601F0DFF9142005F044F9044614211B
:10389000FCF754FD26460720307200BF6869F060CF
:1038A0000020306100BF286A3060776000BFA869DF
:1038B00083465A463146284603F0A0FF00BF00E089
:1038C00000BF00BFBDE8F09F2DE9F04704468846E1
:1038D00015469946089F022D0BD1204604F0CFFDD6
:1038E00000BF94F848000646314604A005F026F9CA
:1038F00000BF00BF00BFBDE8F087000063686563DC
:103900006B3E3E3E3E3E3E3E3E3E3E256400000057
:103910002DE9F0410646884614461D46069F012CB7
:1039200002D0022C0AD105E0BAB2A9B2304602F0A8
:103930005BF804E0304602F04CF800E000BF00BF46
:10394000BDE8F0812DE9F05F06468A4691461F46A4
:10395000DDF82880B9F1010F03D0B9F1020F35D19C
:103960000EE01FFA88F2B9B2304603F0D9FF18B161
:10397000304604F00BFB02E0304604F0D1FB45E09A
:10398000304604F0CDFB1FFA88F2B9B2304603F09E
:10399000C7FFD0B1142005F0BDF804461421FCF790
:1039A000CDFC254604202872EF60C5F8108000BFCA
:1039B000306A28606E60304603F0AFFF83465A4697
:1039C0002946304603F01AFF00BF1FE000BF306AEF
:1039D000D8B1142005F09EF804461421FCF7AEFC83
:1039E000254685F80890EF60C5F8108000BF306A62
:1039F0002860C5F804A0304603F08FFF83465A467E
:103A00002946304603F0FAFE00BF00BF00BFBDE804
:103A1000F09F2DE9F05F05468B4690461F46DDF886
:103A20002890B8F1010F03D0B8F1020F37D10EE0A2
:103A30001FFA89F2B9B2284603F072FF18B128467E
:103A400004F0A4FA02E0284604F06AFB28E02846C5
:103A500004F066FB1FFA89F2B9B2284603F060FF52
:103A6000E0B1142005F056F804461421FCF766FC7A
:103A700026460B20307200BF6869F06000BFA88B3B
:103A8000306100BF286A3060756000BFA869824657
:103A900052463146284603F0B1FE00BF00E000BFA9
:103AA00000BFBDE8F09F00002DE9F04781460F46BA
:103AB00016469846DDF820A0012E02D0022E02D133
:103AC00000E01EE01DE0484603F05FFFC0B1142097
:103AD00005F020F804461421FCF730FC25462E7230
:103AE000C5F80C80C5F810A0484603F04EFF2860CA
:103AF0006F60054829460268484603F07FFE00BF14
:103B000000BF00BFBDE8F087E8020020AAB0FE4A6F
:103B100007CA1DAB07C3FC4A0C3207CA1AAB07C35E
:103B2000582004F0F7FF29900120F8490968002285
:103B3000F7A3CDE90132CDE903104FF4F0704FF453
:103B4000487311460090299803F002FC29901990BF
:103B5000582004F0DFFF01212990EC480268EEA311
:103B60001998CDE90130CDE903214FF4F0704FF4FD
:103B70004873002211460090299803F0E9FB299030
:103B8000189018980068C068079007991898884797
:103B9000E649189803F05AFC189803F0A5FA179014
:103BA000602004F0B7FF2890D8480168E0A21E23E7
:103BB0001798CDE90032CDE90201B4230A224FF46F
:103BC000AF71289800F0E4FD28901690482004F08A
:103BD000A1FF2790CD480368D7A264211798CDE9AB
:103BE0000203CDE90012B4230A463221279804F0DB
:103BF00011FB279015905C2004F08CFF2690C348A1
:103C0000016800226E231798CDE90032CDE9020148
:103C1000B423DC223221269801F054F92690149026
:103C20004C2004F077FF00212590B8480268C4A317
:103C30001798CDE90130CDE903211E20B4234FF4BC
:103C4000AF7232210090259804F02AFF259013903E
:103C50004C2004F05FFF00212590AC480268BAA315
:103C60001798CDE90130CDE903211E20B4234FF48C
:103C7000C87232210090259804F012FF259012900E
:103C8000582004F047FF2490A048036800211E221A
:103C90001798CDE90203CDE900214FF4C873322211
:103CA000FA21249801F0DCFF24901190542004F0B4
:103CB00031FF00222390954803681798CDE9012031
:103CC0004FF4C870CDE9033200901E231A4640F22B
:103CD000EE21239801F01EFB239010904C2004F05D
:103CE00019FF22908948036800211E221798CDE908
:103CF0000203CDE900214FF496736E224FF48C71CC
:103D0000229802F0D7F822900F90542004F002FF7E
:103D100021907E4801680023FA221798CDE90023FC
:103D2000CDE902014FF4C873A022FA21219800F0D6
:103D3000FFFE21900E900021169800F069F94FF4D3
:103D4000FC61169800F062F98149169803F07EFB39
:103D500003221DA9169800F07DFC16980068C06823
:103D600007900799169888470021159800F050F998
:103D700047F6FF71159800F049F915980068C0687A
:103D800007900799159888477249159803F05EFBCC
:103D9000002303221AA9149800F096FF14980068D3
:103DA000C06807900799149888476B49149803F0E6
:103DB0004DFB13980068C0680790079913988847CF
:103DC0006649139803F042FB12980068C068079098
:103DD0000799129888476149129803F037FB1198A8
:103DE00001F016FE11980068C068079007991198B5
:103DF00088475B49119803F029FB10980068C06858
:103E000007900799109888475649109803F01EFBB1
:103E10000F980068C068079007990F988847524923
:103E20000F98086000210E9800F0F2F84FF6E0714C
:103E30000E9800F0EBF84D490E9803F007FB0E9832
:103E40000068C068079007990E9888475C2004F0C6
:103E500061FE20902D4801680022C8231798CDE903
:103E60000032CDE902019B00F4220021209802F0EB
:103E7000CBFD20900D9000210D9800F0C9F83C4832
:103E8000FEF7A0FB014607900D9800F0BFF80D98D3
:103E900002F026F937490D9803F0D8FA36490D9803
:103EA0000860189803F064FD00200990142005F0C4
:103EB000EFFD089089E009AB189ADDE90B10FFF7D8
:103EC0007FF900231A4611480899006806F01CFA89
:103ED00007900798012877D1089800680A9000BFDA
:103EE0000A9890F82D0068B1089800690090089829
:103EF000C06806900898007A059008984068049079
:103F000008983BE045E00000BCAF0008E802002054
:103F1000524F4F542100000049542049532054452A
:103F200053542057494E20312100000045340008E9
:103F30006C69737442617200627574746F6E000014
:103F4000636865636B310000636865636B32000012
:103F5000F13600084D360008A5370008C9380008BA
:103F600011390008DD370008F4020020513500083F
:103F7000CFCFCF0019350008F00200200068039071
:103F80000A9840680290DDE9024004A90EC9A047E2
:103F90001AE00E490A9803F059FA0898006900904F
:103FA0000898C06806900898007A059008984068BC
:103FB00004900898006803900A9840680290DDE930
:103FC000024004A90EC9A04700BF74E7A93A00083F
:103FD0001CB50020012103464FF4FA62CDE9001020
:103FE00003A1054806F054FC06F02CF81CBD0000A7
:103FF00077696E30000000000D3B00087047704785
:104000000146886B70470146486B70478163704773
:104010004163704770472DE9F04706460F46706CC4
:10402000A8B90C2004F076FD04462546082004F0CB
:1040300071FD8046002106F03EFF8046286028681A
:10404000A8600020A88000BF2C46756400BF746C77
:10405000082004F05FFD0546394606F02CFF0546B2
:10406000A846206806F01FFF81464946404606F0F4
:104070001DFF4146206806F019FFA088401CA08063
:1040800000BFBDE8F08770B504460E46606C01685D
:10409000816000BF204600F015F80546314606F065
:1040A000C2FE204600F00EF80546A88848B9204612
:1040B00000F008F8054606F075FE0020606400BFB9
:1040C00000BF70BD0146486C7047416470472DE9E0
:1040D000FF4F8BB005469A46199E002E5ED04FF0DA
:1040E000000800240CE0601CC4B200BF288ABDF8A0
:1040F000341001FB1400002802DC601EC4B202E090
:10410000305D0028EFD100BF00BF698900BF6A8A17
:10411000BDF83630D01A00EBD07201EB62011FFA05
:1041200081FB284603F064FB0146288ABDF8342051
:1041300002FB1400039000EBD07001EB60001FFA4B
:1041400080F92846FFF7BEFF039018990CAB5A463A
:10415000CDE900A10290494604A802F0A7FE04A8F8
:104160000121017300BF13E016F808705A46494652
:1041700004A802F097FE394604A802F0A5FCBDF899
:10418000340048441FFA80F908F1010000F0FF08EC
:10419000A045E9DB04A802F0A5FE00BF0FB0BDE812
:1041A000F08FD1E90F23C0E9002370472DE9FF5FAD
:1041B00004460D4616461F46DDE910ABDDE90E89C3
:1041C0003B463246294620468DE8000F03F01CFC92
:1041D000044607482060002060634FF2DE70A06351
:1041E000044903C9C4E90F01204604B0BDE8F09FAB
:1041F00094DA0008F802002070B50446204600F06A
:1042000004F8054604F07DFC70BD10B50446204658
:1042100003F04DFC0446204610BD10B50446606D09
:1042200004F06FFC04F1480000F0E3FC204603F0CA
:10423000CEF810BD2DE9F04F8FB08146484603F00F
:10424000D6F8002871D04FF00008002449460DA888
:10425000FFF7A7FF16E0601CC4B2484603F0FBF866
:104260008246494602A8FFF79CFFDDE90201CDE93D
:104270000401BDF8140000FB14A0002802DC601E3D
:10428000C4B205E0484603F0B2F8005D0028E2D170
:1042900000BF484603F0AFFA8246484600F070F887
:1042A0008346494601A8FFF77CFFDDE90101CDE91E
:1042B0000401BDF81600ABEB0000039000EBD070DA
:1042C0000AEB600085B2484603F092FA82464846FF
:1042D00003F0C1F88346494601A8FFF762FFDDE914
:1042E0000101CDE90401BDF8140000FB14B00390F6
:1042F00000EBD0700AEB600086B24846FFF7E2FEA2
:1043000082464846FFF77FFE05904846FFF77BFE52
:10431000834605980DAB2A463146CDE900B0CDF86D
:1043200008A006A802F0C2FD21E026E0484603F0FE
:104330005EF810F8087006A83146C181058200BFFA
:10434000002103F045FC394606A802F0BDFB4946B2
:1043500002A8FFF726FFDDE90201CDE90401BDF85F
:104360001400304486B208F1010000F0FF08A045B7
:10437000DCDB06A802F0B6FD00BF0FB0BDE8F08F91
:104380000146B1F85200704710B50446204603F0CC
:1043900065F810BD2DE9F04104460F4600250BE0FD
:1043A00004F1480000F02EFC50F8256030683946D2
:1043B0008269304690476D1C04F1480000F01FFCF4
:1043C000A842EDDCBDE8F0812DE9F04389B0044658
:1043D00000BF94F82C0000283ED1204603F08FFA4D
:1043E0002046FFF76FFE05462046FFF7C9FF064649
:1043F000204603F030F80746204603F0FCF98046DB
:10440000204603F0F5F981464FF6FF703B464246E1
:104410004946CDE90060029503A801F085FA012123
:1044200003A803F0D5FB03A801F0D4F82046FFF75A
:10443000EAFD0546294603A803F0B6FB002103A8C0
:1044400003F0C6FB03A801F0C5F82046FFF7F2FE13
:1044500003A801F087FA00BF09B0BDE8F08310B5EA
:104460000446204603F0F9F910BD2DE9F04F89B05C
:104470000446884641462046FFF7CDFD2046FFF71B
:1044800021FE0546A06B06462046FFF779FF07464A
:10449000204602F0E0FF8146204603F0ACF9824658
:1044A000204603F0A5F983464B465246594603A8D9
:1044B000CDE90076029501F037FA012103A803F057
:1044C00087FB414603A800F07AFF2046FFF79BFDDB
:1044D0000546294603A803F067FB002103A803F063
:1044E00077FB414603A800F06AFF2046FFF7A2FED3
:1044F0002046FFF7E7FD0546A888012814D10025CE
:104500000CE004F1480000F07DFB50F825702046D7
:10451000FFF7D8FD06467E6400BF6D1C04F148001D
:1045200000F06DFBA842ECDC03A801F01BFA09B017
:10453000BDE8F08F2DE9F041044604F1480000F099
:1045400061FB00285DD000BF94F85C0070BB04F1F3
:10455000480000F054FB064600250AE004F148003C
:1045600000F050FB50F825703868C168384688471D
:104570006D1CB542F2DB204602F03CFF2046FFF7FF
:10458000FFFE711C484387B23946204602F05CFFAB
:1045900000BF94F82F0010B1204602F06BFF2046B8
:1045A00000F04BF8204603F0E3F92AE004F148005C
:1045B00000F025FB074600250AE004F1480000F062
:1045C00021FB50F8256030680169304688476D1C32
:1045D000BD42F2DB00BF94F82F0010B1204603F07B
:1045E0003DF82046FFF7CCFE06463146204602F055
:1045F0002BFF2068816820468847204600F01DF880
:1046000000BFBDE8F08170B504460D46294620463E
:10461000FFF739FD2068294682692046904770BD22
:1046200010B5044600BF94F82C0028B1204603F0D2
:104630009FF9204603F063F910BD00BF90F85C10AD
:1046400019B1002180F85C1002E0012180F85C10B3
:10465000704700002DE9F04F87B0044689461746A1
:10466000C4F8549004F14800078100BF00F0B9FA83
:1046700004F1480000F0C3FA069000253CE0482011
:1046800004F048FA0646A06982462046FFF778FE05
:104690000590204602F0DFFE04902046FFF770FEF2
:1046A000691C48431FFA80FB59F825000599CDE99C
:1046B000024ACDE900105A4600213046049B03F01F
:1046C000A9FD0646B0460F49404602F0BFFE20460F
:1046D000FFF799FC8246C8F834A000BF0A48FDF7EE
:1046E00071FF8246C8F838A000BF04F1480000F00E
:1046F00089FA40F825806D1C06988542BFDB07B01B
:10470000BDE8F08F15330008E0E0E0002DE9F04748
:104710008AB004462046FFF7D5FC0546A06B064646
:104720002046FFF72DFE0746204602F094FE804605
:10473000204603F060F88146204603F059F882468F
:1047400043464A46514604A8CDE90076029501F059
:10475000EBF8012104A803F03BFA04A800F03AFFAB
:104760002046FFF750FC0546294604A803F01CFA32
:10477000002104A803F02CFA04A800F02BFF204627
:10478000FFF758FD04A801F0EDF80AB0BDE8F08786
:104790002DE9FF5F04460E46174698460EAD95E894
:1047A000200E43463A46314620468DE8200EFFF75C
:1047B000FDFC044604F1480000F028FAA0F148048A
:1047C000094820602C30A064A4F85250002084F8DE
:1047D0005C0060652146012081F82F0000BF204663
:1047E00004B0BDE8F09F0000C0DA000870B50446D0
:1047F000204600F004F8054604F083F970BD10B5BA
:10480000044604F1480000F009FAA0F148042046EB
:10481000FFF7FBFC0446204610BD10B5044694F893
:104820004E0000280BDD4834A079401EA071002006
:10483000A2792168483C8854204603F099F810BDBD
:1048400010B50446A06C04F05CF9204602F0BFFDF0
:1048500010BD7FB5044621466846FFF7A2FCDDE99E
:104860000001CDE90201BDF80E00B4F8521046185F
:10487000204602F0C0FF0546204602F0B5FD284460
:10488000864213DC204602F0B3FFA4F85000214614
:104890006846FFF786FCDDE90001CDE90201BDF8BD
:1048A0000E00B4F852100844A4F852007FBD2DE960
:1048B000F0418EB004460D4621460CA8FFF771FC6E
:1048C00000BF606C0646A06B0746606B8046CDE972
:1048D00001760090B4F85220B4F850100CAB05A843
:1048E00002F0E4FA294605A802F0EEF8214601A8F4
:1048F000FFF757FCDDE90101CDE90301BDF8100028
:10490000B4F850100844A4F85000204602F070FF9C
:10491000218A0844B4F85010884229DC204602F06D
:1049200067FFA4F85000214601A8FFF73AFCDDE933
:104930000101CDE90301BDF81200B4F8521008449A
:10494000A4F85200204602F056FF0646204602F028
:104950004BFD3044B4F85210884209DA204602F088
:1049600047FFA4F85000204602F045FFA4F852008B
:1049700005A802F0B7FA0EB0BDE8F08110B5044604
:10498000204602F06BFD10BD2DE9F04F8BB00446C0
:104990000E4600BF606C0746A06B8046204602F0C2
:1049A00023FD8146208A8246204602F024FF83466A
:1049B000204602F01DFF53465A460146CDE90098B5
:1049C0000297049005A800F0AFFF012105A803F0AD
:1049D000FFF8314605A800F0F2FC204602F008FF7F
:1049E000A4F85000204602F006FFA4F8520000256B
:1049F00005E0A06C415D2046FFF759FF6D1C94F85F
:104A00004E00A842F5DC05A800F0ACFF0BB0BDE8F5
:104A1000F08F10B50446204602F01FFF10BD70B5A0
:104A200004460D4629462046FFF72DFB20682946FF
:104A300082692046904770BD2DE9F04F89B0044649
:104A400000BF606C0646A06B0746204602F0CCFC17
:104A50008046208A8146204602F0CDFE82462046CE
:104A600002F0C6FE83464B465246594603A8CDE99E
:104A70000087029600F058FF012103A803F0A8F870
:104A800003A800F0A7FD204602F0B2FEA4F85000F3
:104A9000204602F0B0FEA4F85200002505E0A06C0C
:104AA000415D2046FFF703FF6D1C94F84E00A842BD
:104AB000F5DC03A800F056FF09B0BDE8F08F70B533
:104AC00004460D46112D19D007DCCDB1082D0FD0AD
:104AD000092D11D0102D14D109E0122D0FD0142D55
:104AE0000BD02E2D0DD12046FFF797FE1DE01CE0C8
:104AF0002046FFF7AEFE18E017E016E015E014E0E0
:104B000013E094F84E00B4F84C1088420CDC94F892
:104B10004E10A06C455429462046FFF7C8FE94F875
:104B20004E00401C84F84E0000BF00BF70BD000066
:104B30002DE9FF4F89B004460F461D4616AE96E894
:104B400040072B468DE84007394620460B9AFFF771
:104B50002DFB044619482060214601A8FFF721FBE0
:104B6000DDE90101CDE90501BDF81A0096FBF0FB76
:104B70000BFB05FB214603A8FFF713FBDDE903014F
:104B8000CDE90701BDF820009BFBF0F0401E483442
:104B9000A080A08803F0B9FF20600020A071483CED
:104BA000204602F025FEA4F85000204602F023FE25
:104BB000A4F8520020460DB0BDE8F08FFCDA0008E2
:104BC00070B50446204600F004F8054603F099FF4E
:104BD00070BD10B504462046FFF717FB044620467B
:104BE00010BD10B504462189880003F08EFF606077
:104BF00010BD10B50446606803F083FF10BD014688
:104C00000889704701464868704700000249016002
:104C1000002141600181704728DB0008704710B512
:104C20000446606D03F06DFF04F14800FFF7E1FFFB
:104C3000204602F0CCFB10BD10B50446204602F021
:104C40000DFC10BD2DE9F04104460D4600BF95F85E
:104C5000480018B1284603F012FC19E000260AE0CB
:104C600004F14800FFF7CEFF50F82680002788F8AF
:104C7000487000BF761C04F14800FFF7C0FFB04247
:104C8000EEDC284603F0FBFB204602F071FE00BF7D
:104C9000BDE8F0812DE9F04104460F4600250BE008
:104CA00004F14800FFF7AEFF50F825603068394640
:104CB0008269304690476D1C04F14800FFF79FFF62
:104CC000A842EDDCBDE8F0812DE9F04F89B0044643
:104CD0000E4690469946666504F14800A0F80880A3
:104CE00000BFFFF77EFF84F85890002794F8580023
:104CF000002852D0002549E04C2003F00BFF08901B
:104D0000A0690790608A0690B4F810B004F14800DA
:104D1000FFF775FF9BFBF0F080B20122059056F87B
:104D200025100798CDE90114CDE903020698B9B220
:104D300000900022059B089803F0B2FE834608907D
:104D400004F14800FFF75EFF40F825B004F1480089
:104D5000FFF758FF50F825A0DAF80000C168504668
:104D6000884704F14800FFF74DFF50F825B0384957
:104D7000584602F06BFB00BFB4F810B004F14800D5
:104D8000FFF73DFF9BFBF0F007446D1C04F148006A
:104D9000FFF735FFA842AFDC56E004F14800FFF70B
:104DA0002EFF824604F14800FFF729FF0AEB40007E
:104DB000471E002542E04C2003F0ACFE8246A0696D
:104DC0000890608A400090FBF7F080B20790208A3C
:104DD0000690608A05EB4501484390FBF7F080B2EE
:104DE0000122059056F825100898CDE90114CDE967
:104DF00003020798009000215046DDE9052303F0E7
:104E00004FFE824604F14800FFF7FCFE40F825A063
:104E100004F14800FFF7F6FE50F825B0DBF800007B
:104E2000C1685846884704F14800FFF7EBFE50F888
:104E300025000749089002F009FB6D1C04F14800A9
:104E4000FFF7DDFEA842B6DC09B0BDE8F08F000038
:104E50005538000810B50446204602F0FEFC10BD8F
:104E60002DE9F0410446884641462046FFF7D3F835
:104E700000BF606C00BF8188012912D100250AE0C3
:104E800004F14800FFF7BEFE50F82570666C00BFC5
:104E90007E6400BF6D1C04F14800FFF7B0FEA8421D
:104EA000EEDCBDE8F08170B504460D46294620468B
:104EB000FFF7E9F82068294682692046904770BDCF
:104EC000704700002DE9FF5F04460D4616461F4659
:104ED000DDE910ABDDE90E893B4632462946204626
:104EE0008DE8000FFFF762F9044604F14800FFF770
:104EF0008DFEA0F14804054820602C30A0640120FC
:104F000084F85800204604B0BDE8F09F38DB000864
:104F100070B50446204600F004F8054603F0F1FDA4
:104F200070BD10B5044604F14800FFF777FEA0F10C
:104F300048042046FFF769F90446204610BD10B525
:104F40000446204602F043FA10BD2DE9FF4F89B018
:104F500004468946924694F8500080B3B4F85270E3
:104F6000B4F8520000EBD071A9EB61018DB220467C
:104F700002F041FC0646204602F036FA8046204602
:104F800002F036FCA84204DD204602F031FC054662
:104F900048E0204602F02CFC8346204602F05BFAF3
:104FA0005844C01BA8423DDA204602F021FC83464B
:104FB000204602F050FA5844C01B85B232E0FFE7A9
:104FC000204602F015FC0546B4F8520000EBD07103
:104FD000AAEB61018EB2204602F03DFA0746B4F812
:104FE0005280204602F007FCB04204DD204602F069
:104FF00002FC064616E0204602F0FDFB83462046F2
:1050000002F0F2F95844A0EB0800B0420ADA204658
:1050100002F0F1FB8346204602F0E6F95844A0EB8B
:10502000080086B22046FFF74DF883460C983B46B1
:1050300032462946CDE9010BCDF8008003A800F0E7
:1050400073FC012103A802F0C3FD03A800F0C2FA1B
:1050500003A800F087FC0DB0BDE8F08F10B5044642
:10506000204602F0FBF910BD2DE9F04F89B004464F
:105070000D462046FFF726F806461F48FDF7A2FA20
:105080000746204602F0B0F98046204602F0E3F9D8
:105090008146204602F0AFFB8246204602F0A8FB84
:1050A00083464B465246594603A8CDE900870296EF
:1050B00000F03AFC012103A802F08AFD294603A86A
:1050C00000F07DF900BF606B0646B4F84C0082B278
:1050D000E06C010C33462046FFF737FFB4F84C0074
:1050E00082B2E06C010C204600F062F803A800F0E8
:1050F00039FC09B0BDE8F08FE0E0E0002DE9F041B7
:10510000044694F8500000B3204602F0A4F9B4F825
:105110005210401A05B2204602F06AFBE16CC0EB67
:105120001140B4F8527007EBD771A0EB610006B2E2
:10513000002E00DA0026AE4200DD2E4664207043C9
:1051400090FBF5F084F8480020E0204602F04CF98E
:10515000B4F85210401A05B2204602F04CFBB4F8E5
:105160004C10081AB4F8527007EBD771A0EB61002D
:1051700006B2002E00DA0026AE4200DD2E46642084
:10518000704390FBF5F084F8480000BFBDE8F08163
:1051900070B5044600BF606B0546B4F84C0082B29F
:1051A000E06C010C2B462046FFF7CFFE70BD0000DF
:1051B0002DE9F04F8BB004460D461646E06CB5EB7A
:1051C000104F3DD0B4F84C0080B2B04238D02F46DA
:1051D0003804E064E06C3044E0642046FEF772FF7F
:1051E00080461948FDF7EEF98146204602F0FCF8AA
:1051F0008246204602F02FF98346204602F0FBFA51
:105200000490204602F0F4FA5B46CDE900A9CDE90E
:105210000280014605A8049A00F086FB012105A83A
:1052200002F0D6FC05A800F0D5F94FF6FF73324620
:1052300029462046FFF789FE05A800F093FB00BF32
:105240000BB0BDE8F08F0000E0E0E00010B50446D0
:10525000204602F002FB10BD70B504460D462946FB
:105260002046FEF710FF20682946826920469047B5
:1052700070BD10B504462046FFF740FF94F8480083
:1052800010BD00002DE9F0478AB004462046FEF725
:1052900019FF05461E48FDF795F90646204602F01F
:1052A000A3F80746204602F0D6F88046204602F0D2
:1052B000A2FA8146204602F09BFA824643464A46BD
:1052C000514604A8CDE90076029500F02DFB01219E
:1052D00004A802F07DFC04A800F07CF900BF606B1C
:1052E0000546B4F84C0082B2E06C010C2B46204617
:1052F000FFF72BFEB4F84C0082B2E06C010C2046A4
:10530000FFF756FF04A800F02DFB0AB0BDE8F087B8
:10531000E0E0E0002DE9FF4F85B004460E4612AFF5
:1053200097E88007169D8DE8800731462046DDE925
:105330000723FEF73BFF04461748206084F85050CF
:10534000204602F055FA049004980004E0642046D8
:1053500002F051FAE16C0844E0645DB1204602F0CD
:1053600043F800EB400B0BEBDB70C0F34F00A4F8ED
:1053700052000AE0204602F06EF800EB400B0BEB07
:10538000DB70C0F34F00A4F85200002084F84800FE
:10539000204609B0BDE8F08F74DB000870B5044604
:1053A000204600F004F8054603F0ABFB70BD10B5D5
:1053B00004462046FEF729FF0446204610BD2DE98D
:1053C000FE4F04460E4600BF207B70B3A08A0090BB
:1053D000638A228AE18901A801F06FFB324601A9A4
:1053E000204602F065FB0546B5B1284601F05AFBA0
:1053F0000746284601F050FB8046284601F04FFB47
:105400008146284601F045FB824643464A465146BE
:105410002046009700F0A9F925B100BF2F46384675
:1054200003F06FFB01A800BFD2E0208A401C80B2CD
:105430000090638A228AE18901A801F03EFB32468E
:1054400001A9204602F034FB0546B5B1284601F01B
:1054500029FB0746284601F01FFB8046284601F03D
:105460001EFB8146284601F014FB824643464A460D
:1054700051462046009700F078F925B100BF2F462D
:10548000384603F03EFBE18901A801F00EFB218ABA
:1054900001A801F00EFBE089401E81B201A801F0D5
:1054A00006FBA18A01A801F006FB324601A92046AD
:1054B00002F0FEFA0546B5B1284601F0F3FA0746B8
:1054C000284601F0E9FA8046284601F0E8FA8146CC
:1054D000284601F0DEFA824643464A4651462046B7
:1054E000009700F042F925B100BF2F46384603F07F
:1054F00008FB608A401E81B201A801F0D6FA218A19
:1055000001A801F0D6FA618A01A801F0D0FAA18AB7
:1055100001A801F0D0FA324601A9204602F0C8FAEB
:105520000546B5B1284601F0BDFA0746284601F008
:10553000B3FA8046284601F0B2FA8146284601F0C7
:10554000A8FA824643464A4651462046009700F054
:105550000CF925B100BF2F46384603F0D2FAE18995
:1055600001A801F0A2FAA08A401E81B201A801F0B0
:10557000A0FA618A01A801F09AFAA18A01A801F0B3
:105580009AFA324601A9204602F092FA0546B5B1D0
:10559000284601F087FA0746284601F07DFA804642
:1055A000284601F07CFA8146284601F072FA8246CC
:1055B00043464A4651462046009700F0D6F825B1AA
:1055C00000BF2F46384603F09CFA01A800BF00BF79
:1055D000BDE8FE8F7CB5044600BF207B60B320464B
:1055E00002F0B5FAA0B1204602F0B1FA0546A8884B
:1055F00070B1204602F0ABFA054605F011FCA08A16
:105600000090638A228AE189204600F0AEF89FE08C
:10561000204602F0ADFA0546A08A218A401A80B2DF
:10562000CDE90005608AE689801B83B2228A314673
:10563000204602F0BBFA8BE0204602F088FA0028F0
:1056400046D0204602F083FA0546A88800283FD0BD
:10565000204602F07CFA054605F0E2FB208A401C59
:1056600080B20090638A228AE189204600F07DF8AA
:10567000204602F06CFA054605F0D2FBA08A0090A5
:10568000E089401C83B2228AE189204600F06DF84F
:10569000204602F05CFA054605F0C2FBA08A0090A5
:1056A000638A228A581E81B2204600F05EF82046A6
:1056B00002F04DFA054605F0B3FBA08A0090638A1C
:1056C000A08A401E82B2E189204600F04EF83FE0F9
:1056D000204602F04DFA05460120CDE90005608A1A
:1056E000E689801B83B2228A3146204602F05EFAA8
:1056F000204602F03DFA0546A08A218A401A80B26F
:10570000CDE90005228AE1890123204602F04EFA04
:10571000204602F02DFA0546A08A218A401A80B25E
:10572000CDE90005228A618A0123204602F03EFA73
:10573000204602F01DFA05460120CDE90005608AE9
:10574000E689801B83B2A28A3146204602F02EFAF7
:105750007CBD028A0A4482827047C2890A4442821E
:105760007047C1817047018270472DE9FF4F85B0B6
:105770000C4692461D46002700200490059802F032
:10578000E6F9002839D012982B465246214600905F
:1057900002A801F092F919E0059802F0D8F906463E
:1057A000B068016811B1B068016800E00021884666
:1057B000424602A9059802F07BF9074637B10598E1
:1057C00002F0C5F90646B068049012E0059802F0B0
:1057D000BEF90646B068416841B1B168486800BF8B
:1057E00001680A46B0684168B16000E00022002A02
:1057F000D2D100BF02A800BF00BF002F7CD0A046BE
:10580000D146AB46384601F04AF90646BBEB0800E4
:1058100010D0B6EB09000DD0059802F098F903906E
:10582000049905F0FBFA5B464A4641460096059806
:10583000FFF79BFFA046384601F031F98146384614
:1058400001F027F98346384601F02CF90646BBEBF8
:10585000080010D0B6EB09000DD0059802F077F9DA
:105860000390049905F0DAFA5B464A4641460096F1
:105870000598FFF77AFF384601F00EF98046384662
:1058800001F00DF98146AB46384601F00BF90646AA
:10589000BBEB080010D0B6EB09000DD0059802F064
:1058A00056F90390049905F0B9FA5B464A46414619
:1058B00000960598FFF759FFA046384601F0F2F828
:1058C0008146AB46129EBBEB080010D0B6EB090038
:1058D0000DD0059802F03BF90390049905F09EFA6B
:1058E0005B464A46414600960598FFF73EFF37B1B2
:1058F00000BF3846039700E002E003F002F910E031
:10590000059802F035F906461298A0EB0A0080B21D
:10591000CDE90006281B83B252462146059802F0C5
:1059200045F909B0BDE8F08F2DE9F04704460D4672
:1059300016461F46DDE9099ADDF8208052464946A1
:10594000204602F047F9044605482060E58126829A
:10595000E819608206EB0800A0822046BDE8F087C7
:10596000A0DB000810B50446204602F03DF90446CD
:10597000204610BD10B50446606D10B1606D03F097
:10598000C0F804F14800FFF734F9204601F01FFD8C
:1059900010BD10B50446204601F060FD10BD2DE994
:1059A000F04104460F4604F14800FFF72BF9056863
:1059B0002868394682692846904704F14800FFF775
:1059C00021F9466830683946826930469047BDE81B
:1059D000F08170B5044604F14800FFF713F905683B
:1059E0002846FFF7D5FB70BD2DE9F04104460D4672
:1059F000164604F14800FFF705F9324629460768C4
:105A00003846FFF7D5FB204600F0D1F8BDE8F0811D
:105A10002DE9F04F8FB0044604F1480002210181C6
:105A200000BFFFF7DEF8542003F074F80546A069C4
:105A30000746206A804660698146608A8246B4F8DB
:105A400010B021460BA8FEF7ACFBDDE90B01CDE958
:105A50000D01BDF8380000EB8000ABEB000080B218
:105A60000A90E0890990A08908900120CDE900A959
:105A7000CDE902870490284608A90EC9FFF74AFC21
:105A8000054604F14800FFF7BDF80560482003F023
:105A900041F80646A0690746206A8046608A81462A
:105AA000214609A8FEF77DFBDDE90901CDE90D01DD
:105AB000BDF8380000EB80001FFA80FAE0890690FC
:105AC000A08900BF218A00EB010B214607A8FEF741
:105AD00068FBDDE90701CDE90B01BDF8300000EB03
