:020000040800F2
:10000000080900207D020008592800082D12000868
:1000100055280008070500082537000800000000E3
:10002000000000000000000000000000C501000802
:100030006D0600080000000019020008FD320008EB
:100040009B0200089B0200089B0200089B0200081C
:100050009B0200089B0200089B0200089B0200080C
:100060009B0200089B0200089B0200089B020008FC
:100070009B0200089B0200089B0200089B020008EC
:100080009B0200089B0200089B0200089B020008DC
:100090009B0200089B0200089B0200089B020008CC
:1000A0009B0200089B0200089B0200089B020008BC
:1000B0009B0200089B0200089B0200089B020008AC
:1000C0009B0200089B0200089B0200089B0200089C
:1000D0009B020008413400089B0200089B020008B4
:1000E000810600089B0200089B0200089B02000892
:1000F0009B0200089B0200089B0200089B0200086C
:100100009B020008712B00089B0200089B0200085C
:100110009B0200089B0200089B0200089B0200084B
:100120009B0200089B0200089B02000831060008A1
:100130009B0200089B0200089B0200089B0200082B
:100140009B0200089B0200089B0200089B0200081B
:100150009B0200089B0200089B0200089B0200080B
:100160009B0200089B0200089B0200089B020008FB
:100170009B0200089B0200089B0200089B020008EB
:100180009B0200089B0200089B0200089B020008DB
:100190009B0200089B0200089B0200089B020008CB
:1001A0009B0200089B0200089B020008DFF810D0A9
:1001B00000F04EF900F0CEF800480047697C0008D6
:1001C000080900202A4B19680868B0E8F04F80F34E
:1001D0000988BFF36F8F4FF0000080F311887047DC
:1001E0000000000006480068006880F3088862B6D6
:1001F00061B6BFF34F8FBFF36F8F00DF00BF00BF4B
:1002000008ED00E0DFF80C00016841F470010160C6
:10021000704700BF88ED00E0EFF30980BFF36F8FF8
:10022000134B1A681EF0100F08BF20ED108A20E94A
:10023000F04F106008B44FF0500080F31188BFF306
:100240004F8FBFF36F8F08F045FD4FF0000080F334
:10025000118808BC19680868B0E8F04F1EF0100F4C
:1002600008BFB0EC108A80F30988BFF36F8F704726
:1002700020030020EFF30580704700000748804707
:100280000748804707480047FEE7FEE7FEE7FEE72E
:10029000FEE7FEE7FEE7FEE7FEE7FEE73133000894
:1002A000992B0008AD0100082DE9F05F05460020FC
:1002B00092469B4688460646814640241BE02846D7
:1002C00041464746224600F066F853465A46C01A51
:1002D000914110D311461846224600F04DF82D1AD0
:1002E00067EB01084F4622460120002100F044F848
:1002F00017EB00094E41201EA4F10104DFDC484643
:1003000031462A464346BDE8F09F40EA01039B0779
:1003100003D009E008C9121F08C0042AFAD203E07A
:1003200011F8013B00F8013B521EF9D27047D2B2DE
:1003300001E000F8012B491EFBD270470022F6E7CE
:1003400010B513460A4604461946FFF7F0FF20464B
:1003500010BD000070B5054C054D03E02068204439
:100360008047241DAC42F9D170BD000024C90008AB
:1003700028C9000800F036B8202A04DB203A00FA29
:1003800002F1002070479140C2F1200320FA03F3EC
:10039000194390407047202A04DB203A21FA02F0EA
:1003A0000021704721FA02F3D040C2F120029140AF
:1003B0000843194670470000004870479803002022
:1003C0007047000009207047092070477047704748
:1003D00009207047024801464860001D7047000030
:1003E0009C03002010B500F00EF8016919B100223D
:1003F0000261884701E080688047AFF30080000019
:1004000010B5AFF3008070B5FFF7E4FF0468054650
:10041000A4B9202007F03AFC040011D009490020BB
:100420002C60C4E900010849A1602073206160616B
:100430000649A06109B100F01DF8E061204670BDD9
:10044000AFF300800000000001040008000000007D
:10045000064C074D06E0E06840F0010394E8070011
:1004600098471034AC42F6D3FFF7A4FEE4C8000866
:1004700024C9000810B5882007F008FC002801D026
:100480000021017010BD802902D808B1017809B19E
:1004900000207047012100F8081B704718B100F1D7
:1004A0000802914201D0002070470021017070477E
:1004B00070B58C1810F8015B15F0070301D110F826
:1004C000013B2A1106D110F8012B03E010F8016B53
:1004D00001F8016B5B1EF9D12B0705D40023521ED6
:1004E0000DD401F8013BFAE710F8013BCB1A921C3E
:1004F00003E013F8015B01F8015B521EF9D5A1423C
:10050000D8D3002070BD00BFFEE710B50121C8059B
:1005100002F01AFA00214FF4000002F015FA10BDA3
:1005200001460020034A52680A400AB1012000E057
:100530000020704700B0024070B500210022002367
:100540000024344D2D68344E3540324E35603546EA
:100550002D68066835432F4E356035466D6B25F0A6
:100560000705756335466D6B46683543294E7563DF
:10057000456835B9C5682902058A2A04057D2B0618
:1005800021E04568012D05D1C5682902058A2A04A4
:10059000002318E04568022D05D1C5686901056989
:1005A000EA0200230FE04568032D06D1C568690102
:1005B0000569AA024569EB0305E0C56829010569DB
:1005C0002A0245692B0341EA0205866835431D432B
:1005D000104EB66B35430F4EB5638569F5633546EE
:1005E0002D6C6FF30D05356435462D6CC6693543AA
:1005F000084E3564858C2C0435466D6C05F04045FD
:10060000756435466D6C066A26433543014E756444
:1006100070BD000000B00240FCE0FCFF0348006831
:1006200040F00100014908607047000000B002403E
:1006300010B502F01FFD10BD0246094B9A4201D2CF
:10064000084801E00648103801F000531BB1064B82
:100650000B40C36002E0044B0B4083607047000016
:1006600010640240006002407D0F7D0F704701B5AD
:1006700002E00098401E009000980028F9D108BDC3
:1006800010B54FF4005000F011F838B101F034FF0C
:1006900000F068FC4FF4005000F002F810BD0000BC
:1006A0000149086070470000143C014001460020E9
:1006B000034A12680A400AB1012000E00020704796
:1006C000143C0140002123498279002A3AD00A468D
:1006D000126803689A430B461A600A1D1268036881
:1006E0009A430B1D1A60027911440A6803681A4381
:1006F0000A60184A0832126803689A43154B083397
:100700001A601A1D126803689A43124B0C331A6060
:100710004279102A0ED11A1F126803681A430D4B32
:1007200008331A601A1D126803681A43094B0C3308
:100730001A600DE00749427911440A6803681A43B8
:100740000A6005E0027911440A6803689A430A6066
:1007500070470000003C014000B587B00121202017
:1007600002F0E2F80121080502F01EF90522072136
:100770002E4800F089F9052208212C4800F084F960
:1007800005220921294800F07FF9802000900220ED
:100790008DF805008DF8040000208DF806008DF816
:1007A00007006946214800F027F94FF48070009057
:1007B00069461E4800F020F94FF400700090694629
:1007C0001A4800F019F94020009001208DF804002B
:1007D0006946164800F010F9402014491831088085
:1007E0000020ADF808004FF48270ADF80A00002038
:1007F000ADF80C000220ADF80E000120ADF810009D
:100800004002ADF812000020ADF81400ADF816005B
:100810000720ADF8180002A9054802F0A1FC01214B
:10082000034802F091FC07B000BD00000014024034
:100830000050014010B5024600200023102A03D1C9
:100840004FF02044636E0FE0B2F5807F02D10A4C76
:10085000236809E0B2F5805F03D1074C2034236898
:1008600002E0054CD434236803EA01048C4201D031
:10087000002000E0012010BD840000A00021D0E98C
:1008800000231A4383685B1E42EA4312C36842EAAC
:100890004321014A11607047500100A070B5002249
:1008A0000021002300240568AD00A5F1C045D5F85E
:1008B00040216FF30E02D0E901563543C668354337
:1008C000066935434669354386693543C66935430C
:1008D000066A3543466A35432A43056835B90568D3
:1008E000AD00A5F1C045C5F8402111E03B4D2B6896
:1008F0006FF30E03D0E907563543466A35432B4361
:10090000364D2B600568AD00A5F1C045C5F8402106
:10091000056875BB314D0835066855F8261001F09D
:100920007041856A2D686D1E866A7668761E45EA76
:100930000616856AAD686D1E46EA0526856AED686D
:100940006D1E46EA0536856A2D8A6D1E46EA054605
:10095000856AAD8A6D1E46EA0556856A2D7E6D1E36
:1009600046EA056529431D4D0835066845F82610F9
:1009700032E0FFE7194D0835066855F8261001F0FA
:100980007041856A2D686D1E866A7668761E45EA16
:100990000616856AAD686D1E46EA0526856A2D8AAB
:1009A0006D1E46EA054529430C4D08352C6804F0B8
:1009B0007044856AED686D1E2E03856AAD8A6D1ED2
:1009C00046EA05552C434FF02045C5F84841034DF4
:1009D0000835066845F8261070BD0000400100A0EB
:1009E0000449096841EA40014FF02042C2F854111D
:1009F00070470000540100A0F0B50A460021002312
:100A0000002400BF3DE0012505FA01F3156805EA61
:100A100003049C4234D105684F000326BE40B54311
:100A2000056015794E00B5400668354305601579B7
:100A3000012D02D01579022D16D185684F000326AD
:100A4000BE40B543856055794E00B5408668354354
:100A50008560456801268E40B543456045689679B6
:100A60008E40B6B235434560C5684F000326BE4090
:100A7000B543C560D5794E00B540C6683543C560FD
:100A8000491C1029BFD3F0BDF0B5002300244D0749
:100A9000ED0E02FA05F3CE1000F1200555F82650B0
:100AA0004E07F70E0F26BE40B543CF1000F12006CB
:100AB00046F82750CE1000F1200555F8265045EA9B
:100AC0000304CE1000F1200545F82640F0BD418317
:100AD00070470183704742694A40426170470AB1DA
:100AE000018300E0418370472DE9FC410020009024
:100AF000019000244FF448754FF4F07600278020D1
:100B00008DF8000048208DF8010006226946BA20C1
:100B100000F04EF80446002C02DA0020BDE8FC810B
:100B20009DF802009DF8031000EB012085B29DF8AE
:100B300004009DF8051000EB012086B280208DF89E
:100B400000004D208DF8010003226946BA2000F014
:100B50002FF80446002C01DA0020DFE79DF80200A0
:100B600000F003073B463246294602A006F0DCFDB2
:100B70000120D3E73C3C2D4754502D494E464F2D84
:100B80003E3E20585F4D4158203D2025642C205981
:100B90005F4D4158203D2025642C20545249474741
:100BA0004552203D203078253032780A0000000080
:100BB0002DE9F04186B005460C4616464FF0FF374A
:100BC0004FF0000800BF00BF0020ADF802008DF814
:100BD00000500220ADF8040002940121ADF80E107F
:100BE0008DF80C50B01E81B2ADF81010A01C05900D
:100BF00009E00221684600F0A5FD0746022F00D15A
:100C000004E008F10108B8F1050FF2DB00BFB8F10C
:100C1000050F08DB6078237840EA0321B21E3B46CB
:100C2000034806F081FD384606B0BDE8F0810000BB
:100C30001CC7000838B50E480068009000256C1EDF
:100C400000BF00BF0DE003226946BA20FFF7B0FFE6
:100C500044B2002C01DD204638BD294605A006F02F
:100C600063FD2846691CCDB20528ECDB2046F3E77E
:100C7000789A00083C3C2D4754502D4552524F5213
:100C80002D3E3E20475450206932632074657374B2
:100C9000206661696C65642074696D652025642E29
:100CA0000A0000002DE9FE4380460C4615464FF031
:100CB000FF36002700BF00BF0020ADF802008DF80E
:100CC0000080A8B2ADF80400029408E00121684653
:100CD00000F038FD0646012E00D102E07F1C052FF2
:100CE000F4DB00BF052F08DB6078237840EA03219E
:100CF000AA1E3346024806F017FD3046BDE8FE83C3
:100D00006CC700082DE9F0474FF0FF3500264FF083
:100D100000094FF0000AB82400BF00BF00F008FD32
:100D2000FFF788FF0546002D05DA28A006F0FCFC39
:100D30002846BDE8F08700F069F82F48007818B918
:100D40002E4F4FF0BA0802E02D4F4FF0BA08F021B5
:100D50002C48FFF7F3FA424639462A48FFF7D5FAFE
:100D60004FF00009022606E02648801E805D4844B8
:100D700000F0FF09761CA01C8642F5DB6FEA090033
:100D8000401CC1B21F4A921EA01C11540121E01C3C
:100D900011544FF0000A0BE0221D1A49891EBA2097
:100DA000FFF780FF0546002D00DD04E00AF1010A8F
:100DB000BAF1050FF0DB00BF1348FFF758FC00F055
:100DC000BFFAFFF791FE0020B3E700003C3C2D473F
:100DD00054502D4552524F522D3E3E204932432011
:100DE000636F6D6D756E69636174696F6E204552D6
:100DF000524F52210A000000A20200203C000020B5
:100E0000F6000020B2010020FFFF0F0010B586B0F1
:100E10004FF0FF342E4903C9CDE9040100BF00BFE4
:100E2000082204A9BA20FFF7C3FE0446002C05DA05
:100E300028A006F079FC204606B010BD9DF81500EC
:100E4000F0B99DF816009DF81710CDE900109DF837
:100E500014309DF813209DF8121029A006F064FCB0
:100E60009DF81200392830D19DF8130031282CD17B
:100E70009DF81400312828D101202D49087024E064
:100E80009DF816009DF817109DF81520CDE900215A
:100E900002909DF814309DF813209DF8121025A0A3
:100EA00006F042FC9DF8120039280ED19DF813007F
:100EB00031280AD19DF81400352806D19DF8150077
:100EC000372802D100201A4908702046B4E70000F4
:100ED000609A00083C3C2D4754502D4552524F52C9
:100EE0002D3E3E2047545020726561642076657225
:100EF00073696F6E206661696C65640A00000000AA
:100F00003C3C2D4754502D494E464F2D3E3E2049E6
:100F100043312056657273696F6E3A2025632563ED
:100F200025635F25303278253032780A00000000D2
:100F3000A20200203C3C2D4754502D494E464F2DD7
:100F40003E3E204943322056657273696F6E3A20E7
:100F500025632563256325635F253032782530328C
:100F6000780A000010B500BF00BF00F067F810BDA0
:100F70002DE9F04104460D4616461F46B3B2AAB20B
:100F8000DFF82CC03CF814C01FFA8CF1DFF824C045
:100F90003CF814C01FFA8CF000F032F828B2054972
:100FA00021F8140030B2024921F81400BDE8F081A4
:100FB000AE020020A402002010B50446084A32F90F
:100FC0001410084A32F9140000F032F84FF0FF30E4
:100FD000044921F81400024921F8140010BD000052
:100FE000AE020020A4020020034A12880280034AB5
:100FF00012880A8070470000E2020020E40200200C
:1010000030B5064C2080064C2180064C2280064CD0
:1010100023800024054D2C7030BD0000DE0200202E
:10102000E0020020E2020020E4020020E6020020AC
:101030000122014B1A707047E60200202DE9F04FA3
:1010400099B05FA00068189028210EA8FFF776F9E4
:101050005C4800680D900025A8464FF0BA0B0026AA
:1010600000200C900B900A90814600244FF0FF3A2C
:1010700000BF00BF0C220DA95846FFF799FD82461C
:10108000BAF1000F06DA51464FA006F04DFB19B039
:10109000BDE8F08F9DF83680B8F1000F00D1F6E77B
:1010A00008F0800000B97CE008F00F05052D00DD98
:1010B00077E0012D17DD242101A8FFF73FF9414812
:1010C000001D00680090681EC000821C69465846DA
:1010D000FFF76EFD8246681EC2000DF1020110A8E6
:1010E000FFF713F900BF44480088A84221DD00241F
:1010F0001BE0002715E0032000EBC7000DA94618F0
:10110000307800F00F093D48005D484500D10AE005
:10111000681EB84203DC3949085DFFF74DFF781CB3
:10112000C7B2AF42E7DB00BF641C3348008884428B
:10113000DFDB2DB3002420E0032000EBC4000DA969
:101140004618307800F00F092C4800F804907078A9
:10115000B17840EA01200C90F078317940EA012022
:101160000B907079B17940EA01200A904846DDE998
:101170000A320C99FFF7FCFE641CAC42DCDB0DE08C
:101180001D48008850B1002404E01C49085DFFF7A9
:1011900013FF641C184800888442F6DB164805805B
:1011A00000BF032218A95846FFF77CFD8246BAF11A
:1011B000000F02DA12A006F0B7FA00BF67E70000DE
:1011C000814E0000049A00083C3C2D4754502D45A8
:1011D00052524F522D3E3E20493243207472616E6E
:1011E00073666572206572726F722E206572726E00
:1011F0006F3A25640A200A00B8020020BA020020D3
:101200003C3C2D4754502D494E464F2D3E3E2049E3
:10121000324320777269746520656E645F636D6424
:10122000206572726F72210A0000000000BFFEE7A5
:1012300021B1028842F48062028004E002884FF605
:10124000FF331A400280704770B502460024002523
:1012500000230020958A138B1B0445EA030626F021
:101260007F4404EA01068E4201D1012000E0002003
:1012700070BD21B1028842F00102028004E00288C0
:101280004FF6FE731A400280704700001CB5012122
:10129000880501F079FB0121882001F045FB01213F
:1012A000880301F081FB042211462348FFF7ECFB81
:1012B000042205212048FFF7E7FB102000900220C0
:1012C0008DF804008DF8050001208DF8060000203F
:1012D0008DF8070069461848FFF78EFB2020009024
:1012E00069461548FFF788FB4FF400600090012025
:1012F0008DF8040002208DF8050000208DF806000E
:1013000002208DF8070069460C48FFF775FB4FF483
:101310000050009001208DF8040002208DF8050097
:1013200000208DF8060002208DF80700694603486A
:10133000FFF762FB1CBD0000001C0240000C0240D5
:1013400000B585B04FF40050009000208DF80400E7
:1013500002208DF8050000208DF807006946154829
:10136000FFF74AFB0D21032001F018FF4FF4005056
:10137000039000208DF8100008208DF81100012046
:101380008DF8120003A8FFF79DF94FF4407001F0AB
:10139000A1FA28208DF8080000208DF809008DF8AA
:1013A0000A0001208DF80B0002A801F057FA05B0E1
:1013B00000BD0000000C024021B1028842F480729E
:1013C000028004E002884FF6FF631A4002807047F3
:1013D00021B1028842F40072028004E002884FF6D4
:1013E000FF531A40028070470CB5024600200023CC
:1013F0000193009300920B0F019321F07F41019B19
:101400001BB1009B1433009303E0090C009B1833BD
:101410000093009B1B680B400BB1012000E00020F3
:101420000CBD00002DE9FF4704460D460026B146DD
:101430000427DFF8CC80A6884FF6C07006406846C7
:1014400001F0C2FADDF808802E48B8FBF0F01FFA70
:1014500080F946EA0906A68020884FF6FE7108400A
:10146000208000262849286888420CD82868400037
:10147000B8FBF0F087B2042F00DA04273E4309F1ED
:101480000100208427E0E8884BF6FF71884206D1EE
:10149000286800EB4000B8FBF0F087B209E028684C
:1014A00000EBC00101EB0010B8FBF0F087B247F48D
:1014B0008047C7F30B0008B947F0010747F4004025
:1014C00006434FF4967009FB00F04FF47A7190FBDD
:1014D000F1F0401C2084A683208840F00100208089
:1014E00026884FF6F5300640A888698908430643E8
:1014F0002680A889298908432081BDE8FF8700004C
:1015000000127A0040420F00A08601001FB50020A3
:10151000ADF804004BF6FF70ADF806000A20ADF8F8
:1015200008004FF48060ADF80A000001ADF80C002F
:101530000748009069460748FFF774FF01210548F6
:10154000FFF797FE01210348FFF772FE1FBD000061
:10155000801A06000058004070B506460D46144635
:101560004FF420403B49086009E03A490868411EB1
:10157000384A116018B9002000F0BAF870BD4FF475
:1015800000313548FFF730FF0028EED10121324805
:10159000FFF712FF4FF480502E49086009E02D49F3
:1015A0000868411E2B4A116018B9012000F0A0F80C
:1015B000E4E72A492848FFF747FE0028EFD0012238
:1015C0003146254800F08AF84FF4805021490860E0
:1015D00009E020490868411E1E4A116018B902201E
:1015E00000F086F8CAE71D49491C1B48FFF72CFE8E
:1015F0000028EED026E0012C07D100211648FFF785
:1016000017FE01211448FFF7E3FE4FF42040114973
:10161000086009E00F490868411E0E4A116018B9B8
:10162000032000F065F8A9E70C493F310A48FFF7AD
:101630000BFE0028EED0084800F012F828706D1C50
:10164000601E84B2002CD6D101210348FFF7F0FDC3
:10165000002093E7C0020020005800400100030072
:101660000146088AC0B270471CB54FF40050009084
:1016700001208DF8040002208DF8050000208DF86F
:10168000060002208DF8070069461248FFF7B4F9FA
:101690004FF400610F48FFF71AFA0F48FEF7E7FF13
:1016A0004FF400610B48FFF714FA0B48FEF7DFFF19
:1016B0004FF40050009000208DF8040002208DF8B7
:1016C000050000208DF8070069460248FFF794F9ED
:1016D0001CBD0000000C0240FFFF0F0012B141F0E2
:1016E000010101E001F0FE010182704701827047B3
:1016F00010B50446214602A006F016F8FF2010BDE2
:101700003C3C2D4754502D4552524F522D3E3E20C9
:1017100049324320B5C8B4FDB3ACCAB12165727279
:101720006F72436F6465203D2025640A000000004D
:1017300010B5FFF7ABFDFFF7E9FEFFF795FFFFF7E9
:10174000FFFD10BD2DE9F04105460F46002400269F
:1017500000BF00BF00BF2BE004EB440005EB80009E
:10176000807800F0010088B104EB440305EB8303AB
:101770009A8804EB440305EB8303996804EB440364
:1017800015F82300FFF7E8FE064610E004EB4403DB
:1017900005EB83031A7904EB440305EB8303996893
:1017A00004EB440315F8230000F00CF80646641C13
:1017B0000EB9BC42D0D116B13046BDE8F08120460A
:1017C000FBE7000070B505460C4616464FF4204076
:1017D0003649086009E035490868411E334A1160FE
:1017E00018B90420FFF784FF70BD4FF40031304872
:1017F000FFF7FAFD0028EED101212D48FFF7DCFDAF
:101800004FF480502949086009E028490868411EC2
:10181000264A116018B90520FFF76AFFE4E7254959
:101820002348FFF711FD0028EFD000222946204869
:10183000FFF754FF4FF480501C49086009E01B4932
:101840000868411E194A116018B90620FFF750FFB9
:10185000CAE719491648FFF7F7FC0028EFD01AE04D
:1018600021781348FFF742FF641C4FF480500F4962
:10187000086009E00D490868411E0C4A116018B95A
:101880000720FFF735FFAFE70B49891C0848FFF732
:10189000DBFC0028EED03000A6F10101CEB2DFD192
:1018A00001210348FFF794FD00209DE7C0020020BE
:1018B00000580040010003008200070010B500F04E
:1018C00007FD00F045FD012000F03EFE002000F085
:1018D000A3FD002000F01AF8FF2000F0B9FD012060
:1018E00000F09AFD002000F011F8FF2000F0B0FD9C
:1018F0004FF6FF7000F0A6FD4FF4F0734FF44872FE
:101900000021084600F072F910BD0000F0B58BB060
:10191000044600250026002704F47840C51204F090
:101920001F0704F4FC604611FEF7EFFD4FF4403052
:101930000190022002900496039705950F200690CF
:101940000D4800680790002008904FF4F07009904F
:101950004FF448700A9001A8FEF7EEFDFEF75EFE18
:1019600000BF0220FEF7DCFD0028FAD00348008803
:1019700000F068FD0BB0F0BD340000203000002006
:1019800070B505460E461446A4F12000C4B20748BF
:101990000068016805480068C088604301EB4002A8
:1019A0003146284600F004F870BD00002C000020ED
:1019B0002DE9F04104460D46134600BF002200BF4A
:1019C00000204FF4487767437E00284400214DE013
:1019D00000223FE0294F3F68BF884FF00C0C97FB77
:1019E000FCF74FEAC70C802707FA0CF7174133F8CA
:1019F00011C007EA0C0727B9204F3F68BF880C2F9A
:101A00000DDD33F811704FF0010C0CFA02FC07EAFF
:101A10000C078FB9194F3F68BF880C2F0CDD184F8A
:101A20003F88DFF860C0DCF800C04FF0020808FB18
:101A300000CC2CF806700BE0134F3F88DFF844C051
:101A4000DCF800C04FF0020808FB00CC2CF8067050
:101A5000401C521C094F3F68BF889742BAD8074FB5
:101A60003F68BF88C7F548773844491C034F3F6833
:101A7000FF888F42ACD8BDE8F08100002C00002028
:101A80003200002034000020300000202DE9F04317
:101A900003460C461546684200216F00C7F102025A
:101AA00000BF2B4F3F88A3EB000C04EB01084FF461
:101AB000487909FB08CCDFF89C80D8F8008028F82A
:101AC0001C70234F3F8803EB000C04EB010809FB5B
:101AD00008CCDFF88080D8F8008028F81C701C4FF4
:101AE0003F8803EB000CA4EB010809FB08CCDFF8EE
:101AF0006480D8F8008028F81C70154F3F88A3EB4D
:101B0000000CA4EB010809FB08CCDFF84880D8F8EA
:101B1000008028F81C7016468E420BDC4F1C39469C
:101B20004FF0010C0CEB47073A44C84202D1864201
:101B300000DC0026864206DD471C38464FF0010CCB
:101B40000CEB47073A440028ABDDBDE8F08300000A
:101B500030000020340000202DE9F04706460F46F3
:101B600090460320A0EB48090024454634E08DB19F
:101B70006B041A0C7B1B99B2331B98B2012300F043
:101B800087F86B041A0C7B1B99B2331998B20123A6
:101B900000F07EF88CB163041A0C3B1B99B2731BE6
:101BA00098B2012300F074F863041A0C3B1B99B23D
:101BB000731998B2012300F06BF8B9F1000F04DA41
:101BC000062000EB8400814405E0601B0A2101EB44
:101BD000800081446D1E641CAC42C8D9424639461F
:101BE0003046FFF753FFBDE8F08700002DE9F04FC6
:101BF0008BB005460E4614461F464FF00008C146FE
:101C0000C246C3462048008800F478404FEAE029E5
:101C10001D48007800F01F0B1B48008800F4FC6092
:101C20004FEA601A4FF4487000FB065017490968E4
:101C3000022202FB0018FEF768FC4FF440300190CE
:101C400002200290CDF810A0CDF80CB0CDF8149081
:101C50000F200690CDF81C80C4F5487008900997B5
:101C60000A9401A8FEF768FCFEF7D8FC00BF02202A
:101C7000FEF756FC0028FAD00348008800F0E2FB8B
:101C80000BB0BDE8F08F00003000002034000020D1
:101C90002DE9F04F8BB005460E4614461F464FF017
:101CA0000008C146C246C3464FF4487000FB0650C8
:101CB00020490968022202FB00181F48008800F42E
:101CC00078404FEAE0291C48007800F01F0B1A48C2
:101CD000008800F4FC604FEA601AFEF716FC4FF42F
:101CE0004030019002200290CDF810A0CDF80CB049
:101CF000CDF814900F200690CDF81C802FB900204D
:101D00000890012009900A9405E040F21F300890E5
:101D1000099401200A9001A8FEF70EFCFEF77EFC54
:101D200000BF0220FEF7FCFB0028FAD00BB0BDE894
:101D3000F08F000034000020300000202DE9F04139
:101D400005460E4617461C4600233A4631462846AD
:101D5000FFF79EFF301981B200233A462846FFF76D
:101D600097FF0123224631462846FFF791FFE919E4
:101D700088B2012322463146FFF78AFFBDE8F08191
:101D80002DE9F04F89B005460E4691469A46002748
:101D9000B8460020089007900690059004900390A4
:101DA00000248346029001900090A9EB05000028D2
:101DB00002DDA9EB050001E0A5EB090007B2AAEBE3
:101DC0000600002802DDAAEB060001E0A6EB0A00EF
:101DD0000FFA80F828B2089030B20790A94503DBCB
:101DE00001200690059003E04FF0FF30069005902B
:101DF000B24503DB01200490039003E04FF0FF3075
:101E00000490039047450DDB0020069003903C466C
:101E1000384607EBD07149100FFA81FBCDF80880E6
:101E200001970CE00020059004904446404608EBE2
:101E3000D07149100FFA81FB0297CDF80480002081
:101E4000009025E0DDE9071000F04EFD02985844AF
:101E50000FFA80FBA3450DDBABEB04000FFA80FB10
:101E600006990898084400B2089004990798084415
:101E700000B2079005990898084400B208900399A9
:101E80000798084400B207900098401C00B20090E8
:101E9000DDE900018842D5DD09B0BDE8F08F2DE90C
:101EA000FF4F89B0054689461E46DDF858A0002739
:101EB000B846BB4600200890079006900590049015
:101EC00000240390029001900090A9EB05000028E7
:101ED00002DDA9EB050001E0A5EB090007B2AAEBC2
:101EE0000600002802DDAAEB060001E0A6EB0A00CE
:101EF0000FFA80F80FFA85FB30B20890A94503DB92
:101F000001200790069003E04FF0FF300790069005
:101F1000B24503DB01200590049003E04FF0FF3051
:101F20000590049047450DDB0020079004903C4647
:101F3000384607EBD071491009B20391CDF80880FB
:101F400001970CE00020069005904446404608EBBF
:101F5000D071491009B203910297CDF80480002096
:101F6000009029E0089A91B21FFA8BF0179B0B9A08
:101F7000FFF706FFDDE90210084400B20390039862
:101F8000A0420CDB0398001B00B203900798584452
:101F90000FFA80FB05990898084400B2089006984B
:101FA00058440FFA80FB04990898084400B208903E
:101FB0000098401C00B20090DDE900018842D1DDAC
:101FC0000DB0BDE8F08F00001CB5012140F2FF10FC
:101FD00000F0AAFC0420009002208DF805008DF886
:101FE000040000208DF806008DF807006946AF4810
:101FF000FEF702FD0E220221AC48FEF745FD082047
:1020000000906946A948FEF7F7FC0E220321A74875
:10201000FEF73AFD4FF4807000906946A348FEF742
:10202000EBFC0E220821A148FEF72EFD01200090B6
:1020300069469F48FEF7E0FC092200219C48FEF714
:1020400023FD4FF40060009069469A48FEF7D4FCE7
:102050000E220B219748FEF717FD4FF48050009099
:1020600069469448FEF7C8FC0E220C219148FEF701
:102070000BFD0220009069468D48FEF7BDFC092249
:1020800001218B48FEF700FD4020009069468A48F8
:10209000FEF7B2FC0E2206218748FEF7F5FC202051
:1020A000009069468548FEF7A7FC0E22052183486B
:1020B000FEF7EAFC4020009069468048FEF79CFC51
:1020C0000E2206217D48FEF7DFFC4FF40050009001
:1020D00069467648FEF790FC0E220D217348FEF704
:1020E000D3FC4FF48060009069467348FEF784FC8F
:1020F00009220A217048FEF7C7FC4FF40040009007
:1021000069466A48FEF778FC0E220F216748FEF701
:10211000BBFC0120009069466948FEF76DFC0E2269
:1021200000216748FEF7B0FC8020009069466548B2
:10213000FEF762FC0E2207216248FEF7A5FC042090
:10214000009069465E48FEF757FC0E2202215C486B
:10215000FEF79AFC1020009069465848FEF74CFCA8
:102160000E2204215548FEF78FFC4FF4805000905A
:1021700069465148FEF740FC0E220C214E48FEF7FE
:1021800083FC4020009069464F48FEF735FC0E2244
:1021900006214D48FEF778FC4FF400600090694638
:1021A0004548FEF729FC0E220B214348FEF76CFC44
:1021B0001020009069464248FEF71EFC0E220421C2
:1021C0003F48FEF761FC0820009069463948FEF759
:1021D00013FC0E2203213748FEF756FC4FF48070A3
:1021E000009069463248FEF707FC0E22082130486D
:1021F000FEF74AFC4FF40070009069462C48FEF749
:10220000FBFB0E2209212A48FEF73EFC80200090AD
:1022100069462948FEF7F0FB0E2207212648FEF703
:1022200033FC4FF48060009069462548FEF7E4FBDC
:102230000E220A212248FEF727FC4FF4007000907E
:1022400069461F48FEF7D8FB0E2209211C48FEF7FD
:102250001BFC4FF48060009069461C48FEF7CCFBE5
:102260000E220A211948FEF70FFC102000900220D0
:102270008DF8050001208DF8040000208DF806007F
:1022800001208DF8070069460F48FEF7B5FB802056
:10229000009069460C48FEF7AFFB10210A48FEF794
:1022A00018FC80210848FEF714FC1CBD001C0240ED
:1022B00000040240000002400018024000100240EA
:1022C0000020024000080240000C024000140240BE
:1022D00000B58FB00121880600F066FB0121C8051A
:1022E00000F022FBFFF770FE00F056FC002000908B
:1022F0000190029003900C900D900E900522072102
:10230000FA2000F007FC002000F0F2FB012000F0B2
:10231000FBFB00BF3D2000F0CBFB0028FAD00020E3
:10232000049005902E2006901720079040F24E3022
:10233000089040F2F71009904FF459700A9040F25B
:102340000D200B90684600F023F90FB000BD00008F
:1023500000B591B02F20019040F24E30029018202D
:10236000039040F2F710049002200590FF200690A1
:1023700000200790089009900A904FF480600B901D
:1023800005200C9040F243600E90C01E0F904FF459
:10239000F070109015480D9001A9154800F0C9F98A
:1023A0000220059011480D904FF4C0600B9007205B
:1023B0000C9001A90E48803000F0BBF9012000F01C
:1023C00043FA01210A4800F0A9F9012108488030A8
:1023D00000F0A4F9012000F037FA064800F016F8E2
:1023E000012000F0C3F811B000BD0000000000D0D3
:1023F00084680140FC020020024A1080024A1180D9
:1024000070470000300000203200002001490860C1
:10241000704700002C00002030B90749074A1160BE
:102420000021074A116005E00349044A11600121B7
:10243000034A116070470000000000D03400002003
:10244000380000200149088070470000300000205B
:1024500010B504460848006820B92146074800F036
:102460005BF904E021460548803000F055F9012071
:1024700000F0EAF910BD0000380000208468014037
:102480001CB50121802000F04FFA4FF480500090DD
:1024900001208DF8040002208DF8050000208DF841
:1024A000070069460448FEF7A7FA01221103024813
:1024B000FEF715FB1CBD0000001C02401CB50121ED
:1024C000802000F031FA4FF40060009001208DF878
:1024D000040002208DF8050000208DF807006946F1
:1024E0000448FEF789FA0122D1020248FEF7F7FA02
:1024F0001CBD0000001C024010B54FF400610248F2
:10250000FEF7E9FA10BD0000001C02401CB50121D5
:10251000802000F009FA4FF48060009001208DF8CF
:10252000040002208DF8050000208DF807006946A0
:102530000448FEF761FA012291020248FEF7CFFA41
:102540001CBD0000001C024030B10749096841F081
:102550000101054A116005E00349096821F0010104
:10256000014A1160704700001868014030B1074906
:10257000096841F48031054A116005E003490968A2
:1025800021F48031014A1160704700001868014051
:10259000F0B50021002200230024002500265B4F17
:1025A0003F68DFF86CC107EA0C07DFF860C1CCF8C0
:1025B0000070078A390467463F68D0F814C04CEAB7
:1025C000010C47EA0C07DFF844C1CCF800700CF1AD
:1025D00004073F68DFF838C107EA0C07DFF82CC1B1
:1025E0000CF1040CCCF80070078B3A0467463F6886
:1025F000D0F81CC04CEA020C47EA0C07DFF80CC10B
:102600000CF1040CCCF800700CF104073F68DFF803
:1026100000C107EA0C07DFF8F4C00CF1080CCCF895
:102620000070078C3B0467463F68D0F824C04CEA32
:10263000030C47EA0C07DFF8D4C00CF1080CCCF807
:1026400000700CF104073F68DFF8C4C007EA0C070C
:10265000DFF8B8C00CF10C0CCCF80070078D3C040E
:102660006746D7F800C0C76A27434CEA070C274FD4
:102670000C37C7F800C03F1D3F68DFF898C007EA75
:102680000C07DFF888C00CF1100CCCF80070D0E912
:10269000007C47EA0C07D0F808C047EA0C07D0F8DE
:1026A0000CC047EA0C07DFF864C00CF1100CDCF832
:1026B00000C047EA0C07DFF854C00CF1100CCCF84E
:1026C0000070476B3D02078E3E04104F24373F6871
:1026D00007F07F47DFF834C00CF1240CCCF8007011
:1026E00046EA0507D0F838C047EA0C07DFF81CC0F7
:1026F0000CF1240CDCF800C047EA0C07DFF80CC032
:102700000CF1240CCCF80070F0BD0000086801400A
:1027100000F800F08F88FE0F4161704721B1026818
:1027200042F00102026003E0026822F0010202604E
:1027300070472DE9F04100240025002600220027E3
:102740000023B1F804C04FEA0C44D0F804C00CF4E4
:10275000704CC0F804C0D1F800C04CEA040CC0F8BA
:1027600004C0B1F80CC04FEA0C45D0F808C00CF416
:10277000704CC0F808C0D1F808C04CEA050CC0F88D
:1027800008C0D0F810C02CF0070CC0F810C0D1F869
:1027900010C0C0F810C0D1F81CC04FEA0C26B1F828
:1027A00020C04FEA0C4291F824C04FEA0C67D0F8E1
:1027B00018C09C46C0F818C0D1F818C04CEA060CE6
:1027C0004CEA020C4CEA070CC0F818C0D0F814C050
:1027D0002CF0FF0CC0F814C0D1F814C0C0F814C01D
:1027E000D0F81CC040F207782CEA080CC0F81CC0D6
:1027F000D1E90AC84CEA080CC0F81CC0D0F828C0BF
:102800009C46C0F828C0D1F830C0C0F828C0B1F844
:1028100038C04FEA0C43D0F82CC00CF0E02CC0F8C4
:102820002CC0D1F834C04CEA030CC0F82CC0D0F84E
:1028300030C06FF30A0CC0F830C0D1F83CC0C0F80B
:1028400030C0BDE8F0810000014908607047000019
:102850002468014000BFFEE77047000070B500210A
:1028600000230F22C4781CB3174C246804F4E064DE
:10287000C4F5E064C4F30721C1F10404E3B20A41E2
:1028800044789C40E1B28478144021430C07210E27
:102890000E4C05786155047804F01F050124AC4006
:1028A00005786D11AD0005F1E025C5F8004109E09E
:1028B000047804F01F050124AC40054D067876111C
:1028C00045F8264070BD00000CED00E000E400E09B
:1028D00080E100E002490143024A116070470000B4
:1028E0000000FA050CED00E030B5002807DBB0F57C
:1028F000487F04DC002902DBB1F5F07F00DD30BD4C
:1029000000224FF4487303FB0103054C24680225A1
:1029100005FB0342034B1B88138000BFEFE7000059
:10292000340000203000002029B1064A126802431A
:10293000044B1A6004E0034A12688243014B1A6098
:10294000704700003038024029B1064A126802433D
:10295000044B1A6004E0034A12688243014B1A6078
:10296000704700001038024029B1064A126802433D
:10297000044B1A6004E0034A12688243014B1A6058
:10298000704700003838024029B1064A12680243F5
:10299000044B1A6004E0034A12688243014B1A6038
:1029A000704700004038024029B1064A12680243CD
:1029B000044B1A6004E0034A12688243014B1A6018
:1029C0007047000044380240F0B500210022002486
:1029D000022500260223324F3F6807F00C0121B187
:1029E000042905D0082937D105E02E4F076036E0CD
:1029F0002D4F076033E02A4F3F1F3F68C7F38056D3
:102A0000274F3F1F3F6807F03F036EB1264FB7FBCC
:102A1000F3F7DFF88CC0ACF1040CDCF800C0CCF3A9
:102A2000881C07FB0CF40CE01E4FB7FBF3F7DFF834
:102A300070C0ACF1040CDCF800C0CCF3881C07FBC0
:102A40000CF4174F3F1F3F68C7F301477F1C7D0001
:102A5000B4FBF5F7076002E0124F076000BF00BF4C
:102A60000F4F3F6807F0F0010909104F7A5C0768C3
:102A7000D74047600A4F3F6807F4E051890A0B4F7F
:102A80007A5C4768D7408760054F3F6807F460412C
:102A9000490B064F7A5C4768D740C760F0BD00001D
:102AA000083802400024F40040787D011400002022
:102AB00010B501460022002300204A11012A02D14C
:102AC0000A4C236808E0022A03D1084C70342368BA
:102AD00002E0064C7434236801F01F020124944084
:102AE0001C400CB1012000E0002010BD0038024065
:102AF00001460020034A106820F44030084310606B
:102B0000704700008C380240014908677047000098
:102B10000000474210B5830143EA016343EA0273B0
:102B2000014C236010BD00008838024030B50146DA
:102B30000020C1F3C442C1F38523C1F3C404D5020C
:102B400005EB43152544A8B230BD000001490860DB
:102B500070470000382C014001460020034A1268EB
:102B60000A400AB1012000E000207047342C0140E7
:102B700010B500F093FA10BD29B1064A126802435D
:102B8000044B1A6004E0034A12688243014B1A6046
:102B9000704700003C2C014000B593B000F02EF8C7
:102BA00001210846FFF7E0FE022001900720029075
:102BB00004200390072004900220059006900790BF
:102BC000012008900020099004200A9010200B900A
:102BD00040200C9080000D9000200E904FF400607B
:102BE0000F90400010900020119001A8129008A8AA
:102BF000FDF754FE00F0D4F913B000BD1CB501215F
:102C0000FC20FFF791FE02208DF804008DF80500EE
:102C100000208DF806008DF807000120009069461D
:102C2000D948FDF7E9FE0C220021D748FDF72CFF1B
:102C3000022000906946D448FDF7DEFE0C220121F7
:102C4000D148FDF721FF042000906946CE48FDF7EA
:102C5000D3FE0C220221CC48FDF716FF082000907D
:102C60006946C948FDF7C8FE0C220321C648FDF796
:102C70000BFF102000906946C348FDF7BDFE0C22F3
:102C80000421C148FDF700FF202000906946BE489E
:102C9000FDF7B2FE0C220521BB48FDF7F5FE4FF40F
:102CA000805000906946B848FDF7A6FE0C221146F8
:102CB000B548FDF7E9FE4FF4005000906946B24870
:102CC000FDF79AFE0C220D21AF48FDF7DDFE4FF413
:102CD000804000906946AC48FDF78EFE0C220E2124
:102CE000A948FDF7D1FE4FF4004000906946A64880
:102CF000FDF782FE0C220F21A348FDF7C5FE01203F
:102D000000906946A148FDF777FE0C2200219F48FC
:102D1000FDF7BAFE0220009069469C48FDF76CFE64
:102D20000C2201219948FDF7AFFE10200090694662
:102D30009648FDF761FE0C2204219448FDF7A4FE9D
:102D40002020009069469148FDF756FE0C2205218F
:102D50008E48FDF799FE4FF48040009069468C48FC
:102D6000FDF74AFE0C220E218948FDF78DFE4FF437
:102D70000040009069468648FDF73EFE0C220F2178
:102D80008348FDF781FE0120009069468048FDF7E9
:102D900033FE0C2200217E48FDF776FE02200090D3
:102DA00069467B48FDF728FE0C2201217848FDF793
:102DB0006BFE8020009069467648FDF71DFE0C22D0
:102DC00007217448FDF760FE4FF48070009069465B
:102DD0007048FDF711FE0C2208216E48FDF754FEE5
:102DE0004FF40070009069466A48FDF705FE0C221A
:102DF00009216848FDF748FE4FF48060009069465D
:102E00006448FDF7F9FD0C220A216248FDF73CFEFB
:102E10004FF40060009069465E48FDF7EDFD0C221E
:102E20000B215C48FDF730FE4FF48050009069465E
:102E30005848FDF7E1FD0C2211465648FDF724FEE7
:102E40004FF40050009069465248FDF7D5FD0C2222
:102E50000D215048FDF718FE4FF480400090694660
:102E60004C48FDF7C9FD0C220E214A48FDF70CFE27
:102E70004FF40040009069464648FDF7BDFD0C2226
:102E80000F214448FDF700FE4FF480700090694622
:102E90003F48FDF7B1FD0C2208213D48FDF7F4FD48
:102EA0004FF40070009069463948FDF7A5FD0C22EB
:102EB00009213748FDF7E8FD4FF48060009069462E
:102EC0003348FDF799FD0C220A213148FDF7DCFD5E
:102ED0004020009069463048FDF78EFD0C22062107
:102EE0002D48FDF7D1FD0120009069462B48FDF7E4
:102EF00083FD0C2200212948FDF7C6FD4FF4006038
:102F0000009069462048FDF777FD0C220B211E48F2
:102F1000FDF7BAFD4FF40040009069461B48FDF7ED
:102F20006BFD0C220F211948FDF7AEFD4FF48070A8
:102F3000009069461548FDF75FFD0C2208211348F3
:102F4000FDF7A2FD8020009069461348FDF754FD6F
:102F50000C2207211048FDF797FD022000906946DA
:102F60000C48FDF749FD0C2201210A48FDF78CFDB4
:102F70000120009069460748FDF73EFD0C22002124
:102F80000448FDF781FD1CBD0014024000180240FA
:102F9000000C024000100240001C024000080240E9
:102FA0001FB500240120009008200190002002900D
:102FB000039000BF20210120FDF73CFC0028F9D13F
:102FC0006846FDF75BFC0A2000F042F80220009002
:102FD0000820019000200290039000BF20210120D2
:102FE000FDF728FC0028F9D16846FDF747FC0320CF
:102FF000009008200190022002900020039000BF62
:1030000020210120FDF716FC0028F9D16846FDF7C4
:1030100035FC40F222240420009008200190012079
:103020000290039400BF20210120FDF703FC00283B
:10303000F9D16846FDF722FC40F26A50FDF7D0FC5A
:1030400000BF20210120FDF7F5FB0028F9D11FBDAD
:1030500001B581B0002000900549019848430090D7
:1030600002E00098401E009000980028F9D10CBDA5
:10307000A086010010B50748006800F0C05040B1BC
:103080000120054908604FF0C25102485830FDF751
:10309000D3FA10BD00640240D802002010B54FF4EE
:1030A0008070FFF759FD50B10020254908704FF49A
:1030B0008070FFF74BFD01202249086037E00220B5
:1030C000FFF74AFD30B10220FFF740FD02201C4906
:1030D00008702CE00820FFF73FFD30B10820FFF713
:1030E00035FD04201649087021E02020FFF734FD4B
:1030F00030B12020FFF72AFD06201149087016E0A4
:103100001020FFF729FD30B11020FFF71FFD05202B
:103110000B4908700BE04FF40070FFF71DFD30B154
:103120004FF40070FFF712FD0720054908700021D9
:103130004CF23A30FFF720FD0148007810BD000046
:10314000D0020020D402002021B1028842F04002C7
:10315000028004E002884FF6BF731A400280704775
:1031600010B50022028802F441520B884C88234398
:103170008C882343CC8823430C8923434C892343E5
:103180008C892343CC8923431A430280838B4FF2DB
:10319000FF74234083830B8A038210BD30B5002265
:1031A0008B071C0F0F2303FA04F20B4B8C1053F800
:1031B00024309343084C8D1044F8253023468C105E
:1031C00053F824308C07240F00FA04F42343024CF4
:1031D0008D1044F8253030BD083801400CB5002072
:1031E000019000904148006840F480303F490860F9
:1031F00000BF3E48006800F4003000900198401C79
:103200000190009818B90198B0F5A04FF1D1374856
:10321000006800F4003010B10120009001E00020AF
:1032200000900098012860D130484030006840F09C
:1032300080502E49403108602D48006840F44040DD
:103240002B4908602948083000682849083108607F
:103250000846006840F4004008600846006840F4F2
:10326000A05008602348091F0860081F006840F04C
:103270008070091F086000BF1C48006800F00070E3
:103280000028F9D01A48006840F4803018490860D6
:1032900000BF1748406800F480300028F9D0144877
:1032A000006840F400301249086000BF10484068D0
:1032B00000F400300028F9D040F205700E49086093
:1032C0000A480830006820F0030008490831086007
:1032D0000846006840F00200086000BF034808305C
:1032E000006800F00C000828F8D10CBD003802403E
:1032F00000700040195A4007003C024010B500BF62
:10330000502080F31188BFF34F8FBFF36F8F00BF42
:1033100006F0FAF818B14FF080500449086000BF79
:10332000002080F3118800BF10BD000004ED00E014
:1033300010B51548006840F4700013490860134840
:10334000006840F001001149086000200F49083171
:1033500008600E4800680E4908400C4908600D4896
:10336000091D0860081F006820F48020091F0860FC
:10337000002006490C310860FFF730FF4FF0006075
:1033800001498039086010BD88ED00E00038024036
:10339000FFFFF6FE1030002400B587B0012108467B
:1033A000FFF7C2FA01211020FFF7FEFA00208DF886
:1033B0001A0002208DF8180001208DF81B00032050
:1033C0008DF819004FF40070059005A91A48FDF713
:1033D00013FB4FF48060059005A91748FDF70CFB1F
:1033E000072209211448FDF74FFB07220A21124842
:1033F000FDF74AFB4FF4E13001900020ADF80A00E0
:10340000ADF80800ADF80C00ADF810000C20ADF8D8
:103410000E0001A9094800F003F900F053F801215A
:10342000064800F094F8012240F22551034800F0CC
:10343000D1F807B000BD00000000024000100140BC
:1034400010B540F22551184800F09AF858B300F032
:103450004DF816490A680968491C144B196014494B
:1034600041F8220040F225510F4800F061F80F4862
:10347000006810490968884215D100200B4908608E
:103480000C4801680A4800F03FF8002407E00848AB
:1034900050F82420214608A004F046F9641C054891
:1034A00000688442F3DB10BD0010014028000020BA
:1034B000AC030020240000202025642D2D2563204E
:1034C0000A00000008B54FF44070FFF703FA25200A
:1034D0008DF8000000208DF801008DF80200012019
:1034E0008DF803006846FFF7B9F908BD10B500BFB5
:1034F0002021044800F037F80028F9D0014800F0F6
:10350000F9F810BD001001402DE9F04105460E46C6
:103510002F46002405E017F82410044800F0EFF8C7
:10352000641CB442F7DBBDE8F081000000100140EC
:1035300010B50022002340F66A14A14200D100BF5A
:103540000A1201249440A3B2DC43048010BD21B1CF
:10355000828942F40052828104E082894DF6FF7331
:103560001A408281704702460020B1F5007F00D1E9
:1035700000BF13880B400BB1012000E00020704712
:1035800070B50246002400230025002040F66A168C
:10359000B14200D100BFC1F3421501F01F03012663
:1035A00006FA03F3012D02D19689334006E0022D7D
:1035B00002D1168A334001E0968A33400C1201266C
:1035C00006FA04F41688344013B10CB1012000E06F
:1035D000002070BDF0B50346002400260025002021
:1035E00040F66A17B94200D100BF1846C1F3421431
:1035F00001F01F06012707FA06F5012C01D10C3056
:1036000004E0022C01D1103000E014301AB1076838
:103610002F43076002E00768AF430760F0BD00007A
:103620002DE9FF4705460E460024A14600BFA046EF
:10363000B08900B100BF2C8A24F44054F0880443C0
:103640002C82AC8941F20C608443B08831890843F4
:10365000718908430443AC81AC8A24F44074B08976
:103660000443AC826846FFF7AFF92048854202D098
:103670001F48854202D1DDF80C9001E0DDF808908A
:10368000A88900F4004040B109EBC90000EB091023
:1036900031684900B0FBF1F707E009EBC90000EB26
:1036A000091031688900B0FBF1F76420B7FBF0F036
:1036B00004012009642101FB1078A88900F400406E
:1036C00040B1322000EBC800B0FBF1F000F0070081
:1036D000044308E0322000EB08106421B0FBF1F055
:1036E00000F00F0004432C81BDE8FF87001001406B
:1036F0000014014001468888C0F30800704770B587
:1037000004460D462946204600F008F800BF8021F7
:103710002046FFF728FF0028F9D070BDC1F308024A
:103720008280704700BFFEE72DE9FF4117461C4627
:1037300004F094FA00287CD101A96846FDF754FCF6
:10374000BDF80000B0F5487F2CDABDF80400B0F5F4
:10375000F07FF9DA2078012825D151480068002847
:1037600020D0142003F0CCFF05461421FCF7E6FD21
:103770002E4601203072BDF80000F060BDF8040054
:1037800030614748006830600020706000230A22E2
:1037900031464448006805F0DBFC012802D1304680
:1037A00003F0A5FF79E040A003F0BEFFBDF80420C0
:1037B000BDF80010384603F0CCFA804621783EA0D0
:1037C00003F0B2FF0120207021783BA003F0ACFF92
:1037D000B8F1000F2BD03248C0F80080142003F05D
:1037E0008FFF05461421FCF7A9FD2E4601203072FB
:1037F000BDF80000F060BDF80400306128480068A2
:1038000030600020706021782BA003F08DFF002332
:103810000A2231462348006805F09AFC012805D1A8
:1038200026A003F081FF304603F061FF00BF34E0C3
:10383000FFE704F013FA80B3207801282DD122A0ED
:1038400003F072FF0020207001A96846FDF7CCFB51
:10385000142003F055FF05461421FCF76FFD2E469A
:1038600002203072BDF80000F060BDF80400306145
:103870000B48006830600020706000231A46314613
:103880000848006805F064FC012802D1304603F0C6
:103890002EFF00200249086000BFBDE8FF81000044
:1038A000EC020020E8020020746F756368207570D8
:1038B000203D20300A00000025640A0064656C6524
:1038C00074652D2D0A000000746F75636820757093
:1038D000203D20310A0000002DE9F05F06468B46AE
:1038E00090461F46DDF8289022A003F01DFFB8F196
:1038F000010F03D0B8F1020F37D10EE01FFA89F2A1
:10390000B9B2304603F0F2F918B1304603F0B4FA18
:1039100002E0304603F013FB28E0304603F00FFBD3
:103920001FFA89F2B9B2304603F0E0F9E0B1142091
:1039300003F0E6FE04461421FCF700FD25460820AE
:103940002872304603F0B5F8E8600020286100BF17
:10395000306A28606E6000BFB069824652462946D0
:10396000304603F031F900BF00E000BF00BFBDE802
:10397000F09F00006974656D57496E0A00000000F1
:103980002DE9F05F0646884691461F46DDF828A0DF
:10399000B9F1010F03D0B9F1020F3BD10EE01FFACC
:1039A0008AF2B9B2304603F0A1F918B1304603F0FB
:1039B00063FA02E0304603F0C2FA2CE0304603F02E
:1039C000BEFA1FFA8AF2B9B2304603F08FF900B39B
:1039D000142003F095FE04461421FCF7AFFC2546A5
:1039E0000620287200BF70690078E86000BF706927
:1039F0004078286100BF306A2860C5F804803046EE
:103A000003F071F983465A462946304603F0DCF844
:103A100000BF00E000BF00BFBDE8F09F2DE9F04708
:103A200086B00546894616469A46DDF838801EA0BF
:103A300003F07AFE012E04D0022E03D0042E2BD1E7
:103A400001E02DE02CE01CA003F06EFE3C2003F012
:103A500057FE044601201A4909681AA2CDE901253A
:103A6000CDE9031096204FF4F0737822A021009046
:103A7000204603F07FFC04462746384603F002FB4D
:103A80001849384603F044F83868C1683846884712
:103A9000384603F04BF903E013A003F045FE00BFE6
:103AA00000BF06B0BDE8F0872D2D77696E70726F8C
:103AB0006320300A00000000636C6F73650A000029
:103AC000E8020020436C69636B204F4B20746F2029
:103AD000636C6F7365207468652077696E646F77B7
:103AE0002E000000AD3B0008756E646566696E6966
:103AF00074696F6E206D73670A0000002DE9F8434A
:103B00000646884614461D46089F0BA003F00CFE8F
:103B1000062C0DD1202000906B463A4629463046AF
:103B200002F04AFD9DF80010304602F0D3FD00BFC0
:103B300000BF00BFBDE8F8836B6579626F61726496
:103B40002D2D77696E70726F6320340A00000000BB
:103B50002DE9F0410446884615461E46069F0DA0F5
:103B600003F0E2FD012D04D0022D03D00A2D0CD16B
:103B700006E00BE021460C48006802F0CAFD05E0B3
:103B8000F1B2204601F01AFB00BF00BF00BFBDE844
:103B9000F0810000746578744261722D2D77696E32
:103BA00070726F6320320A00F00200202DE9F041AC
:103BB0000446884615461E46069F18A003F0B4FD2D
:103BC000042D02D00B2D24D10AE019A003F0ACFD86
:103BD000204603F03FFB206841692046884719E0F2
:103BE00030786F280AD119A003F09EFD204603F01B
:103BF00031FB206841692046884709E00CA003F0AA
:103C000093FD204603F026FB206841692046884743
:103C100000E000BF00BFBDE8F08100006469616C96
:103C20006F672D2D77696E70726F6320330A000005
:103C30000A2063616E63656C20636C6F7365207727
:103C4000696E646F7721200A000000000A207769FE
:103C50006E646F772077696C6C20626520636C6F8F
:103C600073656421200A00002DE9FC4782468946DD
:103C700017461E46DDF8288030A003F055FD012FC1
:103C800002D0022F39D10EE01FFA88F2B1B25046AD
:103C900003F02CF818B1504603F0EEF802E050465D
:103CA00003F04DF947E0504603F049F91FFA88F256
:103CB000B1B2504603F01AF8F0B14FF4784108461B
:103CC000FEF79AFB4FF4AA70F0210B464FF4C8722E
:103CD000CDE900104FF4FA714FF49670FEF7DFF85B
:103CE0004622BE214FF4AF70FDF736FF4622BE21BB
:103CF0004FF4E170FDF730FF1DE0504603F026F869
:103D0000C0B1142003F0FCFC04461421FCF716FBA0
:103D100025462F72EE60C5F81080504603F016F865
:103D20002860C5F804900A4829460268504602F007
:103D30004BFF00BF00BF00BFBDE8FC876275747415
:103D40006F6E2D2D77696E70726F6320340A0000DC
:103D5000E80200202DE9F0478246894617461E46B4
:103D6000DDF8208026A003F0DFFC012F04D0022F15
:103D700011D0082F23D11CE01FFA88F2B1B25046AF
:103D800002F0B4FF18B1504600F0F4FD02E05046D6
:103D900000F05CFF31E0504600F058FF1FFA88F257
:103DA000B1B2504602F0A2FF10B1504600F0BEFE84
:103DB00023E03446214617A003F0B6FC1DE0504630
:103DC00002F0C4FFC0B1142003F09AFC0446142191
:103DD000FCF7B4FA25462F72EE60C5F81080504605
:103DE00002F0B4FF2860C5F804900C482946026828
:103DF000504602F0E9FE00BF00BF00BFBDE8F087FB
:103E00006C6973744261722D2D77696E70726F6385
:103E100020350A002D2D25730A000000E80200203D
:103E20002DE9F0410746884614461D46069E07A028
:103E300003F07AFC072C04D129460AA003F074FC95
:103E400000E000BF00BFBDE8F0810000726164695E
:103E50006F62746E2D2D77696E70726F6320360AF3
:103E6000000000003E3E3E3E3E3E3E3E3E3E3E3E6A
:103E70003E3E25730A0000002DE9F04706468946BC
:103E800014461D46089F13A003F04EFC012C02D0DF
:103E9000022C1BD116E0BAB2A9B2304601F066FC82
:103EA000304601F0ADFC804641460FA003F03CFCDB
:103EB000304601F0A5FC804641461148006801F0FB
:103EC000C4FE04E0304601F03AFC00E000BF00BF51
:103ED000BDE8F087736C69646572322D2D77696E69
:103EE00070726F6320370A00736C696465722D2DE0
:103EF0002D2D2D2D2D2D2D2D3E3E3E3E3E2564009B
:103F0000F80200202DE9F05F05460F4690469946DD
:103F1000DDF828A0B8F1020F2AD11FFA8AF21FFAA1
:103F200089F1284602F0E2FE08B300BF286A834602
:103F3000294601F000FA142003F0E2FB04461421A4
:103F4000FCF7FCF926460720307200BF6869F06074
:103F50000020306100BF286A3060776000BFA86928
:103F600083465A463146284602F02EFE00BF00E046
:103F700000BF00BFBDE8F09F2DE9F047044688462A
:103F800015469946089F0AA003F0CEFB022D0BD1DF
:103F9000204603F020FA00BF94F840000646314660
:103FA00008A003F0C1FB00BF00BF00BFBDE8F08761
:103FB0006F7074696F6E2D2D77696E70726F6320EC
:103FC00036310A00636865636B3E3E3E3E3E3E3ED0
:103FD0003E3E3E25640000002DE9F041064688463D
:103FE00014461D46069F0BA003F09EFB012C02D039
:103FF000022C0AD105E0BAB2A9B2304601F0C1FCE8
:1040000004E0304601F0B2FC00E000BF00BFBDE8B4
:10401000F0810000736C69646572312D2D77696ED3
:1040200070726F632037310A000000002DE9F05FE5
:1040300006468A4691461F46DDF8288030A003F0E8
:1040400073FBB9F1010F03D0B9F1020F35D10EE0C6
:104050001FFA88F2B9B2304602F048FE18B1304675
:1040600002F00AFF02E0304602F069FF45E0304608
:1040700002F065FF1FFA88F2B9B2304602F036FE50
:10408000D0B1142003F03CFB04461421FCF756F990
:10409000254604202872EF60C5F8108000BF306A02
:1040A00028606E60304602F01EFE83465A4629465E
:1040B000304602F089FD00BF1FE000BF306AD8B172
:1040C000142003F01DFB04461421FCF737F92546A4
:1040D00085F80890EF60C5F8108000BF306A28604E
:1040E000C5F804A0304602F0FEFD83465A46294634
:1040F000304602F069FD00BF00BF00BFBDE8F09F81
:10410000627574746F6E5765616B50726F632030A7
:104110000A0000002DE9F05F05468B4690461F46D9
:10412000DDF8289022A003F0FFFAB8F1010F03D0C8
:10413000B8F1020F37D10EE01FFA89F2B9B2284662
:1041400002F0D4FD18B1284602F096FE02E028469F
:1041500002F0F5FE28E0284602F0F1FE1FFA89F28F
:10416000B9B2284602F0C2FDE0B1142003F0C8FA4B
:1041700004461421FCF7E2F826460B20307200BFFB
:104180006869F06000BFA88B306100BF286A3060AA
:10419000756000BFA869824652463146284602F043
:1041A00013FD00BF00E000BF00BFBDE8F09F0000AE
:1041B000627574746F6E5765616B50726F632030F7
:1041C0000A0000002DE9F04781460F461646984642
:1041D000DDF820A0012E02D0022E02D100E01EE068
:1041E0001DE0484602F0B2FDC0B1142003F088FA89
:1041F00004461421FCF7A2F825462E72C5F80C805F
:10420000C5F810A0484602F0A1FD28606F6005487F
:1042100029460268484602F0D7FC00BF00BF00BF35
:10422000BDE8F087E8020020AAB0FC4A07CA1DAB2F
:1042300007C3FA4A0C32D2E900109268CDE91B029A
:104240001A913C2003F05CFA29900120F449096896
:104250000022F4A3CDE90132CDE903104FF4F07050
:104260004FF4487311460090299802F0D5FB29902D
:1042700019903C2003F044FA01212990E848026893
:10428000EAA31998CDE90130CDE903214FF4F0708C
:104290004FF44873002211460090299802F0BCFBAD
:1042A0002990189018980068C06807900799189886
:1042B0008847E349189802F02BFC189802F0C1FADD
:1042C0001790E049189808605C2003F019FA2890CC
:1042D000D3480168DCA21E231798CDE90032CDE94E
:1042E0000201B42332221146289800F043FE2890A0
:1042F00016900021169800F053FA4FF4FC611698BE
:1043000000F04CFAD249169802F002FC03221DA9D3
:10431000169800F0B5FC16980068C06807900799D9
:1043200016988847402003F0EBF92790BC480368B3
:10433000C8A164221798CDE90203CDE90021B42376
:104340003221279802F068FE2790159000211598D9
:1043500000F026FA47F6FF71159800F01FFA15983D
:104360000068C0680790079915988847BB49159859
:1043700002F0CEFB502003F0C3F92690A848026853
:1043800000216E231798CDE90031CDE90202B42354
:10439000DC223221269801F0CDF8269014900023DB
:1043A00003221AA9149800F0F7FF14980068C06857
:1043B0000790079914988847A949149802F0A8FB18
:1043C000442003F09DF90021259095480268A5A39B
:1043D0001798CDE90130CDE903211E20B4234FF415
:1043E000AF7232210090259803F050F92590139078
:1043F00013980068C06807900799139888479B49ED
:10440000139802F085FB442003F07AF900212590EF
:104410008348026896A31798CDE90130CDE90321BE
:104420001E20B4234FF4C87232210090259803F067
:104430002DF92590129012980068C068079007998E
:10444000129888478949129802F062FB4C2003F0C9
:1044500057F924907248016800221E231798CDE96D
:104460000032CDE902014FF4BE7332224FF48C7159
:10447000249801F087FB24901190119801F095FA8F
:1044800011980068C06807900799119888477A4981
:10449000119802F03DFB4C2003F032F900212390EB
:1044A0005F4803681798CDE901104FF4C870CDE953
:1044B000033100901E231A4640F2EE21239801F0AA
:1044C000EBF92390109010980068C0680790079946
:1044D000109888476949109802F01AFB442003F0AD
:1044E0000FF922904E48036800211E221798CDE94B
:1044F0000203CDE900214FF496736E224FF48C71C4
:10450000229801F0E1FB22900F900F980068C0689C
:10451000079007990F98884759490F9808604C20D1
:1045200003F0EEF821903E4803680021C822179856
:10453000CDE90203CDE900215300F422219802F0D5
:1045400037F921900E9000210E9800F029F94D487E
:10455000FEF7ECFA014607900E9800F01FF90E984E
:1045600001F0A6FC48490E9802F0D2FA47490E988D
:1045700008604C2003F0C4F820902948016800220C
:104580005A231798CDE90032CDE902014FF4C873E0
:10459000A022FA21209800F049FE20900D900021E1
:1045A0000D9800F0FDF84FF6E0710D9800F0F6F868
:1045B00037490D9802F0ACFA0D980068C068079072
:1045C00007990D988847189802F0B0FB00200990D1
:1045D000142004F053F8089014212EA003F0A4F83E
:1045E000A3E009AB189ADDE90B10FFF79DF8002353
:1045F0001A460B480899006804F07CFC079007985D
:10460000012875D10898006805900598808B069060
:104610000898007A0590014644E000008C9A000852
:10462000E8020020524F4F54210000004954204915
:104630005320544553542057494E20312100000047
:104640001D3A0008F40200206C6973744261720024
:10465000553D0008627574746F6E0000693C000877
:10466000213E0008636865636B310000793F0008F4
:10467000636865636B320000D93F0008793E00082B
:10468000F8020020CFCFCF00FD3A0008F002002052
:10469000513B00086D657373616765203D2025649B
:1046A0000A00000021A0069A03F03EF8089800686E
:1046B0000A9000BF0A9890F82D00D0B108980069C0
:1046C00000900898C06806900898007A05900898AD
:1046D000406804900898006803900A984068029027
:1046E000DDE9024004A90EC9A04719A003F01CF897
:1046F0001AE01A490A9802F00BFA0898006900902B
:104700000898C06806900898007A05900898406854
:1047100004900898006803900A9840680290DDE9C8
:10472000024004A90EC9A04700BF5AE72D2D2D2D28
:104730002D2D2D68617665206D7367200A74797060
:1047400065203D2025640A6964203D2025640A0017
:104750002D2D2D2D2D2D2D656E640A00C5410008CF
:104760001CB50020012103464FF47A72CDE90010F8
:1047700003A1054804F082FE04F05AFA1CBD0000B3
:1047800077696E30000000002942000870477047CA
:104790000146486B70470146086B7047416370479C
:1047A0000163704770472DE9FF4F81B005469A4677
:1047B0000F9E002E4ED04FF0000800240CE0601C2D
:1047C000C4B200BF288ABDF80C1001FB14000028F9
:1047D00002DC601EC4B202E0305D0028EFD100BFF1
:1047E00000BF698900BF6A8ABDF80E30D01A00EB9D
:1047F000D07201EB62011FFA81FB284602F0DEF95C
:104800000146288ABDF80C2002FB1400009000EB42
:10481000D07001EB60001FFA80F902A8FDF7F6FDE9
:104820000E9A91B21FFA8AF0FDF7E6FD0FE016F836
:1048300008703A4649465846FDF7A2F8BDF80C0004
:1048400048441FFA80F908F1010000F0FF08A04574
:10485000EDDB00BF05B0BDE8F08FD1E90E23C0E964
:10486000002370472DE9FF5F04460D4616461F469C
:10487000DDE910ABDDE90E893B463246294620468C
:104880008DE8000F02F0A0FA0446074820600020DF
:1048900020634FF2DE706063044903C9C4E90E016E
:1048A000204604B0BDE8F09F64C50008FC0200206B
:1048B00070B50446204600F004F8054602F017FFE4
:1048C00070BD10B50446204602F0CFFA04462046DB
:1048D00010BD10B50446A06C02F009FF04F14000C1
:1048E00000F005FD204602F0D4F810BD0146B1F8F5
:1048F000460070472DE9F14F009802F00EF9401C78
:104900004FF6FF7101EA4008009802F0CFF8401C12
:104910001FFA80F9009802F051F98346009802F0DE
:1049200050F900EBC00101EB00100BEB401046000A
:104930004FF4C86A00270FE0002408E025467019EC
:104940000749085C7119074A5054601C84B24445F9
:10495000F4DB5644781C87B24F45EDDBBDE8F88F99
:1049600000B80BD0000000D010B50446204602F07D
:10497000D7F810BD2DE9F04F87B0054600BF95F878
:104980002C0000287DD1284602F09FF94FF6FF71D8
:104990000846FDF731FD2846FFF7A8FF04462846E4
:1049A00002F0BBF80646284602F00BF907462846F7
:1049B00002F004F98046234632463946FDF716F9DF
:1049C0002846FFF7E8FE84B22846FFF7E4FE86B2E9
:1049D00021463046FDF710FD2846FFF787FF0446C5
:1049E000284602F09AF80646284602F0EAF80746FA
:1049F000284602F0E3F88046234632463946FDF762
:104A00009DF9284602F055F800283AD000270024E6
:104A1000294605A8FFF721FF16E0601CC4B228460E
:104A200002F07BF88246294601A8FFF716FFDDE970
:104A30000101CDE90301BDF8100000FB14A000281E
:104A400002DC601EC4B205E0284602F032F8005DC8
:104A50000028E2D100BF284602F0B3F8824628467B
:104A6000FFF744FF834629466846FFF7F6FEDDE977
:104A70000001CDE90301BDF81200ABEB000002908C
:104A800000E049E000EBD0700AEB60001FFA80F90B
:104A9000284602F093F88246284602F03EF8834604
:104AA00029466846FFF7D9FEDDE90001CDE903019B
:104AB000BDF8100000FB14B0029000EBD0700AEBC0
:104AC00060001FFA80F805A8FDF7A0FC2846FFF754
:104AD00062FE1FFA80FA4FF6FF715046FDF78CFC1C
:104AE00017E0284601F0E5FFC65D324641464846DC
:104AF000FCF746FF294601A8FFF7AFFEDDE90101FB
:104B0000CDE90301BDF8100040441FFA80F8781C7D
:104B1000C7B2A742E5DB00BF07B0BDE8F08F10B514
:104B20000446204602F07FF810BD00002DE9F04158
:104B3000044604F1400000F0E3FB00286DD000BF04
:104B400094F85000002832D104F1400000F0D5FB69
:104B5000064600250AE004F1400000F0D1FB50F8C1
:104B600025703868C168384688476D1CB542F2DB4D
:104B7000204601F0A1FF2046FFF7B8FE711C484314
:104B800087B23946204601F0C1FF204600F0B8F94F
:104B9000204600F068F8204602F0C8F8204601F0F0
:104BA00085FF074639461EA002F0BEFD35E023A072
:104BB00002F0BAFD04F1400000F09FFB074600251B
:104BC0000AE004F1400000F09BFB50F825603068DB
:104BD0000169304688476D1CBD42F2DB204601F07A
:104BE00065FF064631460EA002F09EFD2046FFF707
:104BF00081FE2046FFF77AFE06463146204601F048
:104C000085FF204601F052FF0646314604A002F01F
:104C10008BFD204600F027F800BFBDE8F0810000C2
:104C20006C697374486967683E3E3E3E3E3E3E3E58
:104C30003E3E3E3E3E3E3E25640000006C6973747D
:104C4000206973207A78210A0000000010B504461C
:104C500000BF94F82C0028B1204602F067F82046E7
:104C600002F033F810BD00BF90F8501019B10021C8
:104C700080F8501002E0012180F8501070470000C9
:104C80002DE9F04F87B0044689461746C4F848908E
:104C900004F14000878000BF00F021FB2046FFF7B1
:104CA00025FE0646204601F038FF464304F1400049
:104CB00000F023FB46437000A06504F1400000F0C3
:104CC0001CFB069000253CE0402002F019FD064642
:104CD000A06982462046FFF709FE0590204601F0B4
:104CE0001CFF04902046FFF701FE691C48431FFA91
:104CF00080FB59F825000599CDE9024ACDE900105D
:104D00005A4600213046049B02F086F90646B0461A
:104D10000F49404601F0FCFE2046FFF73CFD82466D
:104D2000C8F830A000BF0B48FDF700FF8246C8F866
:104D300034A000BF04F1400000F0E2FA40F8258002
:104D40006D1C06988542BFDB07B0BDE8F08F000000
:104D5000D9380008E0E0E0002DE9F04F87B00546C3
:104D600000BFA88E84B2A88E86B221463046FDF7D9
:104D700043FB2846FFF7BAFD0446284601F0CDFE66
:104D80000646284601F01DFF0746284601F016FF9B
:104D90008046234632463946FCF728FF2846FFF76F
:104DA000FAFC84B22846FFF7F6FC86B2214630466C
:104DB000FDF722FB2846FFF799FD0446284601F03F
:104DC000ACFE0646284601F0FCFE0746284601F0E8
:104DD000F5FE8046234632463946FCF7AFFF2846AB
:104DE00001F067FE00287DD000270024294605A891
:104DF000FFF733FD16E0601CC4B2284601F08DFEBB
:104E00008246294601A8FFF728FDDDE90101CDE929
:104E10000301BDF8100000FB14A0002802DC601E96
:104E2000C4B205E0284601F044FE005D0028E2D14E
:104E300000BF284601F0C5FE82462846FFF756FD12
:104E4000834629466846FFF708FDDDE90001CDE904
:104E50000301BDF81200ABEB0000029000EBD07034
:104E60000AEB60001FFA80F9284601F0A7FE82468F
:104E7000284601F052FE834629466846FFF7EDFCBE
:104E8000DDE90001CDE90301BDF8100000FB14B01D
:104E9000029000EBD0700AEB60001FFA80F805A8C2
:104EA000FDF7B4FA00BFA88E1FFA80FA2846FFF774
:104EB00072FC1FFA80FB51465846FDF79DFA19E037
:104EC000284601F0F6FDC65D324641464846FCF7ED
:104ED00057FD294601A8FFF7C0FCDDE90101CDE936
:104EE000030100E009E0BDF8100040441FFA80F81B
:104EF000781CC7B2A742E3DB00BF07B0BDE8F08F64
:104F00002DE9F14F009801F008FE401C4FF6FF71AB
:104F100001EA4008009801F0C9FD401C1FFA80F921
:104F2000009801F04BFE8346009801F04AFE00EB2A
:104F3000C00101EB00100BEB401046004FF4C86AB3
:104F400000270FE0002408E0254670190749085C97
:104F50007119074A5054601C84B24445F4DB56442E
:104F6000781C87B24F45EDDBBDE8F88F000000D01C
:104F700000B80BD02DE9FF5F04460E461746984651
:104F80000EAD95E8200E43463A46314620468DE860
:104F9000200EFFF767FC044604F1400000F0B3F96F
:104FA000A0F1400405482060A4F84650002084F891
:104FB0005000A064204604B0BDE8F09F84C50008FE
:104FC00070B50446204600F004F8054602F08FFB59
:104FD00070BD10B5044604F1400000F098F9A0F14E
:104FE00040042046FFF76DFC0446204610BD10B576
:104FF000044694F8460000280DDD94F84600401E53
:1050000084F84600002094F84620216C88542068DB
:1050100081682046884710BD10B50446206C02F018
:1050200066FB204601F035FD10BD7FB504462146E4
:105030006846FFF712FCDDE90001CDE90201BDF889
:105040000E00B4F84A104518204601F0BAFD618AF6
:105050000844854213DC204601F0B0FDA4F8480066
:1050600021466846FFF7F9FBDDE90001CDE90201C1
:10507000BDF80E00B4F84A100844A4F84A007FBDF9
:10508000F0B587B004460D46214605A8FFF7E5FBBD
:1050900005A8FDF7BBF900BFA08E86B2208E87B2AF
:1050A00031463846FDF7A8F9B4F84810B4F84A007C
:1050B0002A46FCF765FC214601A8FFF7CEFBDDE997
:1050C0000101CDE90301BDF81000B4F8481008440F
:1050D000A4F84800204601F071FD218A0844B4F884
:1050E0004810884226DC204601F068FDA4F84800FC
:1050F000214601A8FFF7B1FBDDE90101CDE903017C
:10510000BDF81200B4F84A100844A4F84A0020463A
:1051100001F057FD618A0844B4F84A10884209DA60
:10512000204601F04BFDA4F84800204601F049FD5F
:10513000A4F84A0007B0F0BD10B50446204601F0BF
:10514000EFFC10BD10B50446204601F06CFD10BD0B
:105150002DE9F047044600BFA08E86B2A08E87B22C
:1051600031463846FDF748F900BF608A0646208A76
:105170000746204601F025FD8046204601F01EFD31
:10518000814633463A464146FCF730FD204601F061
:1051900015FDA4F84800204601F013FDA4F84A00CC
:1051A000002505E0206C415D2046FFF769FF6D1C7E
:1051B00094F84600A842F5DCBDE8F08770B50446D7
:1051C0000D46112D19D007DCCDB1082D0FD0092DBA
:1051D00011D0102D14D109E0122D0FD0142D0BD0A9
:1051E0002E2D0DD12046FFF702FF1DE01CE02046CA
:1051F000FFF71BFF18E017E016E015E014E013E0DE
:1052000094F84600B4F8441088420CDC94F8461038
:10521000206C455429462046FFF732FF94F846009B
:10522000401C84F8460000BF00BF70BD2DE9FF4F51
:1052300089B004460F461D4616AE96E840072B4639
:105240008DE84007394620460B9AFFF70BFB0446D2
:1052500019482060214601A8FFF7FFFADDE90101A6
:10526000CDE90501BDF81A0096FBF0FB0BFB05FB31
:10527000214603A8FFF7F1FADDE90301CDE90701B3
:10528000BDF820009BFBF0F0401E4034A080A088B9
:1052900002F031FA20600020A071403C204601F06D
:1052A0008DFCA4F84800204601F08BFCA4F84A00CD
:1052B00020460DB0BDE8F08FA4C5000870B50446C7
:1052C000204600F004F8054602F011FA70BD10B552
:1052D00004462046FFF7F5FA0446204610BD10B5F7
:1052E0000446A188880002F006FA206010BD10B5BF
:1052F0000446206802F0FBF910BD0146888870471B
:10530000014608687047002101608180704770473E
:1053100010B50446A06C02F0EAF904F14000FFF772
:10532000E6FF204601F0B5FB10BD10B5044620464F
:1053300001F0F6FB10BD2DE9F04704460E4600BF14
:1053400096F8400018B1304602F045F821E00025FB
:1053500015E004F14000FFF7D3FF50F825804FF02F
:10536000000988F8409000BF04F14000FFF7C8FF33
:1053700050F8257038688168384688476D1C04F1FC
:105380004000FFF7BAFFA842E3DC304602F023F802
:1053900000BFBDE8F08700002DE9F04F89B004465A
:1053A0000E4690469946A66404F14000A0F8048099
:1053B00000BFFFF794FF84F84C90002794F84C004E
:1053C000002852D0002549E0442002F099F90890C5
:1053D000A0690790608A0690B4F810B004F140000C
:1053E000FFF78BFF9BFBF0F080B20122059056F88F
:1053F00025100798CDE90114CDE903020698B9B24A
:1054000000900022059B089802F040F9834608901E
:1054100004F14000FFF774FF40F825B004F14000AC
:10542000FFF76EFF50F825A0DAF80000C16850467B
:10543000884704F14000FFF763FF50F825B0384972
:10544000584601F065FB00BFB4F810B004F140000D
:10545000FFF753FF9BFBF0F007446D1C04F1400085
:10546000FFF74BFFA842AFDC56E004F14000FFF726
:1054700044FF824604F14000FFF73FFF0AEB400083
:10548000471E002542E0442002F03AF98246A06916
:105490000890608A400090FBF7F080B20790208A65
:1054A0000690608A05EB4501484390FBF7F080B217
:1054B0000122059056F825100898CDE90114CDE990
:1054C00003020798009000215046DDE9052302F011
:1054D000DDF8824604F14000FFF712FF40F825A0F6
:1054E00004F14000FFF70CFF50F825B0DBF8000096
:1054F000C1685846884704F14000FFF701FF50F8A3
:1055000025000749089001F003FB6D1C04F14000E1
:10551000FFF7F3FEA842B6DC09B0BDE8F08F00004B
:10552000053F000810B50446204601F07CFB10BD85
:10553000704700002DE9FF5F04460D4616461F46E2
:10554000DDE910ABDDE90E893B46324629462046AF
:105550008DE8000FFFF786F9044604F14000FFF7DD
:10556000D2FEA0F1400404482060012084F84C00E1
:10557000204604B0BDE8F09FC4C5000870B50446DD
:10558000204600F004F8054602F0B1F870BD10B5F1
:10559000044604F14000FFF7BAFEA0F140042046A3
:1055A000FFF78FF90446204610BD10B5044620468B
:1055B00001F06FFA10BD2DE9F05F0446894692466E
:1055C00094F8480080B3B4F84A70B4F84A0000EB8D
:1055D000D071A9EB61018DB2204601F0F2FA0646C6
:1055E000204601F063FA8046204601F0E7FAA8421F
:1055F00004DD204601F0E2FA054648E0204601F0CD
:10560000DDFA8346204601F088FA5844C01BA842C0
:105610003DDA204601F0D2FA8346204601F07DFAB9
:105620005844C01B85B232E0FFE7204601F0C6FABD
:105630000546B4F84A0000EBD071AAEB61018EB2C6
:10564000204601F06AFA0746B4F84A80204601F085
:10565000B8FAB04204DD204601F0B3FA064616E07F
:10566000204601F0AEFA8346204601F01FFA584466
:10567000A0EB0800B0420ADA204601F0A2FA834605
:10568000204601F013FA5844A0EB080086B24346C6
:105690003A4631462846FCF7A9FABDE8F09F10B516
:1056A0000446204601F03CFA10BD2DE9F0410446C5
:1056B00094F8480000B3204601F02FFAB4F84A10DD
:1056C000401A05B2204601F079FA616CC0EB114036
:1056D000B4F84A7007EBD771A0EB610006B2002E58
:1056E00000DA0026AE4200DD2E466420704390FBB7
:1056F000F5F084F8400020E0204601F0D7F9B4F836
:105700004A10401A05B2204601F05BFAB4F8441082
:10571000081AB4F84A7007EBD771A0EB610006B223
:10572000002E00DA0026AE4200DD2E4664207043D3
:1057300090FBF5F084F8400000BFBDE8F08170B543
:1057400004462046FFF727F885B22046FFF723F8E6
:1057500086B229463046FCF74FFEB4F8440082B2C8
:10576000606C010C2046FFF726FF70BD2DE9F05F4D
:1057700004460D461646606CB5EB104F35D0B4F8B4
:10578000440080B2B04230D02F4638046064606C70
:10579000304460641648FDF7C9F980461448FDF7A7
:1057A000C5F981464146FCF727FE204601F07EF907
:1057B0008046204601F0B1F98146204601F001FA09
:1057C0008246204601F0FAF9834643464A4651464E
:1057D000FCF70CFA4FF6FF710846FCF70DFE324657
:1057E00029462046FFF7E7FE00BFBDE8F09F000016
:1057F000E0E0E00010B50446204601F014FA10BDC8
:1058000010B504462046FFF750FF94F8400010BD45
:105810002DE9F04104461F48FDF788F905461D486B
:10582000FDF784F906462946FCF7E6FD204601F01F
:105830003DF90546204601F070F90646204601F084
:10584000C0F90746204601F0B9F980462B4632469A
:105850003946FCF7CBF92046FEF79DFF85B220467E
:10586000FEF799FF86B229463046FCF7C5FDB4F82D
:10587000440082B2606C010C2046FFF79CFEB4F835
:10588000440082B2606C010C2046FFF76FFFBDE858
:10589000F0810000E0E0E0002DE9FF4F85B0044614
:1058A0000E4612AF97E88007169D8DE880073146B7
:1058B0002046DDE90723FEF7D5FF044617482060A0
:1058C00084F84850204601F079F9049004980004C7
:1058D0006064204601F075F9616C084460645DB154
:1058E000204601F0E3F800EB400B0BEBDB70C0F35C
:1058F0004F00A4F84A000AE0204601F00EF900EB40
:10590000400B0BEBDB70C0F34F00A4F84A00002003
:1059100084F84000204609B0BDE8F08FE4C50008D7
:1059200070B50446204600F004F8054601F0DFFE9D
:1059300070BD10B504462046FEF7C3FF044620465E
:1059400010BD10B50446A06C10B1A06C01F0CFFEE4
:1059500004F14000FFF7CBFC204601F09AF810BD9F
:1059600010B50446204601F0DBF810BD70B50446C2
:1059700004F14000FFF7C4FC05682846FFF7DFFE8E
:1059800070BD2DE9F04104460D46164604F1400075
:10599000FFF7B6FC3246294607683846FFF7E6FEB1
:1059A000204600F095F8BDE8F0812DE9F04F8DB06C
:1059B000044604F140000221818000BFFFF78FFC04
:1059C0004C2001F09DFE0546A0690746206A8046EE
:1059D00060698146608A8246B4F810B0214609A801
:1059E000FEF73BFFDDE90901CDE90B01BDF8300011
:1059F00000EB8000ABEB000080B20890E0890790DC
:105A0000A08906900120CDE900A9CDE90287049084
:105A1000284606A90EC9FFF73FFF054604F14000DE
:105A2000FFF76EFC0560402001F06AFE0646A069A3
:105A30000746608A8046214607A8FEF70EFFDDE98B
:105A40000701CDE90B01BDF8300000EB80001FFA23
:105A500080F9B4F810B0214605A8FEF7FEFEDDE996
:105A60000501CDE90901BDF8280000EB8000ABEB92
:105A700000001FFA80FA00204B4602465146CDE94D
:105A80000080CDE90247304600F092F9064604F165
:105A90004000FFF735FC4660052001F02CFEA064B5
:105AA0000DB0BDE8F08F10B50446204601F0BBF8FC
:105AB00010BD70B5044604F14000FFF721FC0568F5
:105AC0002868816828468847204600F001F870BDA4
:105AD0002DE9FF47044604F14000FFF711FCD0F820
