:020000040800F2
:10000000000900207D0200085D2700085912000841
:1000100059270008070500082936000800000000DD
:10002000000000000000000000000000C501000802
:100030006D060008000000001902000801320008E7
:100040009B0200089B0200089B0200089B0200081C
:100050009B0200089B0200089B0200089B0200080C
:100060009B0200089B0200089B0200089B020008FC
:100070009B0200089B0200089B0200089B020008EC
:100080009B0200089B0200089B0200089B020008DC
:100090009B0200089B0200089B0200089B020008CC
:1000A0009B0200089B0200089B0200089B020008BC
:1000B0009B0200089B0200089B0200089B020008AC
:1000C0009B0200089B0200089B0200089B0200089C
:1000D0009B020008453300089B0200089B020008B1
:1000E000810600089B0200089B0200089B02000892
:1000F0009B0200089B0200089B0200089B0200086C
:100100009B020008752A00089B0200089B02000859
:100110009B0200089B0200089B0200089B0200084B
:100120009B0200089B0200089B02000831060008A1
:100130009B0200089B0200089B0200089B0200082B
:100140009B0200089B0200089B0200089B0200081B
:100150009B0200089B0200089B0200089B0200080B
:100160009B0200089B0200089B0200089B020008FB
:100170009B0200089B0200089B0200089B020008EB
:100180009B0200089B0200089B0200089B020008DB
:100190009B0200089B0200089B0200089B020008CB
:1001A0009B0200089B0200089B020008DFF810D0A9
:1001B00000F04EF900F0CEF80048004765810008D5
:1001C000000900202A4B19680868B0E8F04F80F356
:1001D0000988BFF36F8F4FF0000080F311887047DC
:1001E0000000000006480068006880F3088862B6D6
:1001F00061B6BFF34F8FBFF36F8F00DF00BF00BF4B
:1002000008ED00E0DFF80C00016841F470010160C6
:10021000704700BF88ED00E0EFF30980BFF36F8FF8
:10022000134B1A681EF0100F08BF20ED108A20E94A
:10023000F04F106008B44FF0500080F31188BFF306
:100240004F8FBFF36F8F08F0C3FF4FF0000080F3B4
:10025000118808BC19680868B0E8F04F1EF0100F4C
:1002600008BFB0EC108A80F30988BFF36F8F704726
:100270001C030020EFF3058070470000074880470B
:100280000748804707480047FEE7FEE7FEE7FEE72E
:10029000FEE7FEE7FEE7FEE7FEE7FEE73532000891
:1002A0009D2A0008AD0100082DE9F05F05460020F9
:1002B00092469B4688460646814640241BE02846D7
:1002C00041464746224600F066F853465A46C01A51
:1002D000914110D311461846224600F04DF82D1AD0
:1002E00067EB01084F4622460120002100F044F848
:1002F00017EB00094E41201EA4F10104DFDC484643
:1003000031462A464346BDE8F09F40EA01039B0779
:1003100003D009E008C9121F08C0042AFAD203E07A
:1003200011F8013B00F8013B521EF9D27047D2B2DE
:1003300001E000F8012B491EFBD270470022F6E7CE
:1003400010B513460A4604461946FFF7F0FF20464B
:1003500010BD000070B5054C054D03E02068204439
:100360008047241DAC42F9D170BD0000DCCE0008EE
:10037000E0CE000800F036B8202A04DB203A00FA6C
:1003800002F1002070479140C2F1200320FA03F3EC
:10039000194390407047202A04DB203A21FA02F0EA
:1003A0000021704721FA02F3D040C2F120029140AF
:1003B0000843194670470000004870479403002026
:1003C0007047000009207047092070477047704748
:1003D00009207047024801464860001D7047000030
:1003E0009803002010B500F00EF8016919B1002241
:1003F0000261884701E080688047AFF30080000019
:1004000010B5AFF3008070B5FFF7E4FF0468054650
:10041000A4B9202007F0B8FE040011D0094900203B
:100420002C60C4E900010849A1602073206160616B
:100430000649A06109B100F01DF8E061204670BDD9
:10044000AFF300800000000001040008000000007D
:10045000064C074D06E0E06840F0010394E8070011
:1004600098471034AC42F6D3FFF7A4FE9CCE0008A8
:10047000DCCE000810B5882007F086FE002801D0E9
:100480000021017010BD802902D808B1017809B19E
:1004900000207047012100F8081B704718B100F1D7
:1004A0000802914201D0002070470021017070477E
:1004B00070B58C1810F8015B15F0070301D110F826
:1004C000013B2A1106D110F8012B03E010F8016B53
:1004D00001F8016B5B1EF9D12B0705D40023521ED6
:1004E0000DD401F8013BFAE710F8013BCB1A921C3E
:1004F00003E013F8015B01F8015B521EF9D5A1423C
:10050000D8D3002070BD00BFFEE710B50121C8059B
:1005100002F09CF900214FF4000002F097F910BDA1
:1005200001460020034A52680A400AB1012000E057
:100530000020704700B0024070B500210022002367
:100540000024344D2D68344E3540324E35603546EA
:100550002D68066835432F4E356035466D6B25F0A6
:100560000705756335466D6B46683543294E7563DF
:10057000456835B9C5682902058A2A04057D2B0618
:1005800021E04568012D05D1C5682902058A2A04A4
:10059000002318E04568022D05D1C5686901056989
:1005A000EA0200230FE04568032D06D1C568690102
:1005B0000569AA024569EB0305E0C56829010569DB
:1005C0002A0245692B0341EA0205866835431D432B
:1005D000104EB66B35430F4EB5638569F5633546EE
:1005E0002D6C6FF30D05356435462D6CC6693543AA
:1005F000084E3564858C2C0435466D6C05F04045FD
:10060000756435466D6C066A26433543014E756444
:1006100070BD000000B00240FCE0FCFF0348006831
:1006200040F00100014908607047000000B002403E
:1006300010B502F0A1FC10BD0246094B9A4201D24E
:10064000084801E00648103801F000531BB1064B82
:100650000B40C36002E0044B0B4083607047000016
:1006600010640240006002407D0F7D0F704701B5AD
:1006700002E00098401E009000980028F9D108BDC3
:1006800010B54FF4005000F011F838B101F0B6FE8B
:1006900000F068FC4FF4005000F002F810BD0000BC
:1006A0000149086070470000143C014001460020E9
:1006B000034A12680A400AB1012000E00020704796
:1006C000143C0140002123498279002A3AD00A468D
:1006D000126803689A430B461A600A1D1268036881
:1006E0009A430B1D1A60027911440A6803681A4381
:1006F0000A60184A0832126803689A43154B083397
:100700001A601A1D126803689A43124B0C331A6060
:100710004279102A0ED11A1F126803681A430D4B32
:1007200008331A601A1D126803681A43094B0C3308
:100730001A600DE00749427911440A6803681A43B8
:100740000A6005E0027911440A6803689A430A6066
:1007500070470000003C014000B587B00121202017
:1007600002F064F80121080502F0A0F80522072133
:100770002E4800F089F9052208212C4800F084F960
:1007800005220921294800F07FF9802000900220ED
:100790008DF805008DF8040000208DF806008DF816
:1007A00007006946214800F027F94FF48070009057
:1007B00069461E4800F020F94FF400700090694629
:1007C0001A4800F019F94020009001208DF804002B
:1007D0006946164800F010F9402014491831088085
:1007E0000020ADF808004FF48270ADF80A00002038
:1007F000ADF80C000220ADF80E000120ADF810009D
:100800004002ADF812000020ADF81400ADF816005B
:100810000720ADF8180002A9054802F023FC0121C9
:10082000034802F013FC07B000BD000000140240B2
:100830000050014010B5024600200023102A03D1C9
:100840004FF02044636E0FE0B2F5807F02D10A4C76
:10085000236809E0B2F5805F03D1074C2034236898
:1008600002E0054CD434236803EA01048C4201D031
:10087000002000E0012010BD840000A00021D0E98C
:1008800000231A4383685B1E42EA4312C36842EAAC
:100890004321014A11607047500100A070B5002249
:1008A0000021002300240568AD00A5F1C045D5F85E
:1008B00040216FF30E02D0E901563543C668354337
:1008C000066935434669354386693543C66935430C
:1008D000066A3543466A35432A43056835B90568D3
:1008E000AD00A5F1C045C5F8402111E03B4D2B6896
:1008F0006FF30E03D0E907563543466A35432B4361
:10090000364D2B600568AD00A5F1C045C5F8402106
:10091000056875BB314D0835066855F8261001F09D
:100920007041856A2D686D1E866A7668761E45EA76
:100930000616856AAD686D1E46EA0526856AED686D
:100940006D1E46EA0536856A2D8A6D1E46EA054605
:10095000856AAD8A6D1E46EA0556856A2D7E6D1E36
:1009600046EA056529431D4D0835066845F82610F9
:1009700032E0FFE7194D0835066855F8261001F0FA
:100980007041856A2D686D1E866A7668761E45EA16
:100990000616856AAD686D1E46EA0526856A2D8AAB
:1009A0006D1E46EA054529430C4D08352C6804F0B8
:1009B0007044856AED686D1E2E03856AAD8A6D1ED2
:1009C00046EA05552C434FF02045C5F84841034DF4
:1009D0000835066845F8261070BD0000400100A0EB
:1009E0000449096841EA40014FF02042C2F854111D
:1009F00070470000540100A0F0B50A460021002312
:100A0000002400BF3DE0012505FA01F3156805EA61
:100A100003049C4234D105684F000326BE40B54311
:100A2000056015794E00B5400668354305601579B7
:100A3000012D02D01579022D16D185684F000326AD
:100A4000BE40B543856055794E00B5408668354354
:100A50008560456801268E40B543456045689679B6
:100A60008E40B6B235434560C5684F000326BE4090
:100A7000B543C560D5794E00B540C6683543C560FD
:100A8000491C1029BFD3F0BDF0B5002300244D0749
:100A9000ED0E02FA05F3CE1000F1200555F82650B0
:100AA0004E07F70E0F26BE40B543CF1000F12006CB
:100AB00046F82750CE1000F1200555F8265045EA9B
:100AC0000304CE1000F1200545F82640F0BD418317
:100AD00070470183704742694A40426170470AB1DA
:100AE000018300E0418370472DE9FC410020009024
:100AF000019000244FF448754FF4F07600278020D1
:100B00008DF8000048208DF8010006226946BA20C1
:100B100000F04EF80446002C02DA0020BDE8FC810B
:100B20009DF802009DF8031000EB012085B29DF8AE
:100B300004009DF8051000EB012086B280208DF89E
:100B400000004D208DF8010003226946BA2000F014
:100B50002FF80446002C01DA0020DFE79DF80200A0
:100B600000F003073B463246294602A007F05AF838
:100B70000120D3E73C3C2D4754502D494E464F2D84
:100B80003E3E20585F4D4158203D2025642C205981
:100B90005F4D4158203D2025642C20545249474741
:100BA0004552203D203078253032780A0000000080
:100BB0002DE9F04186B005460C4616464FF0FF374A
:100BC0004FF0000800BF00BF0020ADF802008DF814
:100BD00000500220ADF8040002940121ADF80E107F
:100BE0008DF80C50B01E81B2ADF81010A01C05900D
:100BF00009E00221684600F0BBFD0746022F00D144
:100C000004E008F10108B8F1050FF2DB00BFB8F10C
:100C1000050F08DB6078237840EA0321B21E3B46CB
:100C2000034806F0FFFF384606B0BDE8F08100003B
:100C3000D4CC000838B50E480068009000256C1E22
:100C400000BF00BF0DE003226946BA20FFF7B0FFE6
:100C500044B2002C01DD204638BD294605A006F02F
:100C6000E1FF2846691CCDB20528ECDB2046F3E7FE
:100C7000909F00083C3C2D4754502D4552524F52F6
:100C80002D3E3E20475450206932632074657374B2
:100C9000206661696C65642074696D652025642E29
:100CA0000A0000002DE9FE4380460C4615464FF031
:100CB000FF36002700BF00BF0020ADF802008DF80E
:100CC0000080A8B2ADF80400029408E00121684653
:100CD00000F04EFD0646012E00D102E07F1C052FDC
:100CE000F4DB00BF052F08DB6078237840EA03219E
:100CF000AA1E3346024806F095FF3046BDE8FE8343
:100D000024CD00082DE9F0474FF0FF3500264FF0C5
:100D100000094FF0000AB82400BF00BF00F01EFD1C
:100D2000FFF788FF0546002D05DA28A006F07AFFB8
:100D30002846BDE8F08700F069F82F48007818B918
:100D40002E4F4FF0BA0802E02D4F4FF0BA08F021B5
:100D50002C48FFF7F3FA424639462A48FFF7D5FAFE
:100D60004FF00009022606E02648801E805D4844B8
:100D700000F0FF09761CA01C8642F5DB6FEA090033
:100D8000401CC1B21F4A921EA01C11540121E01C3C
:100D900011544FF0000A0BE0221D1A49891EBA2097
:100DA000FFF780FF0546002D00DD04E00AF1010A8F
:100DB000BAF1050FF0DB00BF1348FFF758FC00F055
:100DC000D5FAFFF791FE0020B3E700003C3C2D4729
:100DD00054502D4552524F522D3E3E204932432011
:100DE000636F6D6D756E69636174696F6E204552D6
:100DF000524F52210A000000A20200203C000020B5
:100E0000F6000020B2010020FFFF0F0010B586B0F1
:100E10004FF0FF342E4903C9CDE9040100BF00BFE4
:100E2000082204A9BA20FFF7C3FE0446002C05DA05
:100E300028A006F0F7FE204606B010BD9DF815006C
:100E4000F0B99DF816009DF81710CDE900109DF837
:100E500014309DF813209DF8121029A006F0E2FE30
:100E60009DF81200392830D19DF8130031282CD17B
:100E70009DF81400312828D101202D49087024E064
:100E80009DF816009DF817109DF81520CDE900215A
:100E900002909DF814309DF813209DF8121025A0A3
:100EA00006F0C0FE9DF8120039280ED19DF81300FF
:100EB00031280AD19DF81400352806D19DF8150077
:100EC000372802D100201A4908702046B4E70000F4
:100ED000789F00083C3C2D4754502D4552524F52AC
:100EE0002D3E3E2047545020726561642076657225
:100EF00073696F6E206661696C65640A00000000AA
:100F00003C3C2D4754502D494E464F2D3E3E2049E6
:100F100043312056657273696F6E3A2025632563ED
:100F200025635F25303278253032780A00000000D2
:100F3000A20200203C3C2D4754502D494E464F2DD7
:100F40003E3E204943322056657273696F6E3A20E7
:100F500025632563256325635F253032782530328C
:100F6000780A000010B500BF00BF00F07DF810BD8A
:100F70002DE9F04104460D4616461F46B3B2AAB20B
:100F8000DFF82CC03CF814C01FFA8CF1DFF824C045
:100F90003CF814C01FFA8CF000F048F828B205495C
:100FA00021F8140030B2024921F81400BDE8F081A4
:100FB000AE020020A402002010B50446084A32F90F
:100FC0001410084A32F9140000F048F84FF0FF30CE
:100FD000044921F81400024921F8140010BD000052
:100FE000AE020020A40200202DE9F04704460D4681
:100FF00016461F46DDE908891FFA89F11FFA88F0B5
:1010000001F07CF93B4632462946204600F004FEBA
:10101000BDE8F087034A12880280034A12880A80DA
:1010200070470000E2020020E402002030B5064CC8
:101030002080064C2180064C2280064C2380002410
:10104000054D2C7030BD0000DE020020E0020020C3
:10105000E2020020E4020020E60200200122014B0F
:101060001A707047E60200202DE9F04F99B05FA09A
:101070000068189028210EA8FFF760F95C48006806
:101080000D900025A8464FF0BA0B002600200C90CA
:101090000B900A90814600244FF0FF3A00BF00BF3A
:1010A0000C220DA95846FFF783FD8246BAF1000FC6
:1010B00006DA51464FA006F0B5FD19B0BDE8F08F35
:1010C0009DF83680B8F1000F00D1F6E708F08000F7
:1010D00000B97CE008F00F05052D00DD77E0012D5B
:1010E00017DD242101A8FFF729F94148001D0068F8
:1010F0000090681EC000821C69465846FFF758FDE4
:101100008246681EC2000DF1020110A8FFF7FDF82B
:1011100000BF44480088A84221DD00241BE00027CE
:1011200015E0032000EBC7000DA94618307800F049
:101130000F093D48005D484500D10AE0681EB842ED
:1011400003DC3949085DFFF737FF781CC7B2AF42AF
:10115000E7DB00BF641C334800888442DFDB2DB32B
:10116000002420E0032000EBC4000DA946183078CD
:1011700000F00F092C4800F804907078B17840EA2C
:1011800001200C90F078317940EA01200B907079C1
:10119000B17940EA01200A904846DDE90A320C990B
:1011A000FFF7E6FE641CAC42DCDB0DE01D48008866
:1011B00050B1002404E01C49085DFFF7FDFE641CEB
:1011C000184800888442F6DB1648058000BF0322D9
:1011D00018A95846FFF766FD8246BAF1000F02DAF9
:1011E00012A006F01FFD00BF67E70000814E00005F
:1011F0001C9F00083C3C2D4754502D4552524F52E5
:101200002D3E3E20493243207472616E73666572D2
:10121000206572726F722E206572726E6F3A25644D
:101220000A200A00B8020020BA0200203C3C2D47E8
:1012300054502D494E464F2D3E3E20493243207793
:101240007269746520656E645F636D642065727297
:101250006F72210A0000000000BFFEE721B1028882
:1012600042F48062028004E002884FF6FF331A40A5
:101270000280704770B5024600240025002300203C
:10128000958A138B1B0445EA030626F07F4404EA83
:1012900001068E4201D1012000E0002070BD21B185
:1012A000028842F00102028004E002884FF6FE73D9
:1012B0001A400280704700001CB50121880501F02A
:1012C000E5FA0121882001F0B1FA0121880301F03B
:1012D000EDFA042211462348FFF7D6FB042205212C
:1012E0002048FFF7D1FB1020009002208DF8040069
:1012F0008DF8050001208DF8060000208DF807000C
:1013000069461848FFF778FB202000906946154889
:10131000FFF772FB4FF40060009001208DF804008D
:1013200002208DF8050000208DF8060002208DF8BF
:10133000070069460C48FFF75FFB4FF40050009030
:1013400001208DF8040002208DF8050000208DF8A2
:10135000060002208DF8070069460348FFF74CFBA2
:101360001CBD0000001C0240000C024000B585B00E
:101370004FF40050009000208DF8040002208DF8FA
:10138000050000208DF8070069461548FFF734FB7B
:101390000D21032001F084FE4FF400500390002043
:1013A0008DF8100008208DF8110001208DF8120032
:1013B00003A8FFF787F94FF4407001F00DFA2820D9
:1013C0008DF8080000208DF809008DF80A00012032
:1013D0008DF80B0002A801F0C3F905B000BD0000B4
:1013E000000C024021B1028842F48072028004E0C5
:1013F00002884FF6FF631A400280704721B10288CD
:1014000042F40072028004E002884FF6FF531A4053
:10141000028070470CB50246002000230193009320
:1014200000920B0F019321F07F41019B1BB1009BA8
:101430001433009303E0090C009B18330093009BC6
:101440001B680B400BB1012000E000200CBD000028
:101450002DE9FF4704460D460026B1460427DFF874
:10146000CC80A6884FF6C0700640684601F02EFA80
:10147000DDF808802E48B8FBF0F01FFA80F946EA44
:101480000906A68020884FF6FE71084020800026BD
:101490002849286888420CD828684000B8FBF0F03A
:1014A00087B2042F00DA04273E4309F101002084AB
:1014B00027E0E8884BF6FF71884206D1286800EBE8
:1014C0004000B8FBF0F087B209E0286800EBC001EB
:1014D00001EB0010B8FBF0F087B247F48047C7F388
:1014E0000B0008B947F0010747F4004006434FF4EA
:1014F000967009FB00F04FF47A7190FBF1F0401CFC
:101500002084A683208840F00100208026884FF6A2
:10151000F5300640A8886989084306432680A889D3
:10152000298908432081BDE8FF87000000127A0066
:1015300040420F00A08601001FB50020ADF8040056
:101540004BF6FF70ADF806000A20ADF808004FF426
:101550008060ADF80A000001ADF80C00074800906B
:1015600069460748FFF774FF01210548FFF797FE1A
:1015700001210348FFF772FE1FBD0000801A06001C
:101580000058004070B506460D4614464FF4204002
:101590003B49086009E03A490868411E384A116031
:1015A00018B9002000F0BAF870BD4FF4003135488A
:1015B000FFF730FF0028EED101213248FFF712FF7C
:1015C0004FF480502E49086009E02D490868411EFB
:1015D0002B4A116018B9012000F0A0F8E4E72A496D
:1015E0002848FFF747FE0028EFD001223146254862
:1015F00000F08AF84FF480502149086009E0204942
:101600000868411E1E4A116018B9022000F086F8D1
:10161000CAE71D49491C1B48FFF72CFE0028EED0E5
:1016200026E0012C07D100211648FFF717FE012103
:101630001448FFF7E3FE4FF420401149086009E029
:101640000F490868411E0E4A116018B9032000F0C6
:1016500065F8A9E70C493F310A48FFF70BFE00285F
:10166000EED0084800F012F828706D1C601E84B29D
:10167000002CD6D101210348FFF7F0FD002093E7AD
:10168000C002002000580040010003000146088A03
:10169000C0B270471CB54FF40050009001208DF887
:1016A000040002208DF8050000208DF806000220BD
:1016B0008DF8070069461248FFF79EF94FF4006164
:1016C0000F48FFF704FA0F48FEF7D1FF4FF400610F
:1016D0000B48FFF7FEF90B48FEF7C9FF4FF4005027
:1016E000009000208DF8040002208DF805000020F5
:1016F0008DF8070069460248FFF77EF91CBD00001F
:10170000000C0240FFFF0F0012B141F0010101E0A7
:1017100001F0FE01018270470182704710B5044656
:10172000214602A006F07EFAFF2010BD3C3C2D476A
:1017300054502D4552524F522D3E3E2049324320A7
:10174000B5C8B4FDB3ACCAB1216572726F72436F94
:101750006465203D2025640A0000000010B5FFF7F5
:10176000ABFDFFF7E9FEFFF795FFFFF7FFFD10BDAB
:101770002DE9F04105460F460024002600BF00BFBA
:1017800000BF2BE004EB440005EB8000807800F004
:10179000010088B104EB440305EB83039A8804EB52
:1017A000440305EB8303996804EB440315F8230015
:1017B000FFF7E8FE064610E004EB440305EB830365
:1017C0001A7904EB440305EB8303996804EB4403A3
:1017D00015F8230000F00CF80646641C0EB9BC4254
:1017E000D0D116B13046BDE8F0812046FBE70000BD
:1017F00070B505460C4616464FF420403649086041
:1018000009E035490868411E334A116018B90420BF
:10181000FFF784FF70BD4FF400313048FFF7FAFD49
:101820000028EED101212D48FFF7DCFD4FF4805058
:101830002949086009E028490868411E264A1160C4
:1018400018B90520FFF76AFFE4E725492348FFF7A9
:1018500011FD0028EFD0002229462048FFF754FF51
:101860004FF480501C49086009E01B490868411E7C
:10187000194A116018B90620FFF750FFCAE7194945
:101880001648FFF7F7FC0028EFD01AE0217813483C
:10189000FFF742FF641C4FF480500F49086009E0D5
:1018A0000D490868411E0C4A116018B90720FFF75E
:1018B00035FFAFE70B49891C0848FFF7DBFC002820
:1018C000EED03000A6F10101CEB2DFD101210348F4
:1018D000FFF794FD00209DE7C00200200058004063
:1018E000010003008200070010B500F073FC00F057
:1018F000B1FC012000F0AAFD002000F00FFD002047
:1019000000F01AF8FF2000F025FD012000F006FD90
:10191000002000F011F8FF2000F01CFD4FF6FF70D2
:1019200000F012FD4FF4F0734FF4487200210846A6
:1019300000F072F910BD0000F0B58BB00446002530
:101940000026002704F47840C51204F01F0704F4B1
:10195000FC604611FEF7D9FD4FF4403001900220A3
:1019600002900496039705950F2006900D48006895
:101970000790002008904FF4F07009904FF44870E1
:101980000A9001A8FEF7D8FDFEF748FE00BF02202E
:10199000FEF7C6FD0028FAD00348008800F0D4FC0A
:1019A0000BB0F0BD340000203000002070B50546BB
:1019B0000E461446A4F12000C4B20748006801682E
:1019C00005480068C088604301EB40023146284664
:1019D00000F004F870BD00002C0000202DE9F0415B
:1019E00004460D46134600BF002200BF00204FF4FE
:1019F000487767437E00284400214DE000223FE005
:101A0000294F3F68BF884FF00C0C97FBFCF74FEA5B
:101A1000C70C802707FA0CF7174133F811C007EA03
:101A20000C0727B9204F3F68BF880C2F0DDD33F816
:101A300011704FF0010C0CFA02FC07EA0C078FB989
:101A4000194F3F68BF880C2F0CDD184F3F88DFF817
:101A500060C0DCF800C04FF0020808FB00CC2CF896
:101A600006700BE0134F3F88DFF844C0DCF800C07D
:101A70004FF0020808FB00CC2CF80670401C521CEA
:101A8000094F3F68BF889742BAD8074F3F68BF8861
:101A9000C7F548773844491C034F3F68FF888F4299
:101AA000ACD8BDE8F08100002C00002032000020FE
:101AB00034000020300000202DE9F04303460C469E
:101AC0001546684200216F00C7F1020200BF2B4F8C
:101AD0003F88A3EB000C04EB01084FF4487909FBA5
:101AE00008CCDFF89C80D8F8008028F81C70234FC1
:101AF0003F8803EB000C04EB010809FB08CCDFF87E
:101B00008080D8F8008028F81C701C4F3F8803EBB9
:101B1000000CA4EB010809FB08CCDFF86480D8F8BE
:101B2000008028F81C70154F3F88A3EB000CA4EB35
:101B3000010809FB08CCDFF84880D8F8008028F8B5
:101B40001C7016468E420BDC4F1C39464FF0010CC0
:101B50000CEB47073A44C84202D1864200DC00261B
:101B6000864206DD471C38464FF0010C0CEB470758
:101B70003A440028ABDDBDE8F083000030000020CF
:101B8000340000202DE9F04706460F46904603201A
:101B9000A0EB48090024454634E08DB16B041A0CD3
:101BA0007B1B99B2331B98B2012300F087F86B04BA
:101BB0001A0C7B1B99B2331998B2012300F07EF8FE
:101BC0008CB163041A0C3B1B99B2731B98B20123AE
:101BD00000F074F863041A0C3B1B99B2731998B2A5
:101BE000012300F06BF8B9F1000F04DA062000EBD6
:101BF0008400814405E0601B0A2101EB80008144E0
:101C00006D1E641CAC42C8D9424639463046FFF7C7
:101C100053FFBDE8F08700002DE9F04F8BB005467B
:101C20000E4614461F464FF00008C146C246C34642
:101C30002048008800F478404FEAE0291D480078E9
:101C400000F01F0B1B48008800F4FC604FEA601A8C
:101C50004FF4487000FB065017490968022202FB46
:101C60000018FEF752FC4FF4403001900220029021
:101C7000CDF810A0CDF80CB0CDF814900F20069040
:101C8000CDF81C80C4F54870089009970A9401A803
:101C9000FEF752FCFEF7C2FC00BF0220FEF740FC3C
:101CA0000028FAD00348008800F04EFB0BB0BDE8D6
:101CB000F08F000030000020340000202DE9F04FAC
:101CC0008BB005460E4614461F464FF00008C1462D
:101CD000C246C3464FF4487000FB065020490968CD
:101CE000022202FB00181F48008800F478404FEAE7
:101CF000E0291C48007800F01F0B1A48008800F407
:101D0000FC604FEA601AFEF700FC4FF4403001908F
:101D100002200290CDF810A0CDF80CB0CDF81490B0
:101D20000F200690CDF81C802FB9002008900120CC
:101D300009900A9405E040F21F30089009940120B0
:101D40000A9001A8FEF7F8FBFEF768FC00BF02202E
:101D5000FEF7E6FB0028FAD00BB0BDE8F08F0000DC
:101D600034000020300000202DE9F04105460E46E9
:101D700017461C4600233A4631462846FFF79EFF89
:101D8000301981B200233A462846FFF797FF012316
:101D9000224631462846FFF791FFE91988B2012310
:101DA00022463146FFF78AFFBDE8F0812DE9F04F6A
:101DB00089B005460E4691469A460027B84600204F
:101DC00008900790069005900490039000248346A5
:101DD000029001900090A9EB0500002802DDA9EB1C
:101DE000050001E0A5EB090007B2AAEB06000028F8
:101DF00002DDAAEB060001E0A6EB0A000FFA80F86C
:101E000028B2089030B20790A94503DB0120069064
:101E1000059003E04FF0FF3006900590B24503DBDC
:101E200001200490039003E04FF0FF3004900390F2
:101E300047450DDB0020069003903C46384607EBF3
:101E4000D07149100FFA81FBCDF8088001970CE0A2
:101E50000020059004904446404608EBD07149109C
:101E60000FFA81FB0297CDF804800020009025E056
:101E7000DDE9071000F0BAFC029858440FFA80FB25
:101E8000A3450DDBABEB04000FFA80FB0699089825
:101E9000084400B2089004990798084400B20790DB
:101EA00005990898084400B20890039907980844D7
:101EB00000B207900098401C00B20090DDE90001DC
:101EC0008842D5DD09B0BDE8F08F00001CB50121C6
:101ED00040F2FF1000F0AAFC0420009002208DF8D0
:101EE00005008DF8040000208DF806008DF807002D
:101EF0006946AF48FEF780FD0E220221AC48FEF78E
:101F0000C3FD082000906946A948FEF775FD0E2222
:101F10000321A748FEF7B8FD4FF480700090694692
:101F2000A348FEF769FD0E220821A148FEF7ACFD8B
:101F30000120009069469F48FEF75EFD09220021BE
:101F40009C48FEF7A1FD4FF40060009069469A4856
:101F5000FEF752FD0E220B219748FEF795FD4FF438
:101F60008050009069469448FEF746FD0E220C21F1
:101F70009148FEF789FD0220009069468D48FEF7E2
:101F80003BFD092201218B48FEF77EFD4020009099
:101F900069468A48FEF730FD0E2206218748FEF783
:101FA00073FD2020009069468548FEF725FD0E222E
:101FB00005218348FEF768FD40200090694680486F
:101FC000FEF71AFD0E2206217D48FEF75DFD4FF457
:101FD0000050009069467648FEF70EFD0E220D2156
:101FE0007348FEF751FD4FF48060009069467348D6
:101FF000FEF702FD09220A217048FEF745FD4FF465
:102000000040009069466A48FEF7F6FC0E220F2158
:102010006748FEF739FD0120009069466948FEF7E0
:10202000EBFC0E2200216748FEF72EFD8020009079
:1020300069466548FEF7E0FC0E2207216248FEF77C
:1020400023FD0420009069465E48FEF7D5FC0E2271
:1020500002215C48FEF718FD1020009069465848A0
:10206000FEF7CAFC0E2204215548FEF70DFD4FF481
:102070008050009069465148FEF7BEFC0E220C21AC
:102080004E48FEF701FD4020009069464F48FEF79C
:10209000B3FC0E2206214D48FEF7F6FC4FF400601B
:1020A000009069464548FEF7A7FC0E220B214348E5
:1020B000FEF7EAFC1020009069464248FEF79CFCBF
:1020C0000E2204213F48FEF7DFFC082000906946FD
:1020D0003948FEF791FC0E2203213748FEF7D4FC65
:1020E0004FF48070009069463248FEF785FC0E225E
:1020F00008213048FEF7C8FC4FF400700090694694
:102100002C48FEF779FC0E2209212A48FEF7BCFC78
:102110008020009069462948FEF76EFC0E220721B8
:102120002648FEF7B1FC4FF48060009069462548D0
:10213000FEF762FC0E220A212248FEF7A5FC4FF4AE
:102140000070009069461F48FEF756FC0E220921D8
:102150001C48FEF799FC4FF48060009069461C48CB
:10216000FEF74AFC0E220A211948FEF78DFC1020CA
:10217000009002208DF8050001208DF80400002059
:102180008DF8060001208DF8070069460F48FEF71C
:1021900033FC8020009069460C48FEF72DFC10218E
:1021A0000A48FEF796FC80210848FEF792FC1CBD09
:1021B000001C0240000402400000024000180240DF
:1021C000001002400020024000080240000C0240C3
:1021D0000014024000B58FB00121880600F066FBB4
:1021E0000121C80500F022FBFFF770FE00F056FC4D
:1021F000002000900190029003900C900D900E90A2
:1022000005220721FA2000F007FC002000F0F2FB75
:10221000012000F0FBFB00BF3D2000F0CBFB0028BD
:10222000FAD00020049005902E20069017200790E9
:1022300040F24E30089040F2F71009904FF4597078
:102240000A9040F20D200B90684600F023F90FB081
:1022500000BD000000B591B02F20019040F24E303B
:1022600002901820039040F2F7100490022005908D
:10227000FF20069000200790089009900A904FF4E4
:1022800080600B9005200C9040F243600E90C01EC1
:102290000F904FF4F070109015480D9001A915485B
:1022A00000F0C9F90220059011480D904FF4C0606C
:1022B0000B9007200C9001A90E48803000F0BBF96C
:1022C000012000F043FA01210A4800F0A9F9012198
:1022D0000848803000F0A4F9012000F037FA0648E1
:1022E00000F016F8012000F0C3F811B000BD0000A6
:1022F000000000D084680140F8020020024A1080EB
:10230000024A118070470000300000203200002097
:1023100001490860704700002C00002030B90749CF
:10232000074A11600021074A116005E00349044A89
:1023300011600121034A116070470000000000D0C5
:102340003400002038000020014908807047000058
:102350003000002010B504460848006820B9214626
:10236000074800F05BF904E021460548803000F0A2
:1023700055F9012000F0EAF910BD000038000020F6
:10238000846801401CB50121802000F04FFA4FF411
:102390008050009001208DF8040002208DF8050087
:1023A00000208DF8070069460448FEF725FB01224E
:1023B00011030248FEF793FB1CBD0000001C024005
:1023C0001CB50121802000F031FA4FF4006000902C
:1023D00001208DF8040002208DF8050000208DF802
:1023E000070069460448FEF707FB0122D1020248B4
:1023F000FEF775FB1CBD0000001C024010B54FF439
:1024000000610248FEF767FB10BD0000001C02409F
:102410001CB50121802000F009FA4FF48060009083
:1024200001208DF8040002208DF8050000208DF8B1
:10243000070069460448FEF7DFFA012291020248CC
:10244000FEF74DFB1CBD0000001C024030B10749E7
:10245000096841F00101054A116005E00349096876
:1024600021F00101014A1160704700001868014025
:1024700030B10749096841F48031054A116005E02F
:102480000349096821F48031014A11607047000056
:1024900018680140F0B50021002200230024002527
:1024A00000265B4F3F68DFF86CC107EA0C07DFF8D6
:1024B00060C1CCF80070078A390467463F68D0F8DD
:1024C00014C04CEA010C47EA0C07DFF844C1CCF811
:1024D00000700CF104073F68DFF838C107EA0C0709
:1024E000DFF82CC10CF1040CCCF80070078B3A0417
:1024F00067463F68D0F81CC04CEA020C47EA0C075C
:10250000DFF80CC10CF1040CCCF800700CF10407DE
:102510003F68DFF800C107EA0C07DFF8F4C00CF1F0
:10252000080CCCF80070078C3B0467463F68D0F875
:1025300024C04CEA030C47EA0C07DFF8D4C00CF1C6
:10254000080CCCF800700CF104073F68DFF8C4C039
:1025500007EA0C07DFF8B8C00CF10C0CCCF80070DF
:10256000078D3C046746D7F800C0C76A27434CEA8A
:10257000070C274F0C37C7F800C03F1D3F68DFF836
:1025800098C007EA0C07DFF888C00CF1100CCCF8F3
:102590000070D0E9007C47EA0C07D0F808C047EA91
:1025A0000C07D0F80CC047EA0C07DFF864C00CF148
:1025B000100CDCF800C047EA0C07DFF854C00CF13F
:1025C000100CCCF80070476B3D02078E3E04104F94
:1025D00024373F6807F07F47DFF834C00CF1240C44
:1025E000CCF8007046EA0507D0F838C047EA0C0777
:1025F000DFF81CC00CF1240CDCF800C047EA0C0723
:10260000DFF80CC00CF1240CCCF80070F0BD000019
:102610000868014000F800F08F88FE0F41617047A4
:1026200021B1026842F00102026003E0026822F078
:102630000102026070472DE9F041002400250026C8
:10264000002200270023B1F804C04FEA0C44D0F860
:1026500004C00CF4704CC0F804C0D1F800C04CEABF
:10266000040CC0F804C0B1F80CC04FEA0C45D0F817
:1026700008C00CF4704CC0F808C0D1F808C04CEA8F
:10268000050CC0F808C0D0F810C02CF0070CC0F83A
:1026900010C0D1F810C0C0F810C0D1F81CC04FEA6B
:1026A0000C26B1F820C04FEA0C4291F824C04FEA42
:1026B0000C67D0F818C09C46C0F818C0D1F818C0F4
:1026C0004CEA060C4CEA020C4CEA070CC0F818C0A5
:1026D000D0F814C02CF0FF0CC0F814C0D1F814C00E
:1026E000C0F814C0D0F81CC040F207782CEA080CDF
:1026F000C0F81CC0D1E90AC84CEA080CC0F81CC0DC
:10270000D0F828C09C46C0F828C0D1F830C0C0F826
:1027100028C0B1F838C04FEA0C43D0F82CC00CF0F8
:10272000E02CC0F82CC0D1F834C04CEA030CC0F83F
:102730002CC0D0F830C06FF30A0CC0F830C0D1F80C
:102740003CC0C0F830C0BDE8F0810000014908601D
:10275000704700002468014000BFFEE7704700009A
:1027600070B5002100230F22C4781CB3174C2468D5
:1027700004F4E064C4F5E064C4F30721C1F1040487
:10278000E3B20A4144789C40E1B28478144021438A
:102790000C07210E0E4C05786155047804F01F05D6
:1027A0000124AC4005786D11AD0005F1E025C5F8B8
:1027B000004109E0047804F01F050124AC40054DF8
:1027C0000678761145F8264070BD00000CED00E05B
:1027D00000E400E080E100E002490143024A1160A8
:1027E000704700000000FA050CED00E030B500284D
:1027F00007DBB0F5487F04DC002902DBB1F5F07F90
:1028000000DD30BD00224FF4487303FB0103054C8B
:102810002468022505FB0342034B1B88138000BF7D
:10282000EFE70000340000203000002029B1064A04
:1028300012680243044B1A6004E0034A12688243A0
:10284000014B1A60704700003038024029B1064A37
:1028500012680243044B1A6004E0034A1268824380
:10286000014B1A60704700001038024029B1064A37
:1028700012680243044B1A6004E0034A1268824360
:10288000014B1A60704700003838024029B1064AEF
:1028900012680243044B1A6004E0034A1268824340
:1028A000014B1A60704700004038024029B1064AC7
:1028B00012680243044B1A6004E0034A1268824320
:1028C000014B1A607047000044380240F0B5002107
:1028D00000220024022500260223324F3F6807F021
:1028E0000C0121B1042905D0082937D105E02E4F6C
:1028F000076036E02D4F076033E02A4F3F1F3F68E7
:10290000C7F38056274F3F1F3F6807F03F036EB164
:10291000264FB7FBF3F7DFF88CC0ACF1040CDCF802
:1029200000C0CCF3881C07FB0CF40CE01E4FB7FB77
:10293000F3F7DFF870C0ACF1040CDCF800C0CCF3A6
:10294000881C07FB0CF4174F3F1F3F68C7F3014774
:102950007F1C7D00B4FBF5F7076002E0124F0760B3
:1029600000BF00BF0F4F3F6807F0F0010909104F8B
:102970007A5C0768D74047600A4F3F6807F4E05128
:10298000890A0B4F7A5C4768D7408760054F3F68DC
:1029900007F46041490B064F7A5C4768D740C7602F
:1029A000F0BD0000083802400024F40040787D01AA
:1029B0001400002010B501460022002300204A1117
:1029C000012A02D10A4C236808E0022A03D1084CEC
:1029D0007034236802E0064C7434236801F01F024F
:1029E000012494401C400CB1012000E0002010BDE7
:1029F0000038024001460020034A106820F44030AD
:102A000008431060704700008C3802400149086795
:102A1000704700000000474210B5830143EA01639C
:102A200043EA0273014C236010BD00008838024065
:102A300030B501460020C1F3C442C1F38523C1F380
:102A4000C404D50205EB43152544A8B230BD0000EF
:102A50000149086070470000382C01400146002001
:102A6000034A12680A400AB1012000E000207047C2
:102A7000342C014010B500F093FA10BD29B1064A7C
:102A800012680243044B1A6004E0034A126882434E
:102A9000014B1A60704700003C2C014000B593B018
:102AA00000F02EF801210846FFF7E0FE0220019019
:102AB0000720029004200390072004900220059034
:102AC00006900790012008900020099004200A90A9
:102AD00010200B9040200C9080000D9000200E9054
:102AE0004FF400600F90400010900020119001A85A
:102AF000129008A8FDF7D2FE00F0D4F913B000BD83
:102B00001CB50121FC20FFF791FE02208DF8040086
:102B10008DF8050000208DF806008DF807000120D3
:102B200000906946D948FDF767FF0C220021D7487D
:102B3000FDF7AAFF022000906946D448FDF75CFF2C
:102B40000C220121D148FDF79FFF04200090694627
:102B5000CE48FDF751FF0C220221CC48FDF794FF2F
:102B6000082000906946C948FDF746FF0C22032162
:102B7000C648FDF789FF102000906946C348FDF75D
:102B80003BFF0C220421C148FDF77EFF202000906E
:102B90006946BE48FDF730FF0C220521BB48FDF712
:102BA00073FF4FF4805000906946B848FDF724FF4A
:102BB0000C221146B548FDF767FF4FF40050009016
:102BC0006946B248FDF718FF0C220D21AF48FDF70A
:102BD0005BFF4FF4804000906946AC48FDF70CFF66
:102BE0000C220E21A948FDF74FFF4FF40040009042
:102BF0006946A648FDF700FF0C220F21A348FDF708
:102C000043FF012000906946A148FDF7F5FE0C2224
:102C100000219F48FDF738FF0220009069469C483C
:102C2000FDF7EAFE0C2201219948FDF72DFF102047
:102C3000009069469648FDF7DFFE0C220421944877
:102C4000FDF722FF2020009069469148FDF7D4FE51
:102C50000C2205218E48FDF717FF4FF480400090AD
:102C600069468C48FDF7C8FE0C220E218948FDF705
:102C70000BFF4FF40040009069468648FDF7BCFE0C
:102C80000C220F218348FDF7FFFE012000906946CA
:102C90008048FDF7B1FE0C2200217E48FDF7F4FECE
:102CA0000220009069467B48FDF7A6FE0C22012118
:102CB0007848FDF7E9FE8020009069467648FDF7E8
:102CC0009BFE0C2207217448FDF7DEFE4FF4807056
:102CD000009069467048FDF78FFE0C2208216E486F
:102CE000FDF7D2FE4FF40070009069466A48FDF788
:102CF00083FE0C2209216848FDF7C6FE4FF4806070
:102D0000009069466448FDF777FE0C220A2162486C
:102D1000FDF7BAFE4FF40060009069465E48FDF78B
:102D20006BFE0C220B215C48FDF7AEFE4FF4805089
:102D3000009069465848FDF75FFE0C221146564840
:102D4000FDF7A2FE4FF40050009069465248FDF78F
:102D500053FE0C220D215048FDF796FE4FF48040A3
:102D6000009069464C48FDF747FE0C220E214A4868
:102D7000FDF78AFE4FF40040009069464648FDF793
:102D80003BFE0C220F214448FDF77EFE4FF480707D
:102D9000009069463F48FDF72FFE0C2208213D4870
:102DA000FDF772FE4FF40070009069463948FDF758
:102DB00023FE0C2209213748FDF766FE4FF48060A0
:102DC000009069463348FDF717FE0C220A2131486E
:102DD000FDF75AFE4020009069463048FDF70CFE92
:102DE0000C2206212D48FDF74FFE01200090694678
:102DF0002B48FDF701FE0C2200212948FDF744FE77
:102E00004FF40060009069462048FDF7F5FD0C2264
:102E10000B211E48FDF738FE4FF400400090694634
:102E20001B48FDF7E9FD0C220F211948FDF72CFE88
:102E30004FF48070009069461548FDF7DDFD0C22C7
:102E400008211348FDF720FE8020009069461348B2
:102E5000FDF7D2FD0C2207211048FDF715FE0220D8
:102E6000009069460C48FDF7C7FD0C2201210A4875
:102E7000FDF70AFE0120009069460748FDF7BCFDFA
:102E80000C2200210448FDF7FFFD1CBD0014024088
:102E900000180240000C024000100240001C0240DA
:102EA000000802401FB50024012000900820019076
:102EB00000200290039000BF20210120FDF7BAFC02
:102EC0000028F9D16846FDF7D9FC0A2000F042F845
:102ED000022000900820019000200290039000BF83
:102EE00020210120FDF7A6FC0028F9D16846FDF756
:102EF000C5FC0320009008200190022002900020D1
:102F0000039000BF20210120FDF794FC0028F9D197
:102F10006846FDF7B3FC40F222240420009008200C
:102F2000019001200290039400BF20210120FDF7B1
:102F300081FC0028F9D16846FDF7A0FC40F26A50F8
:102F4000FDF74EFD00BF20210120FDF773FC002896
:102F5000F9D11FBD01B581B000200090054901984D
:102F60004843009002E00098401E0090009800281E
:102F7000F9D10CBDA086010010B50748006800F02B
:102F8000C05040B10120054908604FF0C2510248CD
:102F90005830FDF751FB10BD00640240D8020020FC
:102FA00010B54FF48070FFF759FD50B1002025494E
:102FB00008704FF48070FFF74BFD01202249086034
:102FC00037E00220FFF74AFD30B10220FFF740FD55
:102FD00002201C4908702CE00820FFF73FFD30B1AB
:102FE0000820FFF735FD04201649087021E0202055
:102FF000FFF734FD30B12020FFF72AFD06201149EC
:10300000087016E01020FFF729FD30B11020FFF7FF
:103010001FFD05200B4908700BE04FF40070FFF70F
:103020001DFD30B14FF40070FFF712FD0720054978
:10303000087000214CF23A30FFF720FD014800787B
:1030400010BD0000D0020020D402002021B102886F
:1030500042F04002028004E002884FF6BF731A403B
:103060000280704710B50022028802F441520B889A
:103070004C8823438C882343CC8823430C892343E7
:103080004C8923438C892343CC8923431A430280F0
:10309000838B4FF2FF74234083830B8A038210BD1E
:1030A00030B500228B071C0F0F2303FA04F20B4BE1
:1030B0008C1053F824309343084C8D1044F825307D
:1030C00023468C1053F824308C07240F00FA04F4A4
:1030D0002343024C8D1044F8253030BD08380140A0
:1030E0000CB50020019000904148006840F4803009
:1030F0003F49086000BF3E48006800F4003000907F
:103100000198401C0190009818B90198B0F5A04FA3
:10311000F1D13748006800F4003010B10120009070
:1031200001E0002000900098012860D13048403034
:10313000006840F080502E49403108602D480068FA
:1031400040F440402B49086029480830006828496D
:10315000083108600846006840F4004008600846EE
:10316000006840F4A05008602348091F0860081F49
:10317000006840F08070091F086000BF1C480068AC
:1031800000F000700028F9D01A48006840F4803040
:103190001849086000BF1748406800F480300028D4
:1031A000F9D01448006840F400301249086000BFAC
:1031B0001048406800F400300028F9D040F2057053
:1031C0000E4908600A480830006820F003000849EA
:1031D000083108600846006840F00200086000BF3F
:1031E00003480830006800F00C000828F8D10CBD36
:1031F0000038024000700040195A4007003C02406D
:1032000010B500BF502080F31188BFF34F8FBFF37C
:103210006F8F00BF06F0F6FB18B14FF080500449E5
:10322000086000BF002080F3118800BF10BD0000BF
:1032300004ED00E010B51548006840F47000134933
:1032400008601348006840F0010011490860002040
:103250000F49083108600E4800680E4908400C49C3
:1032600008600D48091D0860081F006820F48020D0
:10327000091F0860002006490C310860FFF730FF85
:103280004FF0006001498039086010BD88ED00E012
:1032900000380240FFFFF6FE1030002400B587B072
:1032A00001210846FFF7C2FA01211020FFF7FEFABC
:1032B00000208DF81A0002208DF8180001208DF8EA
:1032C0001B0003208DF819004FF40070059005A92C
:1032D0001A48FDF791FB4FF48060059005A9174847
:1032E000FDF78AFB072209211448FDF7CDFB0722D1
:1032F0000A211248FDF7C8FB4FF4E130019000208D
:10330000ADF80A00ADF80800ADF80C00ADF81000FB
:103310000C20ADF80E0001A9094800F003F900F0F7
:1033200053F80121064800F094F8012240F225519B
:10333000034800F0D1F807B000BD000000000240D3
:103340000010014010B540F22551184800F09AF8DD
:1033500058B300F04DF816490A680968491C144B27
:103360001960144941F8220040F225510F4800F03D
:1033700061F80F48006810490968884215D100209B
:103380000B4908600C4801680A4800F03FF8002427
:1033900007E0084850F82420214608A004F042FC29
:1033A000641C054800688442F3DB10BD0010014036
:1033B00028000020A8030020240000202025642DE0
:1033C0002D2563200A00000008B54FF44070FFF778
:1033D00003FA25208DF8000000208DF801008DF8FB
:1033E000020001208DF803006846FFF7B9F908BD17
:1033F00010B500BF2021044800F037F80028F9D0AC
:10340000014800F0F9F810BD001001402DE9F0412D
:1034100005460E462F46002405E017F82410044800
:1034200000F0EFF8641CB442F7DBBDE8F081000067
:103430000010014010B50022002340F66A14A1429A
:1034400000D100BF0A1201249440A3B2DC430480DF
:1034500010BD21B1828942F40052828104E0828948
:103460004DF6FF731A408281704702460020B1F585
:10347000007F00D100BF13880B400BB1012000E09A
:103480000020704770B5024600240023002500206C
:1034900040F66A16B14200D100BFC1F3421501F0F7
:1034A0001F03012606FA03F3012D02D1968933404A
:1034B00006E0022D02D1168A334001E0968A33409D
:1034C0000C12012606FA04F41688344013B10CB12C
:1034D000012000E0002070BDF0B503460024002666
:1034E0000025002040F66A17B94200D100BF1846F7
:1034F000C1F3421401F01F06012707FA06F5012C5B
:1035000001D10C3004E0022C01D1103000E0143065
:103510001AB107682F43076002E00768AF430760EE
:10352000F0BD00002DE9FF4705460E460024A146E8
:1035300000BFA046B08900B100BF2C8A24F44054DB
:10354000F08804432C82AC8941F20C608443B0883B
:1035500031890843718908430443AC81AC8A24F45F
:103560004074B0890443AC826846FFF7AFF9204845
:10357000854202D01F48854202D1DDF80C9001E05F
:10358000DDF80890A88900F4004040B109EBC900BB
:1035900000EB091031684900B0FBF1F707E009EBD7
:1035A000C90000EB091031688900B0FBF1F7642015
:1035B000B7FBF0F004012009642101FB1078A88911
:1035C00000F4004040B1322000EBC800B0FBF1F045
:1035D00000F00700044308E0322000EB08106421EB
:1035E000B0FBF1F000F00F0004432C81BDE8FF8731
:1035F000001001400014014001468888C0F3080013
:10360000704770B504460D462946204600F008F87C
:1036100000BF80212046FFF728FF0028F9D070BDA9
:10362000C1F308028280704700BFFEE72DE9FF4129
:1036300017461E4604F090FD002869D101A968468E
:10364000FDF7E8FCBDF80000B0F5487F2CDABDF8C6
:103650000400B0F5F07FF9DA3078012825D146482A
:103660000068002820D0142004F0C8FA0446142171
:10367000FCF764FE254601202872BDF80000E860D2
:10368000BDF8040028613C4800682860002068609C
:1036900000230A2229463948006805F0D7FF01288F
:1036A00002D1284604F0A1FA63E0BDF80420BDF879
:1036B0000010384603F073FD804601203070B8F1E9
:1036C000000F24D02C48C0F80080142004F096FA93
:1036D00004461421FCF732FE254601202872BDF86D
:1036E0000000E860BDF804002861234800682860F5
:1036F0000020686000230A2229462048006805F05F
:10370000A5FF012802D1284604F06FFA00BF30E07F
:1037100004F022FD68B3307801282AD100203070EF
:1037200001A96846FDF776FC142004F067FA044608
:103730001421FCF703FE254602202872BDF8000084
:10374000E860BDF8040028610B480068286000208C
:10375000686000231A4629460848006805F076FF8D
:10376000012802D1284604F040FA002002490860EE
:1037700000BFBDE8FF810000EC020020E80200204D
:103780002DE9F05F06468B4690461F46DDF82890EF
:1037900022A004F047FAB8F1010F03D0B8F1020FEC
:1037A00037D10EE01FFA89F2B9B2304603F03BFC84
:1037B00018B1304603F0D4FD02E0304603F033FE8A
:1037C00028E0304603F02FFE1FFA89F2B9B23046E6
:1037D00003F029FCE0B1142004F010FA044614218F
:1037E000FCF7ACFD254608202872304603F097F917
:1037F000E8600020286100BF306A28606E6000BF6A
:10380000B069824652462946304603F074FB00BF39
:1038100000E000BF00BFBDE8F09F00006974656D67
:1038200057496E0A000000002DE9F05F0646884601
:1038300091461F46DDF828A0B9F1010F03D0B9F178
:10384000020F3BD10EE01FFA8AF2B9B2304603F004
:10385000EAFB18B1304603F083FD02E0304603F086
:10386000E2FD2CE0304603F0DEFD1FFA8AF2B9B229
:10387000304603F0D8FB00B3142004F0BFF904462F
:103880001421FCF75BFD25460620287200BF7069F5
:103890000078E86000BF70694078286100BF306A36
:1038A0002860C5F80480304603F0BAFB83465A46C8
:1038B0002946304603F01FFB00BF00E000BF00BFF9
:1038C000BDE8F09F2DE9F04F85B007468A461546C2
:1038D0009B46DDF83890012D04D0022D03D0042D35
:1038E0002FD101E031E030E01AA004F09BF9442030
:1038F00004F084F90446384602F0D8FF80460120DF
:103900001649096816A2CDE90128CDE903109620D1
:103910004FF4F0737822A0210090204603F0A0FF1E
:1039200004462646304603F023FE1549304603F090
:10393000AAF93068C16830468847304603F094FBE6
:1039400003E010A004F06EF900BF00BF05B0BDE8B1
:10395000F08F0000636C6F73650A0000E8020020BE
:10396000436C69636B204F4B20746F20636C6F73E3
:1039700065207468652077696E646F772E0000009B
:10398000113A0008756E646566696E6974696F6ED8
:10399000206D73670A0000002DE9F843064688464B
:1039A00014461D46089F062C0DD1202000906B4622
:1039B0003A462946304602F021FE9DF80010304676
:1039C00002F0AAFE00BF00BF00BFBDE8F883000000
:1039D0002DE9F0410446884615461E46069F012DF6
:1039E00004D0022D03D00A2D0CD106E00BE02146B5
:1039F0000648006802F0AFFE05E0F1B2204601F093
:103A00008DFA00BF00BF00BFBDE8F081F0020020CA
:103A10002DE9F0410446884615461E46069F18A02B
:103A200004F000F9042D02D00B2D24D10AE019A0D6
:103A300004F0F8F8204603F083FE20684169204630
:103A4000884719E030786F280AD119A004F0EAF805
:103A5000204603F075FE206841692046884709E04A
:103A60000CA004F0DFF8204603F06AFE20684169EC
:103A70002046884700E000BF00BFBDE8F08100009D
:103A80006469616C6F672D2D77696E70726F63204A
:103A9000330A00000A2063616E63656C20636C6FFB
:103AA00073652077696E646F7721200A000000003B
:103AB0000A2077696E646F772077696C6C20626585
:103AC00020636C6F73656421200A00002DE9F047C4
:103AD0008246894617461E46DDF82080012F02D017
:103AE000022F1DD10EE01FFA88F2B1B2504603F04A
:103AF0009AFA18B1504603F033FC02E0504603F046
:103B000092FC2BE0504603F08EFC1FFA88F2B1B213
:103B1000504603F088FA10B112A004F083F81DE0BB
:103B2000504603F039FBC0B1142004F067F8044696
:103B30001421FCF703FC25462F72EE60C5F81080B7
:103B4000504603F029FB2860C5F804900748294631
:103B50000268504603F0CFF900BF00BF00BFBDE8C8
:103B6000F0870000627574746F6E0A00E80200202E
:103B70002DE9F0478246894617461E46DDF820802B
:103B8000012F04D0022F11D0082F23D11CE01FFADF
:103B900088F2B1B2504603F046FA18B1504600F030
:103BA000B3FD02E0504600F0F6FE31E0504600F072
:103BB000F2FE1FFA88F2B1B2504603F034FA10B1A7
:103BC000504600F07CFE23E03446214612A004F06B
:103BD00029F81DE0504603F0DFFAC0B1142004F0CC
:103BE0000DF804461421FCF7A9FB25462F72EE6060
:103BF000C5F81080504603F0CFFA2860C5F804904D
:103C0000074829460268504603F075F900BF00BF17
:103C100000BFBDE8F08700002D2D25730A000000CD
:103C2000E80200202DE9F0410746884614461D466B
:103C3000069E072C04D1294603A003F0F3FF00E001
:103C400000BF00BFBDE8F081726164696F62746E8D
:103C50003E3E3E3E3E3E3E3E25730A002DE9F04785
:103C60000646894614461D46089F012C02D0022CA8
:103C70001BD116E0BAB2A9B2304601F025FC30469D
:103C800001F06CFC804641460AA003F0CBFF3046B1
:103C900001F064FC804641460D48006801F0F7FFE2
:103CA00004E0304601F0F9FB00E000BF00BFBDE8D2
:103CB000F0870000736C696465722D2D2D2D2D2DFC
:103CC0002D2D2D2D3E3E3E3E3E25640A0000000077
:103CD000F40200202DE9F05F05460F469046994614
:103CE000DDF828A0B8F1020F2AD11FFA8AF21FFAD4
:103CF00089F1284603F097F908B300BF286A834684
:103D0000294601F0CDF9142003F078FF0446142170
:103D1000FCF714FB26460720307200BF6869F0608C
:103D20000020306100BF286A3060776000BFA8695A
:103D300083465A463146284603F0DDF800BF00E0CE
:103D400000BF00BFBDE8F09F2DE9F047044688465C
:103D500015469946089F022D0BD1204603F0B9FD68
:103D600000BF94F844000646314604A003F05AFF11
:103D700000BF00BF00BFBDE8F08700006368656357
:103D80006B3E3E3E3E3E3E3E3E3E3E2564000000D3
:103D90002DE9F0410646884614461D46069F012C33
:103DA00002D0022C0AD105E0BAB2A9B2304601F025
:103DB00019FE04E0304601F00AFE00E000BF00BF3B
:103DC000BDE8F0812DE9F05F06468A4691461F4620
:103DD000DDF82880B9F1010F03D0B9F1020F35D118
:103DE0000EE01FFA88F2B9B2304603F01CF918B1A0
:103DF000304603F0B5FA02E0304603F014FB45E02C
:103E0000304603F010FB1FFA88F2B9B2304603F0D7
:103E10000AF9D0B1142003F0F1FE04461421FCF796
:103E20008DFA254604202872EF60C5F8108000BF87
:103E3000306A28606E60304603F0F2F883465A46D6
:103E40002946304603F057F800BF1FE000BF306A34
:103E5000D8B1142003F0D2FE04461421FCF76EFA08
:103E6000254685F80890EF60C5F8108000BF306ADD
:103E70002860C5F804A0304603F0D2F883465A46BD
:103E80002946304603F037F800BF00BF00BFBDE849
:103E9000F09F2DE9F05F05468B4690461F46DDF802
:103EA0002890B8F1010F03D0B8F1020F37D10EE01E
:103EB0001FFA89F2B9B2284603F0B5F818B12846BE
:103EC00003F04EFA02E0284603F0ADFA28E0284657
:103ED00003F0A9FA1FFA89F2B9B2284603F0A3F851
:103EE000E0B1142003F08AFE04461421FCF726FA00
:103EF00026460B20307200BF6869F06000BFA88BB7
:103F0000306100BF286A3060756000BFA8698246D2
:103F100052463146284602F0EEFF00BF00E000BFE7
:103F200000BFBDE8F09F00002DE9F04781460F4635
:103F300016469846DDF820A0012E02D0022E02D1AE
:103F400000E01EE01DE0484603F026F9C0B1142051
:103F500003F054FE04461421FCF7F0F925462E72B6
:103F6000C5F80C80C5F810A0484603F015F9286084
:103F70006F60054829460268484602F0BCFF00BF52
:103F800000BF00BFBDE8F087E8020020ACB0FE4AE9
:103F9000D2E900109268CDE91F021E91FA4A0C3254
:103FA00007CA1BAB07C3442003F028FE2B90012057
:103FB000F64909680022F6A3CDE90132CDE90310E4
:103FC0004FF4F0704FF44873114600902B9802F0B4
:103FD00057FD2B901A90442003F010FE01212B90E6
:103FE000EA480268ECA31A98CDE90130CDE9032133
:103FF0004FF4F0704FF448730022114600902B9854
:1040000002F03EFD2B90199019980068C068079047
:10401000079919988847E549199802F034FE1998CC
:1040200002F044FC1890642003F0E8FD2A90D74881
:104030000168DFA21E231898CDE90032CDE9020104
:10404000B423322211462A9800F03EFE2A9017909F
:10405000442003F0D3FD2990CC480368D6A1642204
:104060001898CDE90203CDE90021B4233221299823
:1040700003F046FA29901690582003F0BFFD2890CF
:10408000C248036800216E221898CDE90203CDE9E9
:104090000021B423DC223221289801F0F7F828907F
:1040A0001590482003F0AAFD00212790B748026828
:1040B000C3A31898CDE90130CDE903211E20B42314
:1040C0004FF4AF7232210090279803F05DFD2790E6
:1040D0001490482003F092FD00212790AB4802681D
:1040E000B9A31898CDE90130CDE903211E20B423EE
:1040F0004FF4C87232210090279803F045FD2790B5
:104100001390542003F07AFD2690A0480168002205
:104110001E231898CDE90032CDE902014FF4C8738F
:104120003222FA21269801F065FD26901290502047
:1041300003F064FD00232590944801681898CDE9A8
:1041400001304FF4C870CDE9031300901E231A46C6
:1041500040F2EE21259801F04DFA2590119048206B
:1041600003F04CFD24908948036800211E22189812
:10417000CDE90203CDE900214FF496736E224FF48E
:104180008C71249801F0C2FD24901090502003F00F
:1041900035FD23907D48016800235A221898CDE907
:1041A0000023CDE902014FF4C873A022FA2123981D
:1041B00000F0ECFE23900F900021179800F0B4F966
:1041C0004FF4FC61179800F0ADF98149179802F09F
:1041D0005AFD03221EA9179800F0F6FB17980068F5
:1041E000C06807900799179888470021169800F033
:1041F0009BF947F6FF71169800F094F9169800683D
:10420000C06807900799169888477249169802F077
:104210003AFD002303221BA9159800F069FF1598A9
:104220000068C06807900799159888476A491598EB
:1042300002F029FD14980068C06807900799149847
:1042400088476649149802F01EFD13980068C068FC
:1042500007900799139888476049139802F013FD57
:10426000129801F0D3FB12980068C0680790079974
:10427000129888475A49129802F005FD1198006873
:10428000C06807900799119888475649119802F01D
:10429000FAFC10980068C068079007991098884742
:1042A00051491098086000210F9800F03DF94FF631
:1042B000E0710F9800F036F94C490F9802F0E3FCDA
:1042C0000F980068C068079007990F988847542096
:1042D00003F094FC22902D4801680022C82318980E
:1042E000CDE90032CDE902019B00F42200212298A1
:1042F00002F080FA22900E9000210E9800F014F93E
:104300003B48FEF795FB014607900E9800F00AF92E
:104310000E9801F0EFFD37490E9802F0B4FC3649D3
:104320000E980860199802F09FFE182003F066FCB2
:1043300021904FF4FC604FF4C872CDE900204FF497
:104340002F73322211460290219801F013FB219025
:104350000D90642003460022114600900D9802F053
:10436000ADFFC820FA233222014600900D9802F0DA
:10437000A5FF4FF4F07096234FF4A0723221009005
:104380000D9802F09BFF39E0A49F0008E80200208E
:10439000524F4F54210000004954204953205445A6
:1043A00053542057494E203121000000C5380008E1
:1043B0006C69737442617200627574746F6E000090
:1043C000636865636B310000636865636B3200008E
:1043D000713B0008CD3A0008253C0008493D000823
:1043E000913D00085D3C0008F4020020D13900082E
:1043F000CFCFCF0099390008F00200204FF4F070C1
:104400004FF448735A104FF42F7100900D9802F03A
:1044100055FF4FF496704FF4FA7396224FF4C8711B
:1044200000900D9802F04AFF0D980068C068079050
:1044300007990D98884700200990142004F09CFBF0
:1044400008904CE009AB199ADDE90B10FFF7EEF884
:1044500000231A4622480899006804F0C9FF079013
:10446000079801283AD1089800680A9000BF0A9876
:1044700090F82D00B8B10898006900900898C068BD
:1044800006900898007A059008984068049008986B
:10449000006803900A9840680290DDE9024004A990
:1044A0000EC9A0471AE00F490A9802F0ECFB0898E1
:1044B000006900900898C06806900898007A0590F6
:1044C0000898406804900898006803900A9840682B
:1044D0000290DDE9024004A90EC9A04700BFB1E780
:1044E000E8020020293F00081CB5002001210346F6
:1044F0004FF4FA62CDE9001003A1054805F03CFA3B
:1045000004F014FE1CBD000077696E30000000004E
:104510008D3F0008704770470146886B7047014621
:10452000486B7047816370474163704770472DE95E
:10453000FF4F81B005469A460F9E002E4ED04FF099
:10454000000800240CE0601CC4B200BF288ABDF83B
:104550000C1001FB1400002802DC601EC4B202E053
:10456000305D0028EFD100BF00BF698900BF6A8AB3
:10457000BDF80E30D01A00EBD07201EB62011FFAC9
:1045800081FB284602F0ACFC0146288ABDF80C20CD
:1045900002FB1400009000EBD07001EB60001FFAEA
:1045A00080F902A8FDF7B4FE0E9A91B21FFA8AF0C4
:1045B000FDF7A4FE0FE016F808703A464946584643
:1045C000FDF7F4F9BDF80C0048441FFA80F908F132
:1045D000010000F0FF08A045EDDB00BF05B0BDE81D
:1045E000F08FD1E90F23C0E9002370472DE9FF5F69
:1045F00004460D4616461F46DDE910ABDDE90E897F
:104600003B463246294620468DE8000F02F002FE66
:10461000044607482060002060634FF2DE70A0630C
:10462000044903C9C4E90F01204604B0BDE8F09F66
:104630007CCA0008F802002070B50446204600F04D
:1046400004F8054603F0D1FA70BD10B504462046C3
:1046500002F033FE0446204610BD10B50446206D1E
:1046600003F0C3FA04F1440000F0F1FC204602F02C
:1046700046FA10BD0146B1F84E0070472DE9F84FDB
:104680000746384602F004FB401C4FF6FF7101EA72
:10469000400900BF788A401C1FFA80FA384602F0B1
:1046A0001FFC8346384602F01EFC00EBC00101EB04
:1046B00000100BEB401046004FF4C86000904FF024
:1046C000000812E0002408E0254670190949085C3A
:1046D0007119094A5054601C84B24C45F4DB0098AF
:1046E000064408F101001FFA80F8D045EADBBDE876
:1046F000F88F000000B80BD0000000D010B50446C1
:10470000204602F04DFB10BD2DE9F04F87B0054665
:1047100000BF95F82C0000287DD1284602F072FCDD
:104720004FF6FF710846FDF7E9FD2846FFF7A2FFA7
:104730000446284602F0ACFA0646284602F0D3FBAF
:104740000746284602F0CCFB8046234632463946CF
:10475000FDF762FA2846FFF7E2FE84B22846FFF72B
:10476000DEFE86B221463046FDF7C8FD2846FFF73B
:1047700081FF0446284602F08BFA0646284602F0DE
:10478000B2FB0746284602F0ABFB80462346324682
:104790003946FDF7E9FA284602F0C1F900283AD077
:1047A00000270024294605A8FFF71BFF16E0601C20
:1047B000C4B2284602F06CFA8246294601A8FFF7E7
:1047C00010FFDDE90101CDE90301BDF8100000FB98
:1047D00014A0002802DC601EC4B205E0284602F0E6
:1047E0009EF9005D0028E2D100BF284602F07BFB65
:1047F00082462846FFF73EFF834629466846FFF774
:10480000F0FEDDE90001CDE90301BDF81200ABEBDC
:104810000000029000E049E000EBD0700AEB60007D
:104820001FFA80F9284602F05BFB8246284602F018
:104830002FFA834629466846FFF7D3FEDDE90001DB
:10484000CDE90301BDF8100000FB14B0029000EBAD
:10485000D0700AEB60001FFA80F805A8FDF758FD3C
:104860002846FFF75CFE1FFA80FA4FF6FF715046AC
:10487000FDF744FD17E0284602F051F9C65D3246C7
:1048800041464846FDF792F8294601A8FFF7A9FEE0
:10489000DDE90101CDE90301BDF8100040441FFA34
:1048A00080F8781CC7B2A742E5DB00BF07B0BDE8BF
:1048B000F08F10B50446204602F04CFB10BD2DE9E8
:1048C000F041044604F1440000F0CAFB002860D027
:1048D00000BF94F85800002831D104F1440000F0E2
:1048E000BCFB064600250AE004F1440000F0B8FBDA
:1048F00050F825703868C168384688476D1CB54245
:10490000F2DB204602F093F92046FFF7B3FE711C5C
:10491000484387B23946204602F0B3F9204600F0FA
:1049200093F900BF94F82F0010B1204602F0B3F9BC
:10493000204600F03DF8204602F096FB29E004F105
:10494000440000F08AFB074600250AE004F1440019
:1049500000F086FB50F825603068016930468847D2
:104960006D1CBD42F2DB2046FFF788FE00BF94F8C5
:104970002F0010B1204602F0D5F82046FFF77AFE4E
:1049800006463146204602F07CF9204600F010F839
:1049900000BFBDE8F08110B5044600BF94F82C00BC
:1049A00028B1204602F060FB204602F02BFB10BD30
:1049B00000BF90F8581019B1002180F8581002E09B
:1049C000012180F8581070472DE9F04F87B0044658
:1049D00089461746C4F8509004F14400078100BF8F
:1049E00000F02DFB2046FFF745FE0646204602F06C
:1049F0004FF9464304F1440000F02FFB464370009A
:104A0000206604F1440000F028FB069000253CE0FD
:104A1000442003F0F3F80646A06982462046FFF7DB
:104A200029FE0590204602F033F904902046FFF756
:104A300021FE691C48431FFA80FB59F8250005999F
:104A4000CDE9024ACDE900105A4600213046049BC8
:104A500002F056FD0646B0460F49404602F013F9F3
:104A60002046FFF75CFD8246C8F834A000BF0B4823
:104A7000FDF7DEFF8246C8F838A000BF04F144000D
:104A800000F0EEFA40F825806D1C06988542BFDBE9
:104A900007B0BDE8F08F000081370008E0E0E000DB
:104AA0002DE9F04F87B0054600BF288F84B2288FCC
:104AB00086B221463046FDF721FC2846FFF7DAFD95
:104AC0000446284602F0E4F80646284602F00BFAAF
:104AD0000746284602F004FA804623463246394605
:104AE000FDF79AF82846FFF71AFD84B22846FFF72B
:104AF00016FD86B221463046FDF700FC2846FFF73A
:104B0000B9FD0446284602F0C3F80646284602F0DE
:104B1000EAF90746284602F0E3F980462346324682
:104B20003946FDF721F9284601F0F9FF00287DD02C
:104B300000270024294605A8FFF753FD16E0601C56
:104B4000C4B2284602F0A4F88246294601A8FFF71D
:104B500048FDDDE90101CDE90301BDF8100000FBCE
:104B600014A0002802DC601EC4B205E0284601F053
:104B7000D6FF005D0028E2D100BF284602F0B3F95D
:104B800082462846FFF776FD834629466846FFF7AA
:104B900028FDDDE90001CDE90301BDF81200ABEB12
:104BA0000000029000EBD0700AEB60001FFA80F961
:104BB000284602F095F98246284602F069F88346B5
:104BC00029466846FFF70DFDDDE90001CDE9030147
:104BD000BDF8100000FB14B0029000EBD0700AEB9F
:104BE00060001FFA80F805A8FDF792FB00BF288F30
:104BF0001FFA80FA2846FFF792FC1FFA80FB514605
:104C00005846FDF77BFB19E0284601F088FFC65D9A
:104C1000324641464846FCF7C9FE294601A8FFF73F
:104C2000E0FCDDE90101CDE9030100E009E0BDF8A8
:104C3000100040441FFA80F8781CC7B2A742E3DB9B
:104C400000BF07B0BDE8F08F2DE9F84F07463846A2
:104C500002F01EF8401C4FF6FF7101EA400900BF48
:104C6000788A401C1FFA80FA384602F039F98346E8
:104C7000384602F038F900EBC00101EB00100BEBF5
:104C8000401046004FF4C86000904FF0000812E05A
:104C9000002408E0254670190949085C7119094A81
:104CA0005054601C84B24C45F4DB0098064408F173
:104CB00001001FFA80F8D045EADBBDE8F88F00005C
:104CC000000000D000B80BD02DE9FF5F04460E466F
:104CD000174698460EAD95E8200E43463A463146B3
:104CE00020468DE8200EFFF781FC044604F14400C5
:104CF00000F0BAF9A0F14404094820602030606453
:104D0000A4F84E50002084F8580020652146012068
:104D100081F82F0000BF204604B0BDE8F09F0000DE
:104D20009CCA000870B50446204600F004F8054609
:104D300002F05BFF70BD10B5044604F1440000F0C2
:104D40009BF9A0F144042046FFF77FFC044620466F
:104D500010BD10B5044694F84A0000280BDD443419
:104D6000A079401EA0710020A2792168443C88549B
:104D7000204602F079F910BD10B50446606C02F0CF
:104D800034FF204601F0BBFE10BD7FB5044621462E
:104D90006846FFF726FCDDE90001CDE90201BDF818
:104DA0000E00B4F84E104518204602F09CF8618AB7
:104DB0000844854213DC204602F092F8A4F84C0027
:104DC00021466846FFF70DFCDDE90001CDE902014F
:104DD000BDF80E00B4F84E100844A4F84E007FBD94
:104DE000F0B587B004460D46214605A8FFF7F9FB4C
:104DF00005A8FDF78DFA00BF208F86B2A08E87B27E
:104E000031463846FDF77AFAB4F84C10B4F84E0043
:104E10002A46FCF7CBFD214601A8FFF7E2FBDDE9BE
:104E20000101CDE90301BDF81000B4F84C100844AD
:104E3000A4F84C00204602F053F8218A0844B4F844
:104E40004C10884226DC204602F04AF8A4F84C00B8
:104E5000214601A8FFF7C5FBDDE90101CDE903010A
:104E6000BDF81200B4F84E100844A4F84E002046D5
:104E700002F039F8618A0844B4F84E10884209DA21
:104E8000204602F02DF8A4F84C00204602F02BF842
:104E9000A4F84E0007B0F0BD10B50446204601F05E
:104EA0007FFF10BD10B50446204602F053F810BD38
:104EB0002DE9F047044600BF208F86B2208F87B2CD
:104EC00031463846FDF71AFA00BF608A0646208A46
:104ED0000746204602F007F88046204602F000F818
:104EE000814633463A464146FCF796FE204601F09D
:104EF000F7FFA4F84C00204601F0F5FFA4F84E009F
:104F0000002505E0606C415D2046FFF769FF6D1CE0
:104F100094F84A00A842F5DCBDE8F08770B5044675
:104F20000D46112D19D007DCCDB1082D0FD0092D5C
:104F300011D0102D14D109E0122D0FD0142D0BD04B
:104F40002E2D0DD12046FFF704FF1DE01CE020466A
:104F5000FFF71BFF18E017E016E015E014E013E080
:104F600094F84A00B4F8481088420CDC94F84A10CF
:104F7000606C455429462046FFF732FF94F84A00FA
:104F8000401C84F84A0000BF00BF70BD2DE9FF4FF0
:104F900089B004460F461D4616AE96E840072B46DC
:104FA0008DE84007394620460B9AFFF71FFB044661
:104FB00019482060214601A8FFF713FBDDE9010134
:104FC000CDE90501BDF81A0096FBF0FB0BFB05FBD4
:104FD000214603A8FFF705FBDDE90301CDE9070141
:104FE000BDF820009BFBF0F0401E4434A080A08858
:104FF00002F0FFFD20600020A071443C204601F03B
:105000006FFFA4F84C00204601F06DFFA4F84E009D
:1050100020460DB0BDE8F08FCCCA000870B504463C
:10502000204600F004F8054602F0DFFD70BD10B523
:1050300004462046FFF709FB0446204610BD10B584
:1050400004462189880002F0D4FD606010BD10B5CF
:105050000446606802F0C9FD10BD0146088970472A
:105060000146486870470000024901600021416024
:1050700001817047ECCA0008704710B50446206DE6
:1050800002F0B3FD04F14400FFF7E1FF204601F018
:1050900036FD10BD10B50446204601F081FE10BD5E
:1050A0002DE9F04104460D4600BF95F8440018B1C3
:1050B000284602F00EFC19E000260AE004F1440044
:1050C000FFF7CEFF50F82680002788F8447000BF15
:1050D000761C04F14400FFF7C0FFB042EEDC284626
:1050E00002F0F7FB204601F0BFFF00BFBDE8F081F2
:1050F0002DE9F04F89B004460E4690469946266544
:1051000004F14400A0F8088000BFFFF798FF84F87E
:105110005490002794F85400002852D0002549E00C
:10512000482002F06BFD0890A0690790608A069005
:10513000B4F810B004F14400FFF78FFF9BFBF0F0D0
:1051400080B20122059056F825100798CDE9011488
:10515000CDE903020698B9B200900022059B089899
:1051600002F012FD8346089004F14400FFF778FF37
:1051700040F825B004F14400FFF772FF50F825A075
:10518000DAF80000C1685046884704F14400FFF790
:1051900067FF50F825B03849584601F074FD00BF4C
:1051A000B4F810B004F14400FFF757FF9BFBF0F098
:1051B00007446D1C04F14400FFF74FFFA842AFDC29
:1051C00056E004F14400FFF748FF824604F1440032
:1051D000FFF743FF0AEB4000471E002542E048204E
:1051E00002F00CFD8246A0690890608A400090FBA6
:1051F000F7F080B20790208A0690608A05EB45019F
:10520000484390FBF7F080B20122059056F8251034
:105210000898CDE90114CDE9030207980090002118
:105220005046DDE9052302F0AFFC824604F144005C
:10523000FFF716FF40F825A004F14400FFF710FF28
:1052400050F825B0DBF80000C1685846884704F1E3
:105250004400FFF705FF50F825000749089001F0CA
:1052600012FD6D1C04F14400FFF7F7FEA842B6DC06
:1052700009B0BDE8F08F0000D53C000810B5044629
:10528000204601F067FE10BD704700002DE9FF5F6A
:1052900004460D4616461F46DDE910ABDDE90E89D2
:1052A0003B463246294620468DE8000FFFF79EF91F
:1052B000044604F14400FFF7D7FEA0F1440405487A
:1052C000206020306064012084F85400204604B03F
:1052D000BDE8F09FFCCA000870B50446204600F007
:1052E00004F8054602F081FC70BD10B5044604F1D7
:1052F0004400FFF7C1FEA0F144042046FFF7A5F9E2
:105300000446204610BD10B50446204601F0F7FBC8
:1053100010BD2DE9F05F04468946924694F84C0092
:1053200080B3B4F84E70B4F84E0000EBD071A9EB26
:1053300061018DB2204601F0D6FD0646204601F0FF
:10534000EBFB8046204601F0CBFDA84204DD204661
:1053500001F0C6FD054648E0204601F0C1FD834648
:10536000204601F095FC5844C01BA8423DDA204677
:1053700001F0B6FD8346204601F08AFC5844C01B6C
:1053800085B232E0FFE7204601F0AAFD0546B4F8F9
:105390004E0000EBD071AAEB61018EB2204601F005
:1053A00077FC0746B4F84E80204601F09CFDB042E1
:1053B00004DD204601F097FD064616E0204601F088
:1053C00092FD8346204601F0A7FB5844A0EB08005D
:1053D000B0420ADA204601F086FD8346204601F0FD
:1053E0009BFB5844A0EB080086B243463A46314640
:1053F0002846FCF711FCBDE8F09F10B50446204696
:1054000001F0CEFC10BD2DE9F041044694F84C00AB
:1054100000B3204601F03CFCB4F84E10401A05B22F
:10542000204601F05DFDA16CC0EB1140B4F84E7058
:1054300007EBD771A0EB610006B2002E00DA002660
:10544000AE4200DD2E466420704390FBF5F084F8F8
:10545000440020E0204601F05FFBB4F84E10401AF3
:1054600005B2204601F03FFDB4F84810081AB4F820
:105470004E7007EBD771A0EB610006B2002E00DA88
:105480000026AE4200DD2E466420704390FBF5F00E
:1054900084F8440000BFBDE8F08170B504462046A2
:1054A000FFF73DF885B22046FFF739F886B2294666
:1054B0003046FCF723FFB4F8480082B2A06C010C20
:1054C0002046FFF726FF70BD2DE9F05F04460D462C
:1054D0001646A06CB5EB104F35D0B4F8480080B23A
:1054E000B04230D02F463804A064A06C3044A06491
:1054F0001648FDF79DFA80461448FDF799FA814653
:105500004146FCF7FBFE204601F006FB80462046A4
:1055100001F0BEFB8146204601F0E5FC82462046B4
:1055200001F0DEFC834643464A465146FCF774FBD5
:105530004FF6FF710846FCF7E1FE32462946204649
:10554000FFF7E7FE00BFBDE8F09F0000E0E0E000ED
:1055500010B50446204601F0FDFC10BD10B5044610
:105560002046FFF750FF94F8440010BD2DE9F041AC
:1055700004461F48FDF75CFA05461D48FDF758FA3A
:1055800006462946FCF7BAFE204601F0C5FA054654
:10559000204601F07DFB0646204601F0A4FC0746AC
:1055A000204601F09DFC80462B4632463946FCF7EA
:1055B00033FB2046FEF7B3FF85B22046FEF7AFFF70
:1055C00086B229463046FCF799FEB4F8480082B20C
:1055D000A06C010C2046FFF79CFEB4F8480082B294
:1055E000A06C010C2046FFF76FFFBDE8F0810000C2
:1055F000E0E0E0002DE9FF4F85B004460E4612AF13
:1056000097E88007169D8DE8800731462046DDE942
:105610000723FEF7EBFF04461748206084F84C5040
:10562000204601F05DFC049004980004A06420462C
:1056300001F059FCA16C0844A0645DB1204601F062
:105640006BFA00EB400B0BEBDB70C0F34F00A4F8E0
:105650004E000AE0204601F01BFB00EB400B0BEB79
:10566000DB70C0F34F00A4F84E00002084F8440023
:10567000204609B0BDE8F08F2CCB000870B5044679
:10568000204600F004F8054602F0AFFA70BD10B5F0
:1056900004462046FEF7D9FF0446204610BD2DE9FA
:1056A000F74F82B00C46154600BF288882462088F6
:1056B000834652465946029800F03DF80646284671
:1056C00001F0DDF88246204601F0D9F883465246C3
:1056D0005946029800F02FF8074600BFA888824676
:1056E000A088834652465946029800F02BF880461F
:1056F000284601F0C7F88246204601F0C3F88346E9
:1057000052465946029800F01DF88146464510DC85
:105710004F450EDC082002F071FA824643463A46B5
:105720003146CDF8009001F0B0F8824605B0BDE8F2
:10573000F08F0020FAE70346914201DD08467047EA
:105740001046FCE70346914201DA084670471046CE
:10575000FCE72DE9FF4F83B00C4693461D4600271A
:10576000002002902CE0082002F048FA80461098B1
:105770002B465A4621460090404601F086F8804666
:105780004646039801F0E3FD8146D9F8080004F08D
:1057900084FB8246524631460398FFF780FF074656
:1057A00026B100BFB146484602F01FFA3FB1039848
:1057B00001F0CDFD8146D9F80800029019E000BF44
:1057C000039801F0C4FD0646B06804F061FB58B1CF
:1057D000B06804F05DFB814604F05FFB8046B06872
:1057E00004F056FBB06001E04FF00008B8F1000F84
:1057F000B9D100BF002F77D0A046D946AA46384677
:1058000001F03DF80646BAEB080010D0B6EB0900EF
:105810000DD0039801F09BFD0190029904F036FB36
:1058200053464A46414600960398FFF792FFA0462A
:10583000384601F024F8814600BF38888246384651
:1058400001F020F80646BAEB080010D0B6EB0900CC
:105850000DD0039801F07BFD0190029904F016FB36
:1058600053464A46414600960398FFF772FF00BF31
:10587000B8888046384601F002F88146AA46384684
:1058800001F000F80646BAEB080010D0B6EB0900AC
:105890000DD0039801F05BFD0190029904F0F6FA37
:1058A00053464A46414600960398FFF752FFA046EA
:1058B000384600F0E7FF8146AA46109EBAEB080082
:1058C00010D0B6EB09000DD0039801F040FD019017
:1058D000029904F0DBFA53464A4641460096039883
:1058E000FFF737FF13E0FFE700BF03988068064625
:1058F000039840688046CDE900061098A0EB0B00A5
:1059000083B2281B82B259462046FBF76DFB07B0D5
:10591000BDE8F08F2DE9FC410446204601F017FD5B
:1059200070B1204601F013FD0546A88840B1E08A19
:105930000090A38A628A218A2046FFF70AFF16E0B8
:1059400000BFA068054660680646CDE90005E78A05
:10595000B4F812C0A7EB0C07BBB2A78AB4F810C00A
:10596000A7EB0C07BAB2618A6046FBF73DFBBDE8C6
:10597000FC810000F0B5DDE90565079C074F076075
:10598000456084600027C76000BF054F0760018243
:105990004282CF1887829719C782F0BD54CC000885
:1059A0004CCB000810B50446206D10B1206D02F0FC
:1059B0001CF904F14400FFF74AFB204601F09FF870
:1059C00010BD10B50446204601F0EAF910BD70B5CF
:1059D000044604F14400FFF743FB05682846FFF73F
:1059E0005CFD70BD2DE9F04104460D46164604F1FC
:1059F0004400FFF735FB3246294607683846FFF773
:105A000063FD204600F09CF8BDE8F0812DE9F04FE1
:105A10008FB0044604F144000221018100BFFFF76A
:105A20000EFB502002F0EAF80546A0690746206AFE
:105A3000804660698146608A8246B4F810B021468B
:105A40000BA8FEF7CEFDDDE90B01CDE90D01BDF898
:105A5000380000EB8000ABEB000080B20A90E089D8
:105A60000990A08908900120CDE900A9CDE902871D
:105A70000490284608A90EC9FFF7BCFD054604F1AD
:105A80004400FFF7EDFA0560442002F0B7F806463F
:105A9000A0690746206A8046608A8146214609A897
:105AA000FEF79FFDDDE90901CDE90D01BDF83800E4
:105AB00000EB80001FFA80FAE0890690A08900BF01
:105AC000218A00EB010B214607A8FEF78AFDDDE9DC
:105AD0000701CDE90B01BDF8300000EB8000ABEB16
